:020000040800F2
:1000000000500020013501080DCC00080D09010841
:100010000BCC000809CC000807CC00080000000049
:1000200000000000000000000000000005CC0008F7
:1000300003CC00080000000001CC0008B3E6000873
:100040009D3501089D3501089D3501089D35010844
:100050009D3501089D3501089D3501089D35010834
:100060009D350108C1E600089D3501089D35010850
:100070003DE6000829E6000865B000089D35010846
:1000800015E6000801E600089D3501089D350108C8
:100090003DCD00089D3501089D3501089D350108BD
:1000A0009D35010861AE00089D35010851AE00087C
:1000B00045AE000835AE000825AE000871F800080E
:1000C00079F800086DF8000875F800089D350108FA
:1000D0009D35010859B000089D3501084DB0000854
:1000E000C5E600089D350108F3CB000800000000BC
:1000F0000000000000000000000000000000000000
:0C01000000000000000000005FF808F1A3
:10010C002DE9F04F8F4ADFB013780392002B00F0EB
:10011C00A6808D4B1868002801F0DA870EF050FA93
:10012C00DFF85482894FD8F800000EF024FB002829
:10013C0001F0CE87D8F800000EF01AFB0928844C89
:10014C0001D03F2855D14FF0000AD14655462668BC
:10015C000AEB070B36B132465AF807107D4817F0F8
:10016C0019F920B90DB1D94601E05D46D9460AF11D
:10017C00080ABAF1F80FEBD1F5B1D5F800A0D9F80F
:10018C0000B0DFF8D0C123681AF803001BF8031085
:10019C00814211D15A1CDFF8BCE149B92D2B07D88B
:1001AC006B48026020200EF803000EF8021003E0EA
:1001BC000CF803002260E6E723680BB14D450FD025
:1001CC00654811F0AFFA4D4507D855F8080B11F0FA
:1001DC00A9FA092011F032F9F5E708F0E1FF002641
:1001EC005C4D23689E429ED2A85D11F027F9013622
:1001FC00F7E723686BB9042804D1564807F0BAFC1A
:10020C0001F066BF0C2841F05F87544811F08AFA60
:10021C0022E00C28F9D00A2841F0F4864D4E5048C3
:10022C0011F080FA2321304617F0A5F8354608B1B5
:10023C00801B206023680022002B41F0E786002AF7
:10024C0041F0118730220021424817F05EF8039BE1
:10025C001B78002B01F03C8708F0A2FF63E70193A9
:10026C00404A019B019913448A58002A00F0B68633
:10027C003D4E3E4CB0462260179200228DF8612014
:10028C0014223B4D8DF860203A4A3360DFF8EC9035
:10029C0016AB169513602068344F0EF06CFA0028DC
:1002AC0000F0888638680EF063FAD8F80030824681
:1002BC0093F8481019B9242862D101221DE00129B4
:1002CC0003D14D2808BF022204E0022907D13C28A3
:1002DC0008BF032218BF002283F8482083E00329BB
:1002EC000ED140284FF0000102D983F84810D2E714
:1002FC0058711971D9719871042283F84820CAE792
:10030C00042907D1997983F8490080EA01029A718E
:10031C000522F2E7052966D158791979884298792E
:10032C0008D98AEA00009871481C18710B4483F8AC
:10033C0008A0B0E7504503D1062283F8482059E0C5
:10034C000022DAE78C110020182A0020FC94010806
:10035C008811002058110020599601085E9601085A
:10036C00D9A30108C01F00204C23002054230020D7
:10037C008FE7000850230020342A0020F04F002083
:10038C00DFF8D0B39BF8003003F0040303F0FF0E4A
:10039C00002B80D123281BD1039A012338681370BA
:1003AC00DA4B1860DA4B1860986010201873D94833
:1003BC005D6083F80DE004330360D74811F0B2F9A7
:1003CC0008F0EEFE9BF8003043F002038BF800308F
:1003DC00D24B1B681B78534505D1D14BD14AC9F878
:1003EC000030D14BDA60D8F8003093F84820062A58
:1003FC007FF451AF93F849404D2C00F09A8400F2F1
:10040C00D280322C00F0B4846CD8242C00F04884B8
:10041C0021D8032C00F0A8810BD8012C00F06A81A4
:10042C00022C40F00B8604200DF0D4FD0024BF4DAF
:10043C0092E1052C00F0B081C0F0A181222C40F09B
:10044C00FD85BB4C50200DF0C5FD04F15005B94F96
:10045C004FF00C084BE32A2C00F04A8419D8262CB8
:10046C0000F02484282C40F0E985B14C07200DF0D5
:10047C00B1FDB4F81A020DF0B0FDB4F81C020DF089
:10048C00ACFD94F81E020DF060FDB4F8200200F0F3
:10049C0054BD2E2C00F0B284302C00F0DD842C2CBA
:1004AC0040F0CC85A24C0C200DF094FD94F83C024D
:1004BC000DF04BFDB4F848020DF08FFDB4F844027A
:1004CC000DF08BFDB4F846020DF087FD94F83E025A
:1004DC000DF03BFDB4F850020DF07FFDB4F8520264
:1004EC0000F02BBD402C00F04A8425D8382C00F0AD
:1004FC00EC8313D8342C00F01283362C40F09E85FC
:10050C00834B8B4C93F8300004F12005C0EBC000FA
:10051C00C0B20DF05FFD884F00F06BBC3B2C00F0BF
:10052C00DF823D2C00F055823A2C40F08785042068
:10053C000DF050FD00F0EBBC462C00F0B2840CD852
:10054C00422C00F02A84452C40F0788513200DF0C5
:10055C0041FD0024794D00F0D1BC492C00F04482BF
:10056C004B2C00F0CB83472C40F068850DF0E4FC5D
:10057C00044684200DF02EFD20460DF037FD704B07
:10058C001EADDF6804F18003BB428CBF3F1B80278C
:10059C000AF0F4FB3A46204629460AF063F8002498
:1005AC00074600F092BC702C00F04D8259D8672C95
:1005BC0000F0608134D8522C00F09B8418D84F2C5A
:1005CC0000F08A84502C40F03985594C04200DF0F1
:1005DC0001FD01200DF0B9FC94F801050DF0B5FCFE
:1005EC0094F8FF040DF0B1FC94F8000500F0C5BCC4
:1005FC00652C00F0ED8000F21481642C40F01E8517
:10060C0007200DF0E7FCE7200DF09FFC484B5879D4
:10061C000DF09BFC00200DF098FC042000F078BC41
:10062C006C2C00F0A1810FD8682C00F08781692C0C
:10063C0040F00485434D00242878434F400000F0DF
:10064C00FE000DF0C7FC85E16E2C00F09D8100F2E0
:10065C00D18106200DF0BEFC00200DF0C7FC3B4BF9
:10066C00C6E17C2C00F057841BD8742C3CD00AD8E3
:10067C00722C00F0BE82732C40F0E08408200DF048
:10068C00A9FC0124EAE2772C00F09582782C00F08A
:10069C00FD80752C40F0D2842F200DF09BFC2C4C4F
:1006AC00E9E1A02C00F0EE8209D87E2C00F05784F2
:1006BC00C0F04684962C40F0C1840C2089E0F12CCB
:1006CC0000F01681FE2C00F0D082F02C40F0B684A5
:1006DC00174C04200DF07EFCB4F8F2010DF07DFCFB
:1006EC00B4F8F00100F029BC00274FF0010BDFF843
:1006FC0044903FE203200DF06DFC00200DF025FC32
:10070C0020460DF022FC102000F037BC342A0020CB
:10071C00E8080020182A002089960108642000208F
:10072C00EFBEADDE0400FA0500ED00E0C196010855
:10073C00B01A00201876010868200020CB9601081A
:10074C00B40000205C200020B4220020A87A01080C
:10075C00177601082C230020285D01340DF0F5FBE1
:10076C00042CF9D100F020BC20460DF033FC022003
:10077C000DF0EBFB06200DF0E8FB0220FDE306205C
:10078C000DF028FCC04D0024285D01340DF0DDFB7C
:10079C00042CF9D10020D0E31A200DF01BFCBB4D2A
:1007AC000024285D01340DF0D0FB0B2CF9D1B84D91
:1007BC000024285D01340DF0C8FB082CF9D1B54D8F
:1007CC000024285D01340DF0C0FB072CF9D1EBE3BC
:1007DC000B200DF0FFFBB04B18880DF0FEFBAF4B60
:1007EC00188880B20DF0F9FBAD4B1B68C3F3C00049
:1007FC00C3F38002800040EA4200C3F3400210437E
:10080C00C3F3401240EAC20003F0100318430DF08A
:10081C00E4FB0DF0C7FA0DF0E9FBA24B93F854047E
:10082C00ABE312200DF0D6FB9F4BA04F1B8800248E
:10083C00B3F5806F94BF0125082557F824000134C7
:10084C0090FBF5F080B20DF0C8FB032CF5D1984C61
:10085C0020880DF0C2FBA0880DF0BFFB2089954CC1
:10086C000DF0BBFB20880DF0B8FBA0880DF0B5FB9C
:10087C00208962E310200DF0ADFB8F4D0024285D24
:10088C0001340DF062FB102CF9D18DE3854C7020F6
:10089C000DF0A0FB25464FF000080E27B4F85601CA
:1008AC000DF09BFBB4F858010DF097FBB4F85A010E
:1008BC000DF093FB94F85C010DF047FB94F85D018F
:1008CC000DF043FB94F85E010DF03FFB94F85F01D3
:1008DC000DF03BFB07FB085308F10108D3F860014E
:1008EC000DF084FBB8F1080F04F10E04D6D15BE3D4
:1008FC0070200DF06FFB6B4C04F1700594F8E60062
:10090C000DF023FB94F8E7000DF01FFB94F8E800C2
:10091C000DF01BFB94F8E9000DF017FB94F8EA00BE
:10092C000DF013FB94F8EB000DF00FFB073494F86B
:10093C00E5000DF00AFBAC42E0D135E310200DF0E0
:10094C0049FB5E4D0024285D01340DF0FEFA102C9D
:10095C00F9D129E32B789C4280F0268337F81400D8
:10096C000DF03BFB0134F5E7554C06200DF032FB46
:10097C0020880DF032FB60880DF02FFBB4F90430A9
:10098C000A2093FBF0F01FE007200DF023FB4D4BEA
:10099C001888FF28A8BFFF20C0B20DF0D6FA4A4B2A
:1009AC00186880F3100080B20DF017FB474B1888C5
:1009BC000DF013FB3B4B93F81F22454B18682AB1E3
:1009CC000A23584380F3100080B2B6E200F30F0004
:1009DC00FAE7344C02200DF0FDFA94F88B020DF07E
:1009EC00B4FA94F88A02C8E202200DF0F3FA394BFB
:1009FC001888A2E2384D0B200DF0ECFA2B6800277A
:100A0C0018780DF0A2FA2B6858780DF09EFA2B6826
:100A1C00314C3B44187901370DF097FA032FF6D17E
:100A2C002368D8790DF091FA236898780DF08DFA37
:100A3C002368D8780DF089FA236858890DF0CDFA1F
:100A4C002368187A99E21E200DF0C4FA234D002475
:100A5C002B68234458780DF078FA2B682344D87A05
:100A6C000DF073FA2B682344587D01340DF06DFAA8
:100A7C000A2CEDD198E214F8010F002800F09482B2
:100A8C000DF063FAF7E700BFC6960108CB96010894
:100A9C00D7960108E09601088C220020A4220020A1
:100AAC0094220020B01A00200C000020240D0020FD
:100ABC00DC230020D42A002008090020A4240020D4
:100ACC00D4230020480F00203C0D0020BE0D002038
:100ADC00380D002058230020C00A00205C23002081
:100AEC0001200DF077FAD04B1B68187845E294F88A
:100AFC005534043408FB037393F838000DF025FAD1
:100B0C0094F852040DF021FA94F853040DF01DFAE8
:100B1C0094F854040DF019FAA542E8D144E25A2095
:100B2C000DF058FAC14C04F15A0594F8AA040DF0D2
:100B3C000CFA94F8A5040DF008FA94F8A6040DF03C
:100B4C0004FA94F8A7040DF000FA94F8A8040DF038
:100B5C00FCF9063494F8A3040DF0F7F9AC42E4D197
:100B6C0022E2BBF1000F00F01F82F8B20DF032FA56
:100B7C004FF0000B0024AE4B1B789C42F1DAAD4BCE
:100B8C000022E15C0C2000FB02F3AB4D5D5D8D425D
:100B9C0003D001321F2AF6D10BE04B44D3F834A01A
:100BAC00504611F0A3FB8046BBF1000F00F01E82F3
:100BBC0047440134DFE79E4DDFF8788228780DF04A
:100BCC0009FA9E4F00242B789C4280F0ED8114F89A
:100BDC00081000220C2000FB02F3DFF85CE213F893
:100BEC000EE08E4500F00D8201321F2AF3D1013444
:100BFC00E9E78E4C16200DF0EDF9B4F844020DF037
:100C0C00ECF9B4F8D0000DF0E8F9B4F8D2000DF01E
:100C1C00E4F9B4F8D4000DF0E0F9B4F89C020DF04E
:100C2C00DCF900200DF091F900200DF08EF9002078
:100C3C000DF08BF994F81F020DF087F994F840022F
:100C4C000DF083F900200DF080F9B4F9EE310A2093
:100C5C0093FBF0F080B20DF0C0F93AE0E0B2013451
:100C6C000DF073F9092CF9D19EE108200DF0B2F9C1
:100C7C00734D002435F8140001340DF0AEF9042C3A
:100C8C00F8D191E10C200DF0A5F96E4B18680DF020
:100C9C00ADF96D4B18680DF0A9F96C4B186837E17C
:100CAC0004200DF097F9614B986831E15F4C0620F8
:100CBC000DF090F9B4F8CC010DF08FF9B4F8D00127
:100CCC000DF08BF9B4F8D40137E104200DF082F962
:100CDC00564C94F812020DF038F994F816020DF0F7
:100CEC0034F994F815020DF030F994F8170244E138
:100CFC0001200DF06FF94D4B58793EE14B4C08201B
:100D0C000DF068F994F89A020DF01FF994F89B0213
:100D1C000DF01BF9B4F89C020DF05FF994F89E02EB
:100D2C000DF013F9B4F8A0020DF057F994F8A202E3
:100D3C0023E1474C474D2078002700EB4000C0B220
:100D4C000DF048F9237802359F4280F02D8115F87B
:100D5C00020C0DF0FAF815F8010C013700EB8000CD
:100D6C0000EB800000F2EE2080B20DF036F9E9E7DE
:100D7C0001200DF02FF92D4B93F84002FDE00820D7
:100D8C000DF028F9294D0024631993F8340201342D
:100D9C000DF0DBF8082CF7D106E1244C10200DF0F7
:100DAC0019F960790DF0D1F8A0680DF01FF994F8DD
:100DBC003C020DF0CAF8B4F8CC010DF00EF9B4F801
:100DCC00D0010DF00AF9B4F8D4010DF006F9B4F81D
:100DDC001A020DF002F9B4F81C02AEE0D957914298
:100DEC0000F015810C33302BF8D10834A54200F0FB
:100DFC00DB8094F8A602002342B2EFE740200DF00E
:100E0C00E9F80A4C04F14005B4F85C030DF0E5F880
:100E1C0094F85E030DF099F8043494F85B030DF02C
:100E2C0094F8AC42F0D1BFE05C230020B01A002053
:100E3C002D2300202E230020487601081876010867
:100E4C00180F0020E8F7FF1FECF7FF1FF0F7FF1F4C
:100E5C005C200020041D0020E0200DF0BBF8D44CD9
:100E6C0004F18005B4F8DE02043400F03F000DF00C
:100E7C00B4F8B4F8DA02C0F386100DF0AEF894F8BA
:100E8C00D80200090DF061F894F8D80200F00F00B8
:100E9C000DF05BF894F8D9020DF057F8AC42E1D1A3
:100EAC0082E00D200DF096F809F0A4FBC14C40F047
:100EBC000200C0B20DF049F820880DF097F8E068F8
:100ECC000DF094F809F09CFE22E0BC426CDA285D2F
:100EDC000DF03BF80134F8E70B200DF07BF8002007
:100EEC000DF033F800200DF030F800200DF02DF847
:100EFC000AE001200DF06EF800203EE0285D013480
:100F0C000DF023F80B2CF9D100200DF06FF8002018
:100F1C000DF06CF848E0A64C08200DF05BF8B4F826
:100F2C00D8000DF05AF8B4F8DA000DF056F8B4F811
:100F3C00DC000DF052F8B4F8DE000DF04EF833E0A2
:100F4C009B4C03200DF046F894F822020CF0FDFFA8
:100F5C0094F823020CF0F9FF94F824020DE0944C61
:100F6C0003200DF037F894F8C8010CF0EEFF94F85C
:100F7C00C9010CF0EAFF94F8CA010CF0E6FF13E08B
:100F8C00C0F06C83D02C00F07483D22C41F03680EE
:100F9C00894B1B7803F0040303F0FF04002B00F0D3
:100FAC00748300200DF016F80CF0E0FF336800227B
:100FBC0083F84820814B18680DF002FB804B93F8A6
:100FCC0031305BB17F4B019A985805F0E1FF0DF081
:100FDC0057FC0EF0D5F97C4A7C4BDA60019B4C3304
:100FEC00982B019301F07480FFF73AB95546CAEB80
:100FFC0005024245BFF6DDAD15F8010B0CF0A5FF5F
:10100C00F5E73B4493F838000CF09FFFEFE50CF04C
:10101C009CFFB4F8A8020CF0E0FF94F8AA020CF0C4
:10102C0094FF94F8AB020CF090FF94F8AD020CF026
:10103C008CFF94F8AC020CF088FFD6E64E2C26D12F
:10104C000CF064FF1128054602D90BF0D9F9A8E77A
:10105C000CF05CFF564C05F5947504EB45031871C8
:10106C000CF060FF40F2ED23984205DD40F6CA0318
:10107C009842A8BF184601E040F2EE20A0F2EE2004
:10108C00192390FBF3F004EB4504607189E700F23F
:10109C00DA81352C23D10CF039FF0E280546D4D833
:1010AC000CF034FF0328D0D8414B062404FB053444
:1010BC0084F8AA040CF02AFF84F8A5040CF026FF8F
:1010CC0084F8A6040CF022FF84F8A7040CF01EFF91
:1010DC0084F8A8040CF01AFF84F8A90461E700F264
:1010EC00D8802B2C04D10CF011FF314B587158E7E0
:1010FC0048D8252C08D12E4C0023A3600CF01CFFE3
:10110C00A3681843A0604CE717D8232C40F07687CF
:10111C000CF0FCFE1328044697D80CF0F7FE2C4973
:10112C0000220C2505FB02F3CF183F7A874200F012
:10113C00C98401321F2AF5D187E7272C0DD10CF079
:10114C00F1FE1B4CC4F8CC010CF0ECFEC4F8D00141
:10115C000CF0E8FEC4F8D40123E7292C40F04E87AC
:10116C000CF0E0FE124CA4F81A020CF0DBFEA4F812
:10117C001C020CF0CBFE84F81E020CF0D3FEA4F87B
:10118C0020020EE72F2C25D1094C04F140050CF060
:10119C00C9FEA4F85C030CF0B9FE84F85E030CF0F5
:1011AC00B5FE043484F85B03A542F0D1F9E600BF28
:1011BC00B01A0020B40000202C2300205023002063
:1011CC00E8080020C01F00200400FA0500ED00E034
:1011DC004876010825D82D2C40F010870CF096FE8F
:1011EC00C64C84F83C020CF09DFEA4F848020CF0AE
:1011FC0099FEA4F844020CF095FEA4F846020CF0FB
:10120C0085FE336884F83E025B79082B7FF6C9AE05
:10121C000CF088FEA4F850020CF084FEA4F85202E4
:10122C00BFE6312C2CD10CF071FE1F2804463FF682
:10123C000CAF33685B79082B7FF407AF0CF072FEB0
:10124C00AE4BB63403EB840400F03F00E0800CF0AE
:10125C0069FEE388800100F4FE501843E0800CF036
:10126C0055FE000120710CF051FE237900F00F00A7
:10127C00184320710CF04AFE607109F017FC90E6DF
:10128C00332C40F0BB860CF041FE9C4B83F84002A3
:10129C0087E6412C0AD1994D00240CF037FE6319D6
:1012AC000134082C83F83402F7D17AE66ED8392C45
:1012BC0011D10CF02BFE914C84F812020CF026FE8E
:1012CC0084F816020CF022FE84F815020CF01EFEB7
:1012DC0084F8170265E62FD8372C40F08F865B799F
:1012EC000725B3FBF5F2C2EBC2029A1A12F0FF0FFC
:1012FC007FF4ABAEB3FBF5F5013DEDB2FF2D3FF442
:10130C0050AE0CF003FEC7B278B205F04BFF0446AA
:10131C0000283FF49AAE07700CF004FE60800CF0CD
:10132C00F5FD20710CF0F2FD60710CF0EFFDE07139
:10133C000CF0ECFDA071DFE73C2C1AD1704C256849
:10134C002F780CF0E3FD18B10228A8BF022000E0B2
:10135C000120287023686B4A1B78022B14BF6A4942
:10136C006A499F4211603FF41CAE00200CF047FE0E
:10137C0017E63E2C40F042860CF0C8FD5F4C84F81A
:10138C008B020CF0C3FD84F88A020AE6482C09D1C2
:10139C0009F094F95E4A002313705E4A13705E4A9A
:1013AC001360FEE52DD8432C23D10CF0AFFD534C2C
:1013BC000023A36060710CF0BFFDA3681843A0600C
:1013CC000CF0A4FD84F83C020CF0ACFDC4F8CC018C
:1013DC000CF0A8FDC4F8D0010CF0A4FDC4F8D401A5
:1013EC000CF0A0FDA4F81A020CF09CFDA4F81C0251
:1013FC00D7E5442C40F00286484B012283F831207B
:10140C00CFE54A2C02D10CF08DFDAFE74C2C40F00F
:10141C00F5850CF07BFD394C84F89A020CF076FDC6
:10142C0084F89B020CF07EFDA4F89C020CF06EFD7F
:10143C0084F89E020CF076FDA4F8A0020CF066FD78
:10144C0084F8A202ADE5D32C04D10CF06BFD344B27
:10145C001880A6E500F22381CD2C09D1314B1B78E5
:10146C0058073FF59EAD304B4FF4C8721A8098E583
:10147C0000F2BC80C82C29D15C796408122C3FF690
:10148C00E4AD00251EAFA54205D20CF04BFD27F8AC
:10149C0015000135F7E72246244900231EA89C427B
:1014AC0005DD30F8135021F813500133F7E71F4BCB
:1014BC000021122A03D023F812100132F9E701227D
:1014CC001B4B01E01B4B01221A706AE536D8512CDC
:1014DC0040F09485184B1B78012B3FF662AD0CF055
:1014EC0015FD064C84F801050CF010FD84F8FF0482
:1014FC000CF00CFD84F8000553E500BFB01A002079
:10150C005C2300200000002049E10008791B010841
:10151C008D1100208E11002090110020E808002071
:10152C00CC0A00202C230020860A002098210020C1
:10153C0045260020A0030020A8100020CA2C14D19E
:10154C00B14C002527680CF0E1FC2F44787027681B
:10155C000CF0DCFC2F44F87227680CF0D7FC2F44FD
:10156C0001350A2D7875EDD11BE5CC2C40F0468564
:10157C005B79092B7FF669ADA44C25680CF0C6FC91
:10158C00287025680CF0C2FC68700CF0BFFC236856
:10159C006428A8BF642018710CF0B8FC2368642878
:1015AC00A8BF642058710CF0B1FC2368FF28A8BFB9
:1015BC00FF2098710CF0AAFC2568642828BF6420D1
:1015CC00E8710CF0A3FCA87025680CF09FFCE87087
:1015DC0025680CF0A7FC336868815B790A2B7FF6D1
:1015EC00E0AC24680CF092FC2072DAE4CF2C7FF48F
:1015FC00C7AC0CF097FC6FF4AF6543199BB2844CED
:10160C00C62B98BFA4F844020CF08CFCA4F8D000B4
:10161C000CF088FCA4F8D2000CF084FCA4F8D400E4
:10162C000CF080FCA4F89C020CF070FC0CF06EFC2E
:10163C000CF06CFC0CF06AFC84F81F020CF066FCDD
:10164C0084F840020CF062FC0CF06CFC00EB8000A7
:10165C004000A4F8EE010CF059FC2DE66D4B1B7804
:10166C0059073FF59EAC6C4A137843F00403137092
:10167C0097E4684B1B785C073FF593AC09F0E0FEF0
:10168C000DF0C6FE09F04EFD8BE40CF03FFC604BF8
:10169C00012883F85404F3D983F85444F0E7DB2C85
:1016AC003FF47FAC63D8D62C09D15C4D00240CF0F0
:1016BC0039FC25F814000134082CF8D171E431D828
:1016CC00D42C40F09B845B790F2B7FF4BEAC0CF0D8
:1016DC001DFC072805463FF6B8AC0CF023FC4C4B20
:1016EC000E2404FB0534A4F856010CF01BFCA4F8E2
:1016FC0058010CF017FCA4F85A010CF007FC84F804
:10170C005C010CF003FC84F85D010CF0FFFB84F829
:10171C005E010CF0FBFB84F85F010CF00DFCC4F8CF
:10172C0060013EE4D92C11D10CF0FCFB384CA4F830
:10173C00D8000CF0F7FBA4F8DA000CF0F3FBA4F8DB
:10174C00DC000CF0EFFBA4F8DE002AE4DA2C40F00D
:10175C0055840CF0DBFB2E4C84F822020CF0D6FBEB
:10176C0084F823020CF0D2FB84F8240219E4F22C46
:10177C0029D10CF0CBFB0F2804463FF666AC0CF0DD
:10178C00C5FB234BC4EBC4041C4484F8E6000CF0EA
:10179C00BDFB84F8E7000CF0B9FB84F8E8000CF012
:1017AC00B5FB84F8E9000CF0B1FB84F8EA000CF00E
:1017BC00ADFB84F8EB000CF0A9FB84F8EC000DF009
:1017CC009FF8FFF7EEBB2BD8DC2C0ED10CF09EFB58
:1017DC000F4C84F8C8010CF099FB84F8C9010CF08B
:1017EC0095FB84F8CA01FFF7DCBBEF2C40F00684B4
:1017FC000CF098FB064CA4F8F2010CF093FBA4F847
:10180C00F001FFF7CEBB00BF5C230020C00A002014
:10181C00B01A00202C230020C00D00201C2A002010
:10182C00F52C40F04681CE4DDFF83CA32F46D34635
:10183C0001200CF0CFFB0024CA4BC0222146CA4821
:10184C001C7085F8324015F060FD8DF81F409DF836
:10185C001F3095F836209A4252D99DF81F3007EB6D
:10186C00C30393F83930DB0743D59DF81F3007EBE2
:10187C00C30393F83820BD4B33F91230002B38DDFD
:10188C009DF81F3097F8329007EBC303DB6B4FEAE0
:10189C00091858689DF81F300AEB080207EBC303C0
:1018AC00DB6B4AF8080019890124D180002204FA64
:1018BC0002F30B4003D10132102AF8D100E0134699
:1018CC000BEB0804A3800223E37248232181A3724B
:1018DC00A36808F10801E3601023A373594408F0CE
:1018EC0045FC5BF80830E28809F101091A6185F8BA
:1018FC0032909DF81F300133DBB28DF81F30A6E714
:10190C00974B9B4C93F832000CF01FFB0CF02EFB0A
:10191C00984BDFF86C8218680CF052FE336818682C
:10192C0005F036FB934B1A6833682360924B1A60B0
:10193C0005F082FD04944FF00007904B00241F70BB
:10194C005F7005F009FB2F28F7D1D8F80030B8F8F4
:10195C000420ADF824405A6105F0FEFA029005F01F
:10196C00FBFA8DF82D0005F0F7FA8DF82E0005F036
:10197C00F3FA8246824FA1461EAC05F0EDFA04F84C
:10198C00090009F101095FFA89F39A45F5D105F0CF
:10199C00CFFA8DF8210005F0CBFA3B68BA888DF8A8
:1019AC0020001A61754BBDF820201B889A4200F06C
:1019BC00AC80002409AF4FF0010A4FF0030B0CE090
:1019CC009DF8783095F832209A4200F22981002453
:1019DC0009AF4FF0010A4FF0080BDFF8C491002358
:1019EC00B8F8042089F8003089F80130D8F80030B4
:1019FC005A61049B1B6818680CF0AFFE2E2005F092
:101A0C0079FA029805F076FA9DF82D0005F072FA35
:101A1C009DF82E0005F06EFA504605F06BFA0AF1AF
:101A2C00FF33DBB20133DFF858A13B4417F8010B4D
:101A3C00029305F05FFA029BBB42F7D14E4F58461A
:101A4C0005F058FA99F8011038680CF0C5FD99F8B2
:101A5C00001038680CF0C0FD049B1B6818680CF073
:101A6C0077FE38680CF0ACFDDAF80030BAF80420D8
:101A7C001A61002C3FF45FAFDFF8E4903A4F4FF05F
:101A8C00180A95F83240002C3FF41CAD013CE4B22E
:101A9C0089F83240240107EB0408414688F80EA06F
:101AAC000C31385908F062FB3B59B8F806205A61E2
:101ABC00E7E7FA2C40F0A282324B1B785A077FF5ED
:101ACC00DFAD9BE2304A314D134493F8303004F5CE
:101ADC008A7405EB840463710CF018FAA0710CF095
:101AEC0015FAE0710CF012FA294BD0351A68294B13
:101AFC0020721D60284B00201A600AF051FB274B06
:101B0C0080F001001870FFF74CBA029B0C94303B2C
:101B1C0000220F2B00F2AF8101A151F823F000BF7E
:101B2C00B11B0008FD1B0008771E0008051C0008EF
:101B3C00911E0008CD190008831E00085D1C0008CA
:101B4C00AF1C0008131D0008571D0008CD1D000810
:101B5C00831E00088B1D0008031E00081B1C0008B8
:101B6C00E8080020A0030020580F0020A424002027
:101B7C002810002050230020201000202C100020C2
:101B8C00082300202C23002018760108B01A00200E
:101B9C005C230020C40A0020C80A00200600002094
:101BAC0024100020BE4F3B78002B00F0598195F893
:101BBC009830002B00F06C81022B02D9032B11D032
:101BCC0066E1FD238DF840300221002310A88DF82A
:101BDC00413005F098F8012005F084F8C12800F098
:101BEC003F8155E107F07AFB002800F0518137E185
:101BFC006A238DF8243033E190238DF824300423AC
:101C0C008DF82530002409AF4FF0020A31E19DF820
:101C1C0078305A1E022A00F21C8185F898301FE198
:101C2C00A04A9F4F1370A04B93F89830013B012BA7
:101C3C000AD800238DF840308DF841300221012361
:101C4C0010A83B7005F05FF800243C707C7008E134
:101C5C00934F9DF878303A707A7095F83220B946E7
:101C6C009A427FF6B4AE8F4ADFF854A21370032465
:101C7C000AF1140B07F032FB002800F0338101212C
:101C8C008A480AF0C1FB002800F02C81844B022109
:101C9C00184605930AF0B8FB059B002800F022813A
:101CAC0010E195F89830032B40F0E580804B12241E
:101CBC001C7004F0F1FF002004F09EFF072004F0DC
:101CCC009BFF0E2004F098FF204604F095FF142093
:101CDC0004F092FF002004F08FFFAC2004F08CFF86
:101CEC00882004F089FF132004F086FF762004F08E
:101CFC0083FF04F0B9FF6F4807F060FA002840F04A
:101D0C00AF800024C7E095F89830012B40F0B380E9
:101D1C009DF878300BA88DF824305B008DF82D30B1
:101D2C0000238DF82E3005F060F80028E9D0624BC6
:101D3C0002211B8810A8ADF8403004F0E4FF1420F9
:101D4C0004F0D0FF3028DCD18AE09DF878308DF893
:101D5C002C3095F89830002B00F04981022B02D9D9
:101D6C00032B05D043E10BA90CBF0720032013E084
:101D7C000BA807F047FB0028C3D014221AE09DF8EB
:101D8C0078308DF82C3095F89830022B02D0032B3C
:101D9C000AD02CE10BA9042005F096F8002840F09D
:101DAC0021814FF00F0B24E10BA807F02BFB00282F
:101DBC00A7D016223E4B0BA81A7007F0FDFAEDE7E0
:101DCC0095F898308DF82CA0002B49D0022B02D915
:101DDC00032B09D044E00BA805F007F8002890D09D
:101DEC0014220BA9012024E00BA807F00BFB002800
:101DFC0087D0132227E095F898308DF82CA0022B71
:101E0C000DD0032B18D0012B4FF0000409AF4FF06D
:101E1C00010A0CBF4FF0020B4FF00F0BDDE50BA8C6
:101E2C0004F0E3FF00283FF46CAF40F2DC520BA946
:101E3C00052004F09DFF61E70BA807F0E3FA0028EA
:101E4C003FF45FAF15221A4B0BA81A7007F062FA19
:101E5C0054E7002409AF4FF0010A4FF0090BBCE521
:101E6C00002409AF4FF0010A03E0144F00244FF097
:101E7C00090AA346B1E5002409AF4FF0010A4FF05F
:101E8C00020BAAE5012409AFA2464FF0000BA4E512
:101E9C0000243C707C7009AF4FF0010A9FE000BF3A
:101EAC0019100020560F0020E80800201A100020FE
:101EBC009820002099200020BC7701084F9601083B
:101ECC00BE77010849F207321B8823F008019142C2
:101EDC0000F0838049F20A3293427ED049F20B42E1
:101EEC0093427AD0BAF800209AF80230ADF8282044
:101EFC00794A8DF82A3010AB9E461068516808322A
:101F0C00AEE803005A457346F6D1DBF800009BF8A7
:101F1C000420CEF800008EF80420152110A804F03F
:101F2C00F2FE0DAA08211046059204F087FF50B965
:101F3C00013C14F0FF047FF49DAE3C707C704FF0BC
:101F4C00040A664F4BE0059A002310460AAA13F8C0
:101F5C0000E0995C8E45EBD10133032BF7D14FF2A6
:101F6C001032C37889F80230037989F8013043794B
:101F7C0089F80030594B1B8823F02001914211D075
:101F8C004FF2104293420DD04FF29032934209D04F
:101F9C004FF65002934205D003F5BA520F3292B26B
:101FAC00012A01D801230EE049F2073123F008027F
:101FBC008A4207D049F20A32934203D049F20B42CB
:101FCC009342B5D1022385F8983095F898300024C7
:101FDC00FB704FF0040A414F4BE70323F3E74FF03C
:101FEC000F0BFAE49DF82CA000241EAF41E74FF034
:101FFC00020B002409AF4FF0010AEEE40AF000FADC
:10200C00FEF7D2BF0D283ED1FEF708B9591E685C09
:10201C0020282BD101220B46FEF70EB90835F82DDE
:10202C002DD0E95902930846019110F05FF9DFF8C1
:10203C00BC90024606460199484615F0ABF905EBF3
:10204C00070A029B0028E9D11BF806201A44527893
:10205C005207E3D1224B9A4511D2701CDAF80430A6
:10206C004844984700232360FEF7ECB802B1236084
:10207C000025F5541B4BDFF874B01B68D1E71A48E8
:10208C000FF050FBEEE77F2809D1184A013B0021E5
:10209C0017482360D1540FF045FBFEF744B82F2BA3
:1020AC003EF641A8A0F12002D2B25E2A3EF63BA831
:1020BC0013B920283EF437A85A1C22600B4AD0547E
:1020CC000FF0BCF9FEF72FB87F28EBD1FEF72BB839
:1020DC005FB0BDE8F08F00BFC27701081910002077
:1020EC00F4950108AC0300206996010858110020F2
:1020FC00859601089C482DE9F04F02689B4902F532
:10210C009C4320330B609A4B8BB01D7802908B460E
:10211C0015B9984F984E15E0984909688A4240F2D3
:10212C00F880013D1D70F4E0072C96BF3B682146FA
:10213C00195D934833689847032C09D90BEB440479
:10214C00A08001350BF098FDECB28442ECD31FE07B
:10215C003A6804F1100302EB83039988DA880028AB
:10216C00ECD04FF47A73401A5843531A90FBF3F0A7
:10217C0040F6C90300F57A70984205DC40F2EE2374
:10218C009842B8BF184601E040F6CA0080B2D5E7C5
:10219C0042F201097B4B7C4F1B6803EA09093B683F
:1021AC0001937A4BB9F1000F05D09BF828201A70D7
:1021BC00774A517811701D781DB1754B1D7885F0DB
:1021CC000105744E0F238BF82930002406F1480AC0
:1021DC000BF052FD844262DA4FEA44081DB16E4B9B
:1021EC0033F8140000E02846624BA1001A68938B68
:1021FC0083426A4B02D8D28B82421BD25AF801100E
:10220C0001985A4A814202D933F8080017E0E0B22B
:10221C00049303920BF048FD032C049B0FDC039AF0
:10222C00012101FA04FE92F8291021EA0E0182F82C
:10223C00291004E0019A02F596724AF80120B9F1CE
:10224C00000F27D09BF8BC200323B2FBF3F303EB66
:10225C004303D31ADBB208EB04010B440BEB43032F
:10226C0058859BF8BD302BB9022A12D93F4B01225D
:10227C0083F8BD20338836F8020C18447388184450
:10228C00474B80B223F8080000B2032390FBF3F015
:10229C0080B2424B23F808000134063698E79BF8CD
:1022AC0029300F2B0CBF012300238BF8D6303D4B6C
:1022BC000DD13D4A1268500109D43A68D9689A6028
:1022CC00521AC82A20D9012283F821201CE0304A56
:1022DC000121517011703A689968DA605B68521A82
:1022EC009A4284BF2F4B00222C4D88BF83F82120AB
:1022FC0000240BF0C1FC844206DAE0B20BF0D4FCF3
:10230C0025F814000134F4E79BF8BC3001338BF84A
:10231C00BC301C4B1A689A4612F4805F05D0224BD5
:10232C001B68D90701D40EF0A5FA029B1C68114B4F
:10233C001D68287B00283BD0184AAB7B013832F84B
:10234C0010001BB1C0F53B60083080B200B2A0F5A4
:10235C007A70B0F57A7FA8BF4FF47A7020EAE070FB
:10236C0010F0A0FC11495BE0C42A00208409002075
:10237C00DC220020AC22002054010020D8220020B6
:10238C005C200020B02200203C1A00204C110020C0
:10239C0004000020B009002088090020B42200208D
:1023AC00420A0020E02200202823002000007A446A
:1023BC00DAF800301A043CD5DBF8D830A94AE31A15
:1023CC00002B36DB04F59C432033C2F8D830A64BE7
:1023DC005979A64B33F811108BB2697B93FBF1F151
:1023EC0092F8DC30013303F00F0382F8DC30134435
:1023FC0083F8DD100346DD32815C01300B4410287C
:10240C009BB2F9D11BB293FBF0F000B2002803DBB6
:10241C006428A8BF642000E0002010F043FC94491D
:10242C0010F048FD934910F091FC10F07BFE924B9C
:10243C001880DAF80030DFF8649213F4807F00F033
:10244C00F3808E4BDFF838829C4205D998F8022035
:10245C0012B9012288F8022098F80220002A00F014
:10246C00E380874A874992F82140086899F8002050
:10247C0000F0806302F00406012CF6B20293039183
:10248C0005D012F0080F0CBF0023022300E000233C
:10249C007D4D7E4F019398F82020052A00F2BF80D5
:1024AC00DFE802F00346597888A8A6B3BBF8EE1013
:1024BC00DBF8F00004F066FF012807D139682A68C0
:1024CC00C988642000FB0122C8F81020029B53B17C
:1024DC003A6812793AB10FF047FE032288F82020AF
:1024EC004FF47A7234E0012C00F099802968D8F806
:1024FC001000634A88420AD204920FF035FE049A07
:10250C00032182F8201040F6B831D161C3E70121D4
:10251C0082F82010BFE7029B4FF4806013B10CF0DF
:10252C0017FF01E00CF004FF0022C8F8102076E041
:10253C00012C53D03A68127A012A02D00FF014FE03
:10254C00A9E70FF011FE032288F8202040F6B832DC
:10255C00C8F81C209FE7012C04BF052288F8202016
:10256C005EB1DBF8F0200323118A494A01931180F4
:10257C005180918039684988D1802A68D8F8141024
:10258C00914201D3002E47D147F23052C8F81C209B
:10259C00032224E099F8002042F0020289F800207E
:1025AC000EF068F92A68D8F81C100A44C8F81820EC
:1025BC00042214E0012C15D12A68D8F81810914285
:1025CC002DD2344B9A781AB9039B1A68D30726D4A8
:1025DC0099F8002022F0020289F80020052288F8E0
:1025EC00202058E7284AD8F81C1012680A44C8F86A
:1025FC00182014E039682A68C988642000FB01227D
:10260C004FF48060C8F81020002288F8202088F849
:10261C0003200CF08DFE3EE7012C3FF43CAF019BF8
:10262C0013B118460BF08AFF1B4CB4F8DE1004F5FE
:10263C000D7004F0A7FE05461548B4F84432B0F905
:10264C00022003F10B019142039029DB0B3B9A42D0
:10265C0026DBB0F90020914222DB9342CCBF002351
:10266C0001231EE084090020FC0E00200C0F00202A
:10267C000000C84200C07F44BE0D0020404B4C00FF
:10268C00E0220020282300203C1A0020C02A002031
:10269C00B422002004000020B01A00202C230020BB
:1026AC00002325BB884A1268160107D5874AD278C1
:1026BC008AB999F8002050070DD51BE0844B0022F5
:1026CC0084491A605A609A60834B01220D604D60F8
:1026DC008D601A7010E07E4A7E4800230021116044
:1026EC00516091600360436083607B4A03E07A4AE7
:1026FC0000231370794A137099F80030590732D5BA
:10270C00DAF80030DA062ED5754B1B78DB062AD4A6
:10271C00744B9B7883B194F88B329DB96BB1724B2F
:10272C001A68DBF8F4309B1A002B06DA0EF0A2F8CC
:10273C006E4B83F8F85016E06DB910200BF0FEFECE
:10274C0001230EE03BB1684A4FF47A71126801FB29
:10275C000323CBF8F4309BF8F83023B104F06CFE73
:10276C0000238BF8F8300022134694F88A12B4F840
:10277C004662B4F8487203989B0830F91200013293
:10278C00B042C4BF63F07F03DBB2B842B8BF43F0C2
:10279C004003042AEFD19BF8F92054489A4205D102
:1027AC0090F8FA20F92A04D8013200E0002280F8CF
:1027BC00FA208BF8F9304B4B4C4A98780593424EE3
:1027CC0020BB3368DF0709D582F8FB00F5B999F80F
:1027DC000030DB071AD50DF07DFE17E099F80030BC
:1027EC005F0713D5424B1B7883B1384BDB786BB941
:1027FC0092F8FB300133DBB2032B82F8FB3005D9A6
:10280C0011B10EF037F801E0002DFAD09BF8FA3038
:10281C00364D142B40F08080059B9B7893B195F836
:10282C00F9305F2B0ED199F8003003F0040303F05C
:10283C00FF0713B10EF01EF804E00B200BF07EFE28
:10284C0085F8FA7099F8003003F0040303F0FF01E7
:10285C00002B61D19BF8F930244A572B0DD1254B15
:10286C0019684FF47A73B3FBF1F3C3EB431103EB29
:10287C008103DB00A2F8FC304EE0DAF800004507DB
:10288C0017D55A2B15D192F8FE302BB1012382F8B3
:10289C00FE1082F8FF303FE092F8003183F0010324
:1028AC0082F800310BB10C2000E00D200BF046FE3D
:1028BC0032E05D2B00F0FC845B2B00F0FB845E2B84
:1028CC001AD1032000F0F7BC28230020E0220020BE
:1028DC00A82A0020C023002036240020F02300204A
:1028EC00C00D0020040000203C1A002084090020A8
:1028FC004C11002058230020562B01D10CF042FE25
:10290C00059B9B78002B00F0DC849BF8F9306F2B37
:10291C0040F0D7840DF0DEFDDAF80030580738D5DA
:10292C009BF80031B44A9BB199F8003059070FD588
:10293C00039BB3F90610B4F84632994208DD3368AC
:10294C0013F0010302BF3221A2F8041182F8003106
:10295C003368DA030DD59BF80621A74B2AB993F8F7
:10296C00FE2012B93222A3F8042101238BF8063180
:10297C000FE09BF8FE30A04A5BB199F8003003F0F1
:10298C00040303F0FF0123B9012382F8FE1082F83F
:10299C00FF309A4D0023336005F150074FF00108CA
:1029AC002A786B789A420CD2294615F8010C04F05F
:1029BC00B1FC30B115F8023C08FA03F2336813434A
:1029CC0033600435BD42EBD18D4B1E783EB18D4D3D
:1029DC008D4E2B6813F0020F40F0E981E0E18B4D36
:1029EC00854F05F15A082A786B789A4224D22946E9
:1029FC0015F8010C04F08EFCF0B1AB78844A013B65
:102A0C0003EB4303297913440C2202FB01B0D0F8E9
:102A1C000C2195F803E093420ED0C0F80C31012341
:102A2C0003FA01F197F8383180F808E123EA010143
:102A3C00C0F8106187F838110635A845D3D1754B0D
:102A4C00DBF83C511B680493734B1B780693734B58
:102A5C00019300230293714BA3F58676019B1A68B0
:102A6C00002A00F0928192F80080B8F1000F00F07B
:102A7C008C815B680499CB1A002B0DDB01F5FA7382
:102A8C0001994B600299012303FA01F19BF838314B
:102A9C0023EA01038BF83831069B002B00F075817B
:102AAC00019B517813F8043C0433DBB2002940F04D
:102ABC003481039931F91310594BB3F8443203F1B3
:102ACC00C800814201DD977815E0C83B994202DAD3
:102ADC0091784F420FE0029A012303FA02F29BF81D
:102AEC00383123EA02038BF83831049B019A03F541
:102AFC00FA73536049E1029B9BF838211A41D307C2
:102B0C0000F14381002FCCBF0220012004F07AFC9D
:102B1C0008F1FF32132A00F22F81DFE812F01400C3
:102B2C00260038004C0065008300A000BC00D800D3
:102B3C00E400F2002D014C005B008300A000BC00FF
:102B4C009400B000CC0095F800802846B844B8F149
:102B5C00FA0FA8BF4FF0FA0828EAE87885F8008049
:102B6C0004F0BEFB41460120C8E095F801802846E0
:102B7C00B844B8F1640FA8BF4FF0640828EAE878AD
:102B8C0085F8018004F0ACFB41460220B6E095F8D4
:102B9C0003802846B844B8F1640FA8BF4FF064080E
:102BAC0028EAE87885F80380D6F8401104F040FB59
:102BBC0041460320A2E069790D2039446429A8BF5D
:102BCC00642121EAE171697104F0FCFBB8F10D0F8D
:102BDC0000F0D28029790E2039446429A8BF6421E1
:102BEC0021EAE171297189E0A9790520394481F341
:102BFC000801A97182E000BF84090020071F002092
:102C0C008C1100202823002094220020561F002025
:102C1C00D77701083C1A00204C110020900A0020A4
:102C2C00B01A0020D6F844210F2091783944C829D5
:102C3C00A8BFC82121EAE171917004F0C3FBB8F17F
:102C4C000F0F00F09980D6F84421122051783944A6
:102C5C00C829A8BFC82121EAE17151704EE0D6F80D
:102C6C0044211020117B3944C829A8BFC82121EA6E
:102C7C00E171117304F0A6FBB8F1100F7CD0D6F8FB
:102C8C0044211320D17A3944C829A8BFC82121EA8C
:102C9C00E171D17232E0D6F844211120917D394492
:102CAC00C829A8BFC82121EAE171917504F08AFBFB
:102CBC00B8F1110F60D0D6F844211420517D39445D
:102CCC00C829A8BFC82121EAE171517516E0D6F8D0
:102CDC0044210920D1783944C829A8BFC82121EA48
:102CEC00E171D1700AE0D6F844210A20517B3944B5
:102CFC00C829A8BFC82121EAE171517304F062FB15
:102D0C003AE0D6F844210B20D17D3944C829A8BF1C
:102D1C00C82121EAE171D175F0E701292CD1039981
:102D2C0031F91300B0F5617F05DB40F633038342C4
:102D3C00A8BF034601E04FF46173B8F10C0F1BD12F
:102D4C0090784FF4966292FBF0F0A3F5617393FBCD
:102D5C00F0F3B34ADBB212789A420DD018460793BF
:102D6C000CF038FB079B4046194604F02BFB079BE5
:102D7C00581CC0B204F046FB029A012303FA02F27B
:102D8C009BF8383113438BF83831029B0133029393
:102D9C00019B0C330193029B042B7FF45FAE16E670
:102DAC00DAF80030DF050FD59E4BDB7863B1336862
:102DBC00980709D59C4B1B8813F0010709D10120FA
:102DCC000CF0C6FA3B4605E001200CF0B1FA0123E9
:102DDC0000E000232A6851070BD553B101200CF0F9
:102DEC00A7FA914B1B889A0706D402200CF0B0FA74
:102DFC0002E002200CF09CFA336813F00A0F2ED07C
:102E0C002B68DB060FD5884B1B885F070ED404207C
:102E1C000CF09EFA854B0A22B3F9043093FBF2F3C3
:102E2C00ABF8483102E004200CF082FA2B689E06C5
:102E3C0007D57D4B1B88580606D440200CF088FA29
:102E4C0002E040200CF074FA2B68590607D5774B3A
:102E5C000A22B3F9043093FBF2F3ABF84A312B6836
:102E6C004FF480701A0502D50CF072FA01E00CF0E8
:102E7C005FFA6F4B5A791E46082A01D00E2A02D1EE
:102E8C0040200CF055FADAF800305B0519D596F8AD
:102E9C00C83223B999F8003013F0040F02E02B6804
:102EAC0013F4002F09D0634B00221A703C2009F058
:102EBC0071FA30B10BF00AF8F8E707F0B5FC09F03D
:102ECC0087F901238BF84C31039BB3F90620DBF80F
:102EDC003C3159898A420CDBDE79B2F5FA6FBFBFFF
:102EEC00531A7343C1F5FA6693FBF6F6C6F1640305
:102EFC0000E06423019394F9D831B4F844525B4256
:102F0C009BB294F822B294F82382DFF830E1039359
:102F1C000020642740F2E634474B4FEA400933F96E
:102F2C00103002935B1B03F2F311A14203D8002B68
:102F3C00B8BF5B4201E04FF4FA7302283F4C20D03B
:102F4C00BBF1000F04D09B45B4BFCBEB03030023B4
:102F5C0093FBF7F13A4E01F1010A36F811C036F93C
:102F6C001AA00FFA8CF6C6EB0A0A6FF0630606FB82
:102F7C00013303FB0AFA9AFBF7FAE2442EF809A094
:102F8C0021E0B8F1000F04D04345CCBFC8EB0303DC
:102F9C00002393FBF7F12B4E06EB410C06EB410A99
:102FAC006FF0630606FB0133BCF94EC1BAF950A1B0
:102FBC000399CCEB0A0A03FB0AF393FBF7F3634484
:102FCC004B43AEF80430204B9DF804101954029B6F
:102FDC000130AB42BEBF3EF809305B422EF80930DF
:102FEC00032897D1194B124E1F6817F480570DD038
:102FFC00B2F57A7F05DBB2F5FA6FA8BF4FF4FA622F
:10300C0001E04FF47A72A2F57A722AE0B6F8461211
:10301C008A421DDBB2F5FA6FA8BF4FF4FA6218E0D2
:10302C00A6220020E022002024230020D42300200C
:10303C00B01A002061200020B4220020CC230020F4
:10304C009A10002084090020E8230020B0220020E0
:10305C000A46521A4FF47A735A43C1F5FA61B2FB1D
:10306C00F1F24FF0640C92FBFCF0A84B00F1010E56
:10307C0033F8101033F91EE00BB2C3EB0E0E6FF0E9
:10308C00630303FB002202FB0EF292FBFCF3A04A4B
:10309C000B449BB2D380B7B19E4A1268970012D5ED
:1030AC009D4AD2787AB9A3F57A731BB24FF47A722F
:1030BC001B0393FBF2F3C5F5FA6212B2534305EB13
:1030CC002335934BDD80954B954D1B8803F04003C6
:1030DC009FB2002F43D0934B0A20B3F9043093FBDB
:1030EC00F0F0B5F84A31C01A00B20FF0DBFD8E4992
:1030FC000FF02CFE8D4980460FF020FD0CF0ABF844
:10310C00824640460CF0A7F88046B4F902000FF056
:10311C00C9FD8146B4F900000FF0C4FD5146834649
:10312C000FF014FE4946019040460FF00FFE019B34
:10313C00014618460FF000FD0FF0CEFF51462080DF
:10314C0048460FF003FE5946814640460FF0FEFDFF
:10315C00014648460FF0F2FC0FF0BEFF608096F877
:10316C004B0200285AD0002F58D195F85C316C4E88
:10317C00834213D086F85C010FF094FD6A490FF07E
:10318C00E5FD6A4907460FF0D9FC0CF064F8684B72
:10319C00586038460CF05FF8C6F86001B4F90000CE
:1031AC000FF080FD059B0746B4F90400D3F804909A
:1031BC000FF078FD4946824638460FF0C7FDD5F82A
:1031CC0060810646414650460FF0C0FD0146304630
:1031DC000FF0B2FC0FF080FF564EB0F5FA7FA8BF8F
:1031EC004FF4FA70B042B8BF304651462080484682
:1031FC000FF0ACFD4146814638460FF0A7FD014665
:10320C0048460FF09BFC0FF067FFB0F5FA7FA8BFA4
:10321C004FF4FA70B042B8BF3046A080464A1378DB
:10322C00114613F0040F04D0444B1A689B88536169
:10323C0035E0384A1268D60702D595F8642112B1E8
:10324C0043F001030B703E4BB5F802211B781C07B1
:10325C005EBF0B7823F001030B703A4B1AB13A4A5C
:10326C001268900706D4B5F8FC201AB937480088C4
:10327C00642806D902221A700B7823F001030B7014
:10328C0004E00978C90758BF02221A700BF0DAF96A
:10329C002F4B1B68C01A002801DB0AF05BFDD5F828
:1032AC007031002B74D02B480BB0BDE8F04F184791
:1032BC00012000E002200138C0B20CF051F9FFF7F8
:1032CC002BBB9BF8F930972B06D1154B4FF4C872DA
:1032DC00A3F80221FFF720BBA72B06D1184A1378BD
:1032EC0043F004031370FFF717BB0022BB2B0992AA
:1032FC0001D1022303E0B72B04D14FF6FE73ADF8D6
:10330C00263030E0BE2B27D102232AE08210002089
:10331C00CC23002028230020E0220020242300209E
:10332C0084090020D423002035FA8E3CDB0FC93FE2
:10333C00040000200CFEFFFF2C230020082300209B
:10334C00C00D002004230020942200208E22002097
:10335C0020230020300D0020BD2B7FF4DDAA4FF67A
:10336C00FE73ADF82430B4F8F021BDF824301344CA
:10337C00A4F8F031B4F8F221BDF826301344A4F8C7
:10338C00F2310CF0FFF800238BF8FA30FFF7C4BAD7
:10339C000BB0BDE8F08F00BF2DE9F04F9D4C9FB0F6
:1033AC0023689D4D9E6A0BF04DF96368C01A288006
:1033BC000BF048F9994B60601A780793012A05D1F4
:1033CC00974B2A881A80974A12885A80DFF85C82B9
:1033DC00954DD8F80C30954F4BB117A898479DF8E0
:1033EC005C3023B1237A002B00F0CF8409E00BF082
:1033FC0029F963682A68F31A184450329042E8D3CA
:10340C00F0E70CF055FF08B90CF068FF884D95F803
:10341C004A321BB9874B1B88002B51D0864A6689D0
:10342C0012688649B6FBF2F60978721C92B2794B97
:10343C00A28129B3DFF810B2B3F90EA012B20023A7
:10344C00DFF8D0E13BF813800EF1100939F91300C5
:10345C000EF1180C0AFB00F090FBF2F03CF8131084
:10346C002CF81380C1EB0801014429F81310013327
:10347C00042BE5D1714B00221A70AEF80E6002E0FD
:10348C00DA89013ADA81B4F90E00624A00284FF069
:10349C00000314DDDFF8B0E1B2F90C6018326849B2
:1034AC0032F813C031F91310414391FBF6F1C1EB23
:1034BC000C012EF813100133042BF0D100E0D38152
:1034CC00604B1B6818073AD55F48604A868806F13E
:1034DC000E039BB21C2B5E4BB3F904302BD8554911
:1034EC000988490727D50A2193FBF1F11288891A1B
:1034FC0089B28AB213B2B333BCBF01F5B4718AB2CC
:10350C0013B2B32B534BC8BFA2F5B4721B78C8BF10
:10351C0092B21B0713D595F9D8114F4B49424A4328
:10352C001B6812B25B7A5A436FF01D0392FBF3F3E4
:10353C003344838003E00A2193FBF1F31380474B60
:10354C003B4E1B78ABB1464BB3F90620B6F846326E
:10355C009A420EDC7379012B01D0192B02D196F80B
:10356C00922232B90E2B04D0082B1EBF364B0022F0
:10357C009A8096F81082B8F1000F2FD02D4B1B8833
:10358C0099072BD0374B3849D3F8209048460FF089
:10359C0085FDF0B9484612F0B5FB216A0FF0D6FB59
:1035AC0012F036FBB0F5617FA8BF4FF461700FF0DD
:1035BC0079FB2E490FF07EFC0BF04DFE8146404608
:1035CC000FF070FB49460FF0C1FB12F021FB80B2EB
:1035DC0000E000201C4AD3881844D080244B187873
:1035EC00002840F0D083234B1A68994612F4002F20
:1035FC0000F0C983204A13789046033B052B4ED824
:10360C0096F80135D3B3012B3CD107F0F5FBC0F193
:10361C007F0037E0000B00208C220020160F0020CA
:10362C00180F00208E22002058230020EC0A0020C6
:10363C00B01A002024230020EC230020D00A002004
:10364C00100B002094220020CC230020CC0A002058
:10365C00D4230020C00D00205C2300200600002095
:10366C00B4220020E82500208FC2753CEFB6B04490
:10367C008C110020B0220020A8100020606A036882
:10368C009B689847A36A94F82C201344B3F5807F69
:10369C00A8BF4FF480738342D4BFA362A06298F892
:1036AC000030023B092B00F26883DFE813F00A00BC
:1036BC00120040006603660357006800CB02EE025E
:1036CC00FA020023A3622363A64B1B6863630323E4
:1036DC0051E3A44B1A68636B6433934280F04D83BF
:1036EC00402008F09DF8002840F04783DFF87C92DA
:1036FC009D4D4026236B19F8030058B102F0ECFCE9
:10370C00AB6A013E03F1FF33AB622B6B03F1010398
:10371C002B63EFD1226B9549934B8A5C002A40F0C6
:10372C002C831A634FF0FF325A63042323E3904A2D
:10373C005021A2F10C0301932823029200934920FB
:10374C00A2F10A03163A03F00BF8002840F0158397
:10375C004FF0FF336363206307230CE305230093CF
:10376C00844B002102910191A3F10802532002F035
:10377C00F7FF002840F0018320630823FBE2402080
:10378C0008F04EF8002840F0F882236B342B00F23E
:10379C00D887DFE813F0350039003D0043004900BD
:1037AC0058005C0060006300670072007A007D00C6
:1037BC0088009700A600B500C400D300E2002301E6
:1037CC0036013A01430150015D016A017701840120
:1037DC0091019E01AB01B401C301CC01DB01E401F9
:1037EC00ED01F601FF010E0217021B021F0223025C
:1037FC002D0237023B023F02430247024B024F02AB
:10380C005D4808F087F919E25C4A5D495D4802E0C1
:10381C005D4A5E495E4808F07DF90FE296F8002596
:10382C0096F8FF145B48F6E795F854245C23534351
:10383C00EA1892F8D0230C2101FB02331D4495F8B1
:10384C00D2135548F8E1B6F8D0105448F4E1B6F864
:10385C00D2105348F0E139695248EDE1524B5348CC
:10386C001988E9E1A36BDA0403D596F812125048D3
:10387C00E2E13D4B0B221A63E0E196F8153296F823
:10388C00172296F816124B4845E1A18F4A48D3E10E
:10389C00D9F800301B0540F1D181B6F91A22B6F8DF
:1038AC001C124648B7E795F854245C235343EA1896
:1038BC0092F8D0230C2101FB02331D4495F8D3134D
:1038CC003F48B9E195F854245C235343EA1892F825
:1038DC00D0230C2101FB02331D4495F8DA1339482F
:1038EC00AAE195F854245C235343EA1892F8D023A8
:1038FC000C2101FB02331D4495F8D41332489BE193
:10390C0095F854245C235343EA1892F8D0230C21E5
:10391C0001FB02331D4495F8D5132C488CE195F826
:10392C0054245C235343EA1892F8D0230C2101FB56
:10393C0002331D4495F8D91325487DE195F854249C
:10394C005C235343EA1892F8D0230C2101FB023379
:10395C001D44B5F8DC131F486EE196F84D121E4855
:10396C006AE100BF3C1A0020000B0020147801080B
:10397C008A7801085C7A0108F3970108E09601083F
:10398C000D98010813980108D7960108CB960108E9
:10399C00389801084C9801085D980108679801084F
:1039AC0076980108859801080C000020959801086C
:1039BC009F980108AC980108C5980108D098010897
:1039CC00E3980108ED980108FA9801080499010898
:1039DC000F9901081C9901082E99010895F8542497
:1039EC005C235343EA1892F8D0230C2101FB0233D9
:1039FC001D4495F8D83395F8D72395F8D613B148CC
:103A0C0089E0B14BB148196816E196F854345C2240
:103A1C0002FB0366AE4896F89C130DE195F85434FE
:103A2C005C2202FB0355AB4895F8B13395F8A723FC
:103A3C0095F89D136FE095F854345C2202FB035506
:103A4C00A54895F8B23395F8A82395F89E1362E033
:103A5C0095F854345C2202FB0355A04895F8B33317
:103A6C0095F8A92395F89F1355E095F854345C22EA
:103A7C0002FB03559A4895F8B43395F8AA2395F8A8
:103A8C00A01348E095F854345C2202FB035595488A
:103A9C0095F8B53395F8AB2395F8A1133BE095F861
:103AAC0054345C2202FB03558F4895F8B63395F8D5
:103ABC00AC2395F8A2132EE095F854345C2202FB4B
:103ACC0003558A4895F8B73395F8AD2395F8A313A9
:103ADC0021E095F854345C2202FB0355844895F898
:103AEC00B83395F8AE2395F8A41314E096F8543433
:103AFC005C2202FB03667F4896F8A5139CE095F8C0
:103B0C0054345C2202FB03557B4895F8BA3395F884
:103B1C00B02395F8A61307F0FDFF8FE096F8543408
:103B2C005C2202FB03667548B6F8CA1384E095F86C
:103B3C0054345C2202FB03557149D5F8C0030FF0D5
:103B4C0005F90FF0C9FA01466E4875E096F8543441
:103B5C005C2202FB03666C4896F8CC136CE096F87A
:103B6C0054345C2202FB0366684896F8CD1363E07C
:103B7C0096F854345C2202FB03666548B6F8C4130D
:103B8C005AE096F854345C2202FB03666148B6F89E
:103B9C00C81351E095F854345C2202FB0355584984
:103BAC00D5F8BC030FF0D2F80FF096FA01465A483C
:103BBC0042E096F854345C2202FB0366574896F8B0
:103BCC00BB1339E096F82212554835E096F82312CB
:103BDC00544831E096F8DB1153482DE04849D6F8AB
:103BEC00E0010FF0B3F80FF077FA01464F4823E0ED
:103BFC004349D6F8F4010FF0A9F80FF06DFA01461D
:103C0C004B4819E096F8D9114A4815E096F8EC1192
:103C1C00494811E096F8EB1148480DE096F88912E6
:103C2C00474809E096F81912464805E096F84A12FA
:103C3C00454801E0B168454807F06CFF236B013340
:103C4C0023639AE0424B1B689E011BD5B4F84030AD
:103C5C00404DBBB9404BD5F8449045201E6802F04E
:103C6C003BFA0E2002F038FA484607F0C1FE304607
:103C7C0007F0BEFE4FF48053EB870A2388F8003020
:103C8C0002F0AEFA02F04EFD77E094F84830002BCB
:103C9C00F6D02F4B1B689D01F2D4092388F8003015
:103CAC00F0E72E4B1A68636BC833934204D296F834
:103CBC000155002D5ED153E007F0F8FD0028F6D138
:103CCC005BE000BF4199010858230020509901087E
:103CDC005C9901086D9901087E9901089099010879
:103CEC00A0990108B0990108C0990108D19901085F
:103CFC00E2990108F4990108E4990108FE99010878
:103D0C000000C8420D9A01081B9A0108329A01085A
:103D1C004A9A0108659A01087A9A01088A9A010858
:103D2C009F9A01089B9A0108AB9A0108B79A01085F
:103D3C00CA9A0108D89A0108E89A0108F99A010868
:103D4C00099B0108229B01083B9B01084B9B010826
:103D5C0028230020000B0020C42A00203C1A00203D
:103D6C00606A03F020F994F849306562022B01D1A6
:103D7C0008F02EFA012388F8003007F081FD10B10D
:103D8C00012388F80030002323720FAD7B6828468E
:103D9C009847002800F01681079B944ADFF868E2E8
:103DAC001E780023032E08BF52F823104FEA83001D
:103DBC0008BF2EF8131035F913100133032B8B4F5A
:103DCC001150EFD1894994F84A20084601F084FF3C
:103DDC00D4F84C8000214046854E0FF04BF978B159
:103DEC00844B1A88002A00F0E180D4F8C020824E5F
:103DFC00127806F10C0506924FF00008089366E065
:103E0C0096F850508DB97D4B1A6899466AB1543664
:103E1C007119D9F80020404624350AF064FF6C2D46
:103E2C00F6D1734B012283F8502094F85030002BBC
:103E3C00D6D0DFF8D88100254FF0240909FB058680
:103E4C0057F825000EF02EFF31460AF019FF11F03D
:103E5C00DFFE47F825000135032DEFD1C0E72A68B6
:103E6C000A90114609920EF067FE834648460EF002
:103E7C0019FF014658460FF01DF8099A11460EF02D
:103E8C005DFE0A9B01468146686018460EF054FEA2
:103E9C0059460EF05BFFA9680EF050FEC5F8009075
:103EAC00E860A860059ADFF858910023BAF1010F79
:103EBC00BB5042F80930DFF83CA133D008F10108BF
:103ECC00B8F1030F06F1040605F1140563D0089B45
:103EDC0057F82800B3F800A0484B1A684FF47A73CF
:103EEC00B3FBF2F3C3EB431203EB8203DB009BB295
:103EFC009A4502BF002333602B614FEA8803059378
:103F0C003368034433600EF0CDFE2A6902F10109D7
:103F1C00B9F1010FC5F81090A1D100236860286099
:103F2C00AB60BFE72869012807DD01380EF0BAFE47
:103F3C000146E8680EF0BEFF00E0002011F034FFEF
:103F4C00069B834693B118460EF0ACFE59460FF013
:103F5C009BF858B1294B1A684FF47A73B3FBF2F300
:103F6C00C3EB431203EB8203DB001DE0234B1A6807
:103F7C004FF47A73B3FBF2F3C3EB431203EB8203FC
:103F8C00DB0032689BB202EB530292FBF3F3059A0F
:103F9C0049F8023092E7BAF80000012801D10AF082
:103FAC00CDFABAF80030013BAAF8003014480023CF
:103FBC0057F8232050F82310521A47F823200133C6
:103FCC00032BF5D194F8183123B1094A013B82F83F
:103FDC001831C1E30B4D0021D5F8E0010FF04AF880
:103FEC00B0B995F8E831013BDBB212E0DC230020DC
:103FFC00000B0020800A0020C40B00205823002056
:10400C000C0C0020B01A0020180F0020540B0020BC
:10401C00012384F818319A4B9A49B5F8262200935B
:10402C000D6899489949443B09680068A847984B22
:10403C00984ADB780893984B1E78032E17D9974B28
:10404C00D3F81C315D88B5F5FA7F10D2944BB2F9D8
:10405C000470B3F9040069420028B8BF40420B1A3F
:10406C009F4203DB2B18BB42A8BF3B4693808D4B72
:10407C001B6893F807A0BAF1000F1CD08A49096895
:10408C00880715D589490978012911D9DB78884D1C
:10409C0059432D88CB1A9D4288B203DB8D422B46A7
:1040AC00A8BF0B4601B209031BB291FBF3F301E06D
:1040BC004FF4805304930027D4F81C313D463C4602
:1040CC000593B2F90430DFF8FC810693079BB2F933
:1040DC0000B093F80090B2F902300793754BB542DB
:1040EC004CD207980A930EF0DDFDD8F808100EF0AC
:1040FC002DFE099058460EF0D5FDD8F804100EF0A0
:10410C0025FE099A014610460EF018FD059B0990F4
:10411C0093F90000069B404258430EF0C3FDD8F8BB
:10412C000C100EF013FE099A014610460EF006FD17
:10413C000EF0D2FF11AA80B20A9BBAF1000F03D085
:10414C00049900B24843001322F8150011AA32F862
:10415C00152020B211B2814204DC38B28142B8BFC2
:10416C00174600E01446B9F1050F03D1042D98BF92
:10417C0023F81520013508F11008B0E74A4DE71B6C
:10418C002B68BFB213F4805F454A444B4A4C37D07E
:10419C004A49DFF808E10978DFF81CC149075EBF1E
:1041AC00D3F8E411098AA3F8E011D188D3F8E421FB
:1041BC000FFA81FAB2F810B0414A1068C288C2EB0B
:1041CC000B08C24504DC0288DCF80000048805E01A
:1041DC005A44924505DB226844885288AEF8E011B7
:1041EC0012E0BEF9E0219045ABBFDCF8001022686C
:1041FC0002884488ABBF0C8852881146214603E0E4
:10420C00D18822681488528892B2A4B2101B0FFA7B
:10421C0087FE00B28645DFF8B0C025DD01228CF8A0
:10422C000020020392FBFEF24FF0000CC3F8E821D1
:10423C0066450CD90DF1440E3EF91C8002FB08F8C2
:10424C004FEA28382EF81C800CF1010CF0E7022202
:10425C0090FBF2F0B9F1060F0444A4B236D19642A9
:10426C0034D8144A578031E000208CF8000002202A
:10427C009EFBF0FE7444CEEB0202A4B292B226E096
:10428C00E41C0020000000205C230020C00A002059
:10429C00E022002030240020EB230020000B002023
:1042AC00CC230020F80E0020B02200209403002024
:1042BC00480F0020180F0020602500202C23002020
:1042CC005C250020200C0020F123002022462868C9
:1042DC00B3F9E05100F4805B00F0100005950790F5
:1042EC00A74DA8482F680578A748D3F8E4A1006823
:1042FC00A64B00F000600690A54805F00405B0F947
:10430C00060009B2049012B270001B68DFF8BC8280
:10431C00EDB209904FF000090A9124B20B92099A60
:10432C0091454CD011AA39F802200A980C920D93A1
:10433C000EF0B8FC974B53F839100EF007FD0EF049
:10434C00CBFEA04221460C9A0D9B03DB0B998142BC
:10435C00A8BF01460A44089992B228F8022F12B25B
:10436C0009B1B9880FE0BBF1000F0BD0D888BAF8AF
:10437C001010091A0598884202DC3988188803E065
:10438C00598800E0398878888A4203DB90420146DC
:10439C00A8BF1146079AA8F800106AB165B1BBF125
:1043AC00000F09D1069A3AB9BAF812200499914231
:1043BC00BCBFBA88A8F8002009F10209AFE715B90B
:1043CC00754B764A06E0764991F8EC21192A00F2F1
:1043DC004C8107E0AE42F6D932F8151023F81510CF
:1043EC000135F7E7012303FA02F26E4B1340002B61
:1043FC0000F03B816C4B1B88DA0508D56B4B1A8897
:10440C00ADF85C205A889B88ADF85E2012E0684BB2
:10441C001A88ADF85C205A889B88ADF85E20ADF800
:10442C006030BBF1000F07D0BAF81020049890420E
:10443C0002DA5B42ADF860305E4C4FF47A72B4F93C
:10444C0002304FF4616003F5E163534393FBF0F3E7
:10445C00A3F5FA73ADF87430B4F9003003F5E163E9
:10446C005A4392FBF0F24C4BA2F5FA721B88ADF852
:10447C007620A3F2DC53464AADF86230D1F8E43131
:10448C0011881B8AC91AADF864105188C91AADF885
:10449C0066109188C91AADF86810D188C91AADF8A0
:1044AC006A101189C91AADF86C105189C91AADF886
:1044BC006E109189D289C91AD31AADF872300023C3
:1044CC00ADF8701019463C4A22F813100133082B32
:1044DC00FAD12D4B39491B68394D0493394BDFF810
:1044EC00D8A01B684FF0640E0593374B4FF00109B1
:1044FC001B78C3EBC303CB180793079B8B4200F0CD
:10450C009A800B7833B11533049A09FA03F31340EC
:10451C0000F08D80059B11F806CC0E2202FB0C38A6
:10452C00B8F90230B8F9002011F8010C9A1A11F9F7
:10453C00023C92B2534393FBFEF311F8057C4FEA15
:10454C00520B069011F8030CCBEB03039BB27E00CD
:10455C0028B91EA8064436F81C0C288041E01EAC75
:10456C00264436F91C6CB5F90040B44230DA2044CC
:10457C00844203DC86423446A8BF04462C8030E0DB
:10458C00602500202C230020282300205C250020FF
:10459C00B4220020200C0020A42400201C2A00207F
:1045AC00000B00203241300324230020CC230020B8
:1045BC0030240020D4230020080900206B25002083
:1045CC00EE0C00209C11002064250020A224002069
:1045DC0007DD201AB04203DB8442A8BF04462646FE
:1045EC002E80D8F80A0009FA07F73842B5F90060AE
:1045FC0011F9040C1BB200FB06F090FBFEF00CBF93
:10460C0001244FF0FF3498420ADB9DF918305343D4
:10461C0093FBFEF3CBEB03031BB28342A8BF034611
:10462C003AF81CB004FB03B32AF81C3000E02B80D2
:10463C000235073161E74A4B4A4ED3F8008000251A
:10464C004FF00E09642709FB058393F9064036F9F0
:10465C00023FE8B25C4394FBF7F434800AF078F93B
:10466C0001352044082D3080EDD13F4B3C4D1B686B
:10467C0013F0200F31D000200AF06AF93B4C0646AB
:10468C00208001200AF064F9394B60801B681B06FE
:10469C0023D5384B384AD3F810321B78012B21D153
:1046AC00D5F800E0B2F902309EF90610B2F90020FC
:1046BC00494259439EF914303227534391FBF7F189
:1046CC006FF0310293FBF2F293FBF7F389B20A44D9
:1046DC00B21A0B442280184460802B68214903F1E4
:1046EC00700418E02F68B2F9023097F9061059439C
:1046FC00322391FBF3F13144218097F91460B2F924
:10470C00001001FB06F292FBF3F21044E4E70E33C7
:10471C009C420A800CD031F9020FB3F90020B3F996
:10472C0002509042F3DB2AB28242A8BF0246EEE767
:10473C000BF0BEFD08B10BF0D1FD0E4B01221A722D
:10474C000AE007F0B3F800283FF417AB4FF480539E
:10475C00E3870A23FFF70FBB1FB0BDE8F08F00BF44
:10476C009C11002006090020B0220020080900201E
:10477C0028230020000B0020D42300202DE9F04F2B
:10478C0085B006F051F86C4B1D78002D40F0CD85AE
:10479C006A4E3368590540F1C885694C694F2378D6
:1047AC00002B00F098813A686368D31A7C2B40F296
:1047BC009281654BDFF8ACB1B3F8DE80237A62608E
:1047CC000133237205F12400DFF87491C0B206F0B6
:1047DC001BF809F10C0353F825000EF063FA82461E
:1047EC00BBF800000EF05EFA014650460EF062FB7C
:1047FC0056490EF0ABFA0EF06FFC013500B202F028
:10480C001DF9032DDED1302005F0FEFF002002F053
:10481C0015F905F0F1FF99F8085015F0030524D1AE
:10482C0041F28833D9F804209A420BD9102005F0B4
:10483C00EBFF284602F002F9212005F0E5FF28469F
:10484C0002F0FCF8142005F0DFFF414BB3F9040033
:10485C000A2390FBF3F002F0F1F81C2005F0D4FFD2
:10486C00002002F0EBF805F0C7FF237A5A0740F05E
:10487C000A81022005F0C8FF314B4FF00509B3F94E
:10488C0018000A2390FBF3F002F0D8F8314B032008
:10489C00B3F9065005F0B8FF95FBF9F52E4BADB208
:1048AC001B785B070BD541462C4802F06BFD20B9F9
:1048BC00336813F0100F18BF002528B205E0284B01
:1048CC001B68D889B0FBF9F000B202F0B7F8336876
:1048DC009D0740F1A680DFF89090DFF8908099F862
:1048EC000010B8F80020642303FB02124B00B2FB4B
:1048FC00F3F3658B06202D01ADB245EA0325ADB26D
:10490C00C3F303231D4305F07FFF28B202F096F892
:10491C00638B99F8001001339BB293FBF1F201FB0E
:10492C001233E2696383937B012B21D1392005F08B
:10493C006BFFB8F900003DE08C110020B022002084
:10494C00180D00203C1A0020B01A002000007A44F8
:10495C00D4230020CC2300202C230020E41C002096
:10496C00F80E00200C00002094030020480F0020BB
:10497C00B8F800506E236B43152593FBF5F5D37BEC
:10498C00ADB20BB195FBF1F53A204FF0640905F08F
:10499C003BFFB5FBF9F809FB18550FFA88F002F04C
:1049AC004DF83B2005F030FFA8B2451D0A2095FBC1
:1049BC00F0F000B202F042F8282005F025FF236A3F
:1049CC000A2093FBF0F000B202F038F8042005F056
:1049DC001BFFC24BDFF810831B68D8F82400DD895D
:1049EC004FF6FF739842A8BF1846ADB10028ACBF74
:1049FC00281A28460EF056F9B9490EF0A7F9804648
:104A0C0028460EF04FF9014640460EF053FA0EF0D0
:104A1C0063FB6428A8BF642020EAE07000B202F0B7
:104A2C000DF803A9AF4801F0DFFF132005F0ECFEF1
:104A3C00BDF90C0002F002F81B2005F0E5FEBDF9F3
:104A4C000E0001F0FBFF232005F0DEFE4E2001F0EE
:104A5C00F5FF03A9A34801F0C7FF122005F0D4FE0F
:104A6C00BDF90C0001F0EAFF1A2005F0CDFEBDF9EE
:104A7C000E0001F0E3FF222005F0C6FE452001F0F8
:104A8C00DDFF05F0B9FE237A282B24D1964B0022AA
:104A9C0017201A723D6805F0B7FE4EF66020B5FB84
:104AAC00F0F04FF03C08B0FBF8F308FB13000002E9
:104ABC0000B201F0C3FF182005F0A6FE4FF47A7087
:104ACC00B5FBF0F5B5FBF8F008FB105000B201F0A7
:104ADC00B5FF05F091FE94F82830834D002B00F0C3
:104AEC00B58009F0AFFDEB6A804AC31A9342804649
:104AFC003BD9002385F8323085F834307C4B1B8849
:104B0C00DAB21B0A85F84E2085F84F3085F8442020
:104B1C0085F84530EA6D3B689A1A2B6E197C4FF478
:104B2C007A734B439A420DD3724B1B68EB65724BF5
:104B3C001B78013B012B9FBF102385F832300223D9
:104B4C0085F83430226A636A0A2192FBF1F293FBF6
:104B5C00F1F384F84C2084F8503012121B1284F8B4
:104B6C004D2084F85130C4F82C8094F864A05E4D2C
:104B7C00BAF1000F0ED1E86E09F0FDFD012809D93C
:104B8C000228DFF8789100F0A48301F01FFF0123C5
:104B9C0089F80230256F544B002D57D093F86420C0
:104BAC003AB140F6B7319A6FC2EB08028A4215D877
:104BBC004CE0012283F86420DA6F1278022A05D8BF
:104BCC00D86E0221043001F0EBFE03E00221D86E16
:104BDC0009F0C8FD002384F8803035E093F8742088
:104BEC009AB91A6783F86420DA6F1278022A05D80A
:104BFC00D86E0121043001F0D3FE03E00121D86E00
:104C0C0009F0B0FD01F0E2FE1EE0013AD2B283F8E9
:104C1C00742093F8801093F8810032B94A1C01304B
:104C2C0083F8802083F881000BE02A4612F801EB10
:104C3C0001300EEB0105714683F880501A6783F83A
:104C4C008100D86E09F09AFDC4F878803B6894F81E
:104C5C0082800093244BB8F1000F00F06381D3F8ED
:104C6C008420002A00F05E8193F88820013A012A02
:104C7C0000F258819A464FF0020B01251A4AD4F8DB
:104C8C008400019209F077FD019AD8B1DAF884001A
:104C9C0009F06EFD9AF8891081467E293A680ED18A
:104CAC001B288AF888B00AD1DAF88400019209F03E
:104CBC0062FD20B9019A8AF89050CAF88C2084F8C9
:104CCC008990DBE7D2F88C103B685B1A41F65831BF
:104CDC008B4215D9032382F8883023E1F80E00208B
:104CEC000000C84280969800180D00203F0D03006C
:104CFC00480F00203C1A0020902200200C000020BD
:104D0C000546DFF8DCA294F890E094F8913000228C
:104D1C00BEF1000F00F0038139680098091A0129CF
:104D2C0006D90AB184F89130002384F89030F9E068
:104D3C003AF8130010B903464FF403600133B0F591
:104D4C00826FDBB2424600F0C38056D8B0F5007FCC
:104D5C0000F0858008D8B0F5807F00F09D80B0F51C
:104D6C00887F00F09980D3E7B0F5047F61D0B0F56F
:104D7C00806FCDD184F8913094F89830914A0133FA
:104D8C00DBB2032B88BF012382F8983042F21073F8
:104D9C0094F8981059438C4B1B78D80748BF0131B5
:104DAC009A0748BF02315807884B48BF04311B880B
:104DBC00DA0748BF0A31980748BF14311A0648BFB2
:104DCC002831D80548BF28315A0748BF6431180725
:104DDC0048BFC8319A0548BF01F5C871980648BF4D
:104DEC0001F57A71DA0648BF01F5FA61580648BF39
:104DFC0001F57A614FF480608BE0B0F5E26F60D022
:104E0C0009D8B0F5C06F38D0B0F5E06F80D184F818
:104E1C009130E16858E0B0F5046F46D0B0F5116FF1
:104E2C0069D0B0F5E46F7FF473AF84F891306169A9
:104E3C004AE084F89130336898077FF564AF614B92
:104E4C00D3F89430DA7B624B1B881AB1614A117823
:104E5C0093FBF1F30A2159434FF404702CE084F8CE
:104E6C0091303368DFF85CB119057FF54CAFDBF896
:104E7C0020100A2391FBF3F109E084F89130336898
:104E8C00DFF840B11A057FF53EAFDBF8241001F0D6
:104E9C0053FD8BF8905036E784F891304E4B1B68DD
:104EAC005B077FF530AF002133E084F891304B4B3A
:104EBC000A21B3F90430594301F03EFD84F89050B7
:104ECC0021E7216984F891302C2391FBF3F1F3E76E
:104EDC0084F89130404B1B6813F0200B7FF413AF18
:104EEC0033681A067FF50FAF594601F025FD354B97
:104EFC0083F890B007E784F8913033689B077FF50F
:104F0C0002AF334B334A19880A234B43117893FB76
:104F1C00F1F101F011FD2B4B83F89050F3E60AB13F
:104F2C0084F8913094F89930264D002B00F0AE8027
:104F3C00D5F89C30002B00F0A9803E68D5F8A03045
:104F4C00F31A632B40F2A280DFF89080412001F02D
:104F5C00DAFCB8F902000A2790FBF7F080B201F0F6
:104F6C00C9FCB8F9000090FBF7F080B201F0C2FC6C
:104F7C00B8F9040090FBF7F080B201F0BBFC01F033
:104F8C009FFC95F8A45015F001055AD10F4B1B88C6
:104F9C00D90528D4DA060DD49F060DD458060DD4A5
:104FAC0019070DD4DA071DD413F0020F14BF032513
:104FBC00012518E00D2516E0092514E0042512E062
:104FCC00082510E0180D00202C230020242300209D
:104FDC00480F00209403002094220020D4230020AA
:104FEC007C7A01080225D24B1F78D24BC7F380077D
:104FFC00DB7813B147F00207FFB2532001F083FCBA
:10500C00CD4B188800EB800000EB8000800080B254
:10501C0001F070FC002001F06DFCB4F8A600FE233A
:10502C00584340F2FF3390FBF3F0C0B201F052FC56
:10503C00002001F04FFC47EA850001F04BFC01F029
:10504C003FFC94F8A430A3B94F2001F05CFC07F0AE
:10505C008BF807F089F807F087F8012001F03AFC8B
:10506C00B64B93F8A80000F0010001F033FC01F0FE
:10507C0027FC94F8A4300A210133DBB2B3FBF1F224
:10508C0001FB1233C4F8A06084F8A430AC4D2F7827
:10509C00A846022F40F0058109F0D4FAA94B1B68F1
:1050AC00C3EB000940F6B833994507D900232B70A0
:1050BC00B4F8AA300133A4F8AA3036E1A24D2B790A
:1050CC003A2B40F00281A978284600F029FF0028ED
:1050DC0040F0FB80984B9D4E1B88C6F86C90F3619A
:1050EC00236AD4F8AC90F362636AF063F364B4F8A7
:1050FC00AA304846F36504F0F2F9DFF840A2834683
:10510C00002840F0CE803946484609F02BFB04239A
:10511C0086F874309AF8B03095F80390642B8C4F65
:10512C004CD19AF8B130072B08BF8AF8B1B094F87B
:10513C00B15006EB051BDBF80410084601910DF08D
:10514C00D5F8DBF808305FFA80FA184600930DF0BA
:10515C00CDF85FFA80FB0AEB0B020832FA7125F0EE
:10516C000F02BA7205F00F027A730BEBCA02BA7314
:10517C0001995246774812F0A2F8009B0AF10900F7
:10518C00DFF8DCA119465A46504412F098F897F80B
:10519C0007B00AF1010A5946504600F0A5FE0AF87C
:1051AC000B00484606F0C0FF0135002384F8B030F0
:1051BC0084F8B1500023DFF898915BE0664996F8CB
:1051CC0075508E462B0704BF0135EDB2072D4FF0FD
:1051DC000003DFF888C128BF0125BB722B0106EB49
:1051EC00030A9AF81020481C43EA020B624481F827
:1051FC0000B0DAF80CA092F82210012900F101029B
:10520C0007D9013902F801AC10464FEA1A2AC9B283
:10521C00F3E733445B7C01352AF0600AEDB24AEACD
:10522C00030A082D114680F800A00CD0474B4B48C0
:10523C0003EB05131B7C034493F82200CEEB020313
:10524C000344132BCADDCEEB020A0AF1060A5FFAFD
:10525C008AFADFF810B14AF04003FB715146584608
:10526C0000F042FE0BF80A00484686F8755006F02E
:10527C005BFF9FE7BA785D1CDBB29A4207D919F83D
:10528C000310D4F8AC0009F079FA2B46F2E794F845
:10529C00B0300322013386F8742084F8B03088F8DB
:1052AC0000202A4D95F87430032B3ED1D4F8AC0075
:1052BC0009F05BFA002838D0204B0121D3F8AC0060
:1052CC0009F050FA022385F87430002388F8003076
:1052DC002BE099F8023023B1C5F8688089F802A058
:1052EC0058E4AB6EC3EB0803B3F57A6FFFF452AC22
:1052FC000123E86E89F8023009F03AFA8146E86E2B
:10530C0009F036FA19F07F0F7FF444AC8E287FF445
:10531C0041AC95F86430002B7FF43CAC05F13003C4
:10532C002B672D2385F8743034E405B0BDE8F08F7D
:10533C002C230020E0220020480F0020180D002014
:10534C00370E0020700E0020640E00200C00002090
:10535C00881A0020971A0020951A00207C7A0108E0
:10536C008E1A00208F1A002010B5204A18B9136825
:10537C0002221A8210BD1E48146800230380217873
:10538C00024611F07F010DD1637A990644BF0221C8
:10539C00017013F0400F037814BF43F0010323F0A6
:1053AC00010314E0012920D002291DD1617901F0FB
:1053BC000F039B0003F1804303F5B84311F0800FFA
:1053CC001B6806D003F03003102B07D10123137098
:1053DC0004E003F44053B3F5805FF6E7054B1B681C
:1053EC001B699847024810BD184610BD141A0020BE
:1053FC00CC0D0020D020002010B5064C18B9236825
:10540C0001221A8210BD044B1B689B6898472068C8
:10541C000C3010BD141A0020D020002010B5064C02
:10542C0018B9236801221A8210BD044B1B681B6833
:10543C00984720680A3010BD141A0020D020002094
:10544C00084BDA68D10709D4DA68520708D4DB684C
:10545C0013F0100F14BF0320042070470120704775
:10546C00022070470020024003788B4283BF034B1D
:10547C0003EB410148880020704700BFCC0D002091
:10548C00024B03EB8101888C704700BFCC0D0020D0
:10549C0003788B4283BF034B03EB4101B1F84C0003
:1054AC0000207047CC0D002038B5054609F0CAF82D
:1054BC00344C636E6066C31AB3F57A7F09DD002342
:1054CC00282284F8683084F8692084F86A3084F8DB
:1054DC006B3094F868302B4A7BB93D2D07D03E2DAC
:1054EC004ED1012182F86A1002F1700104E0012111
:1054FC0082F86B1002F19801D166E16E214ACD540D
:10550C000133DBB2062B84F868301CD192F86A3078
:10551C00012B02D18B78282B07D994F86B30012BF7
:10552C0006D18B78092B03D8164A82F8693038BD1E
:10553C000023282284F8683084F8692084F86A30C3
:10554C0084F86B3038BD92F86910994218D192F8F2
:10555C006A300C4D012B04BF022382F86A3094F898
:10556C006B30012B06D1022385F86B3009F06AF8F9
:10557C00C5F8A400002384F86830282384F8693027
:10558C0038BD00BFCC0D002010B5044609F05AF808
:10559C0040F6B8310E4BD3F8A820C3F8A800821AF5
:1055AC008A4284BF002283F8AC2093F8AC200AB95D
:1055BC00202C0CD113441F2A054983F8AD4003D18C
:1055CC00012381F8CD3010BD013281F8AC2010BD23
:1055DC00CC0D002070B5054609F034F8314CD4F8E8
:1055EC00D030C4F8D000C31AB3F5FA5F82BF0023E1
:1055FC0084F8D43084F8D53094F8D4302BB9A12D5C
:10560C0002BF284A012182F8D51094F8D510254AFA
:10561C0031B1D118EDB2013381F8D65082F8D430C3
:10562C0094F8D45094F8F730AB4239D11D4B93F821
:10563C00F830052B02D0062B03D02CE0002008F00C
:10564C00C9FA94F8D7301E2B25D100210B46013D09
:10565C00CAB2AA4217DA224492F8D6201846134648
:10566C00082283EA00065B0816F0010FDBB202F198
:10567C00FF3218BF83F08C0312F0FF02C0F3470017
:10568C00EFD10131E4E7254495F8D620934202D1BD
:10569C00032008F09FFA002384F8D53084F8D43026
:1056AC0070BD00BFCC0D002008B50B4B002093F84B
:1056BC002C1007F0F1FA094B1B68187A082806D150
:1056CC00074B4FF480521A80064B10221A80A0F11F
:1056DC0009035842584108BD08010020141A002043
:1056EC00CC200020CE2000202DE9F0412F4F3C682B
:1056FC00228ACAB9257A042D16D12D4C2D4823782F
:10570C00012B0DD12C4B19682C4B89B20B445B002F
:10571C0019881A8059885A8030230380227041E0FE
:10572C001023038007253DE0A68AA369B2428CBFF3
:10573C0002250425964228BF16461FFA86F84046D5
:10574C0098471D4A06F1010E13684FEA6E0E9BB284
:10575C0003F1005303F540535B001B6800219BB21F
:10576C0003F1005303F540535B008E4505D030F830
:10577C0002CB23F821C00131F7E712680F4B92B22C
:10578C0013445B001E60238A3022C8EB0303238280
:10579C00638A9844074BA4F812801A80084B4FF484
:1057AC0040521A803B681D72BDE8F081141A00202B
:1057BC00D8200020CE200020505C00400230002079
:1057CC00CC2000200A88F0B54B888E88B1F808E010
:1057DC00CC88002A3AD1028C43F0010322F001025A
:1057EC001204120C0284058B078CADB225F0F30564
:1057FC0045EA0E1189B246EA01027B49BFB28842E2
:10580C0012D001F5006188420ED0B0F1804F0BD060
:10581C00A1F59831884207D001F58061884203D008
:10582C0001F58061884202D127F0020701E027F0E0
:10583C000A071F4302830784038B23F00C031B040A
:10584C001B0C0383038B9BB21C4344E0042A44D1FE
:10585C00028C22F010021204120C0284018B058CB3
:10586C0021F440721205120D42EA0E325E4992B2D8
:10587C0042EA06228842ADB292B212D001F5006122
:10588C0088420ED0B0F1804F0BD0A1F598318842F0
:10589C0007D001F58061884203D001F58061884210
:1058AC0007D125F0200141EA03139BB243F010030A
:1058BC0004E025F0A00143F010030B4302830384A2
:1058CC00038B23F440631B041B0C0383038B9BB2DD
:1058DC0043EA0424A4B20483F0BD082A028C3ED10E
:1058EC0022F480721204120C0284828B3E4D92B20E
:1058FC0022F0F307018C47EA0E1292B2A84289B249
:10590C0042EA060212D005F50065A8420ED0B0F1AD
:10591C00804F0BD0A5F59835A84207D005F58065CA
:10592C00A84203D005F58065A84207D121F4007187
:10593C0041EA03239BB243F4807304E021F4206119
:10594C0043F480730B4382830384838B23F00C0317
:10595C001B041B0C8383838B9BB21C4341E022F4FE
:10596C0080521204120C0284858B018C25F4407534
:10597C002D052D0D45EA062545EA0E321A4D89B244
:10598C00A84292B212D005F50065A8420ED0B0F133
:10599C00804F0BD0A5F59835A84207D005F580654A
:1059AC00A84203D005F58065A84207D121F4005127
:1059BC0041EA03339BB243F4805305E047F6FF55AD
:1059CC0043F480530D402B4382830384838B23F455
:1059DC0040631B041B0C8383838B9BB243EA04241C
:1059EC00A4B28483F0BD00BF002C01401F4A10B547
:1059FC00536803F00C03042B03D0082B04D01C4B6E
:105A0C0014E01C4B1B6811E053685168C3F38343CB
:105A1C00C90303F1020301D4174906E0516811F4DC
:105A2C00003F1449096818BF49084B430360536889
:105A3C001249C3F30313CC5C0368E340436054681E
:105A4C00C4F302240C5D23FA04F484605468C4F398
:105A5C00C2240C5DE340C3605268C2F381320A4435
:105A6C00127CB3FBF2F3036110BD00BF00100240C7
:105A7C0000127A008400002000093D00AC7A010875
:105A8C00CA782DE9F041D40648BF8C780E8802F014
:105A9C000F0348BF234316F0FF0F1ED001680024EC
:105AAC004FF0010E4FF00F0C0EFA04F737EA060513
:105ABC000FD1A5000CFA05F821EA080103FA05F547
:105ACC00282A41EA050101D1476102E0482A08BFB2
