:020000040800F2
:1000000000500020ED350108F3CD000895F60008FA
:10001000F1CD0008EFCD0008EDCD00080000000094
:10002000000000000000000000000000EBCD000810
:10003000E9CD000800000000E7CD00082BE700082C
:100040008D3601088D3601088D3601088D36010880
:100050008D3601088D3601088D3601088D36010870
:100060008D36010839E700088D3601088D36010804
:10007000B5E60008A1E6000885AC00088D36010849
:100080008DE6000879E600088D3601088D360108F6
:1000900015CF00088D3601088D3601088D36010810
:1000A0008D360108A1A600088D360108B1A600080A
:1000B00095A6000885A6000875A600080FEE0008A2
:1000C00013EE000807EE00080BEE00088D3601085D
:1000D0008D3601087DAC00088D36010875AC00082E
:1000E0003DE700088D360108A51901080000000051
:1000F0000000000000000000000000000000000000
:0C01000000000000000000005FF808F1A3
:10010C002DE9F04F9B4BDDB01E780293002E00F0D2
:10011C00DC80994B1868002801F0BF870EF08CFA30
:10012C00964C20680EF063FB002801F0B68720681F
:10013C000EF05AFB0928924C01D03F2849D14FF0C0
:10014C000008464627688F4D2FB18F4829683A46DC
:10015C0015F06AFD10B9A84606B92E468B4B08352A
:10016C009D42F1D3C6B1D6F800E0D8F800C02368A0
:10017C001EF803501CF80300A8420DD15A1C8249EA
:10018C0038B92D2B05D87E4D2A602025CD548854A6
:10019C0002E0CD542260EAE723680BB146450FD04C
:1001AC007B4811F093F8464507D856F8080B11F028
:1001BC008DF8092010F01CFFF5E708F01FFE002752
:1001CC0023689F42ACD2704BD85D10F011FF013701
:1001DC00F6E72368002B41F0E586042841F03687CA
:1001EC00694808F0F7FF01F058BF2068DFF8C081BC
:1001FC000EF0FDFA002851D0D8F800000EF0F4FAF9
:10020C00DAF80030834693F84820002A77D1242866
:10021C0040F0D680012283F84820DAF8003093F8B9
:10022C004880B8F1060FE0D193F849004D2800F052
:10023C00858500F2C281322800F0A18500F25D8133
:10024C00242800F0328500F21181032800F061822D
:10025C0040F2EB80052840F0FD801A200CF050FD98
:10026C0000244C4B185D01340CF005FD0B2CF8D11F
:10027C000024494B185D01340CF0FDFC082CF8D11E
:10028C000024464B185D01340CF0F5FC072CF8D11A
:10029C000CF002FD3B68002283F84820D9F80000DE
:1002AC000EF0CAF93E4B93F8313053B13D4B98598F
:1002BC0007F038FB0EF016FB0DF04EFE3A4A3B4BA6
:1002CC00DA604C36982E01F0E886364A354BB25837
:1002DC00F318002AF5D0364C364F2260364D159265
:1002EC00DFF8D89000223B608DF8592014AB142213
:1002FC0014958DF85820C9F80030BA4675E7012AD4
:10030C0004D14D2814BF0022022284E7022A04D112
:10031C003C2814BF002203227DE7032A0AD140287F
:10032C004FF000029FBF1A71DA715871987198BF23
:10033C00042270E7042A08D19A7983F8490080EAEC
:10034C00020B83F806B0052265E7052A7FF465AF3A
:10035C0059791A799142997906D941409971511C70
:10036C0019711344187258E781420CBF06220022FF
:10037C0051E700BF612B0020682A0020842A00204E
:10038C00F814002058940108C81400205095010856
:10039C0076960108DE960108EA960108F3960108A4
:1003AC00080900205C2900200400FA0500ED00E09B
:1003BC00F81C0020F01C002007E80008F41C0020AA
:1003CC00D94A137803F0040303F0FF00002B7FF4E9
:1003DC0024AFBBF1230FD8F8001019D10192029A67
:1003EC0001231370D14B1960D14B19609960102106
:1003FC001973D04958735D60CF4804330B6010F00B
:10040C0065FF08F0FBFC019A137843F002031370AC
:10041C00CA4B1B681B785B4501BFC94AC94B1A60A4
:10042C00C94A04BFC94BDA60F7E6012800F06581C0
:10043C00022840F0CB8504200CF062FC42200CF02A
:10044C001AFC54200CF017FC46200CF014FC4C2029
:10045C0000F0A1BDC0F08481222840F0B785BC4CCF
:10046C0050200CF04DFC04F15005F7E22A2800F066
:10047C00448419D8262800F01E84282840F0A6852C
:10048C00B34C07200CF03CFCB4F81A020CF03BFC0B
:10049C00B4F81C020CF037FC94F81E020CF0EBFBC9
:1004AC00B4F8200200F056BD2E2800F0AF8430289E
:1004BC0000F0DA842C2840F08985A54C0C200CF037
:1004CC001FFC94F83C020CF0D6FBB4F848020CF07C
:1004DC001AFCB4F844020CF016FCB4F846020CF00A
:1004EC0012FC94F83E020CF0C6FBB4F850020CF06F
:1004FC000AFCB4F8520200F02DBD402800F04684EE
:10050C0024D8382800F0E68312D8342800F0EA8288
:10051C00362840F05B85864B8D4C93F8300004F107
:10052C002005C0EBC000C0B20CF0EAFB00F06ABCC6
:10053C003B2800F08C823D2800F02B823A2840F0BA
:10054C00458504200CF0DCFB00F0EDBC462800F0E7
:10055C00B1840BD8422800F02884452840F0368519
:10056C0013200CF0CDFB002400F0D3BC492800F084
:10057C001B824B2800F0C783472840F027850CF0DE
:10058C0071FB054684200CF0BBFB28460CF0C4FB29
:10059C00704B0DF17008DC6805F18003A3428CBF31
:1005AC00641B802409F0E6FF28462246414606F0EB
:1005BC0007F90024054600F091BC702800F0278252
:1005CC0057D8672800F02E8134D8522800F09C842C
:1005DC0018D84F2800F08B84502840F0F7845C4CDE
:1005EC0004200CF08DFB01200CF045FB94F8010568
:1005FC000CF041FB94F8FF040CF03DFB94F8000563
:10060C0000F0C9BC652800F0BB8000F2E2806428D1
:10061C0040F0DC8407200CF073FBE7200CF02BFB84
:10062C004B4B58790CF027FB00200CF024FB0420DA
:10063C0000F07ABC6C2800F06D810ED8682800F0B0
:10064C005281692840F0C284434D00242878400030
:10065C0000F0FE000CF054FB51E16E2800F06C81B0
:10066C0000F2A88106200CF04BFB00200CF054FB90
:10067C0060E17C2800F05C841CD8742800F0558262
:10068C000AD8722800F0B882732840F09F840820A2
:10069C000CF036FB0124E4E2772800F08B827828FA
:1006AC0000F0CC80752840F091842F200CF028FBB2
:1006BC002A4CC4E1A02800F0EA8209D87E2800F078
:1006CC005C84C0F04B84962840F080840C2058E069
:1006DC00F12800F0E280FE2800F0CB82F02840F0F8
:1006EC0075841B4C04200CF00BFBB4F8F2010CF0DD
:1006FC000AFBB4F8F00100F02DBC03200CF000FB59
:10070C0000200CF0B8FA01200CF0B5FA102000F023
:10071C0042BC0CF0F5FA02200CF0ADFA40460CF09D
:10072C00AAFA022000F037BC622B0020842A002099
:10073C0008090020682A0020A6960108002A00203B
:10074C00EFBEADDEF04F00200400FA0500ED00E036
:10075C004C240020B0000020F82900209B770108D1
:10076C0006200CF0CDFA43200CF085FA43200CF057
:10077C0082FA33200CF07FFA44200CF07CFAD9E09A
:10078C000B200CF0BDFAC34B18880CF0BCFAC24B12
:10079C00188880B20CF0B7FAC04B1B68C3F3C000CA
:1007AC00C3F38002800040EA4200C3F340021043CE
:1007BC00C3F3401240EAC20003F0100318430CF0DC
:1007CC00A2FA0CF07FF90CF0A7FAB54B93F854048D
:1007DC00E1E312200CF094FAB24B00241B88B3F521
:1007EC00806F8CBF08250125AF4B53F824000134D2
:1007FC0090FBF5F080B20CF086FA032CF4D1AB4CE4
:10080C0020880CF080FAA0880CF07DFA2089A84C86
:10081C000CF079FA20880CF076FAA0880CF073FAB8
:10082C00208997E310200CF06BFA0024A14B185D83
:10083C0001340CF020FA102CF8D129E5984C7020DA
:10084C000CF05EFAA0460025B4F856010CF05BFAE9
:10085C00B4F858010CF057FAB4F85A010CF053FAEA
:10086C0094F85C010CF007FA94F85D010CF003FAB3
:10087C0094F85E010CF0FFF994F85F010CF0FBF9B1
:10088C000E2303FB05830135D3F860010CF044FA09
:10089C00082D04F10E04D7D1FAE470200CF030FAD4
:1008AC007F4C04F1700594F8E6000CF0E4F994F830
:1008BC00E7000CF0E0F994F8E8000CF0DCF994F89F
:1008CC00E9000CF0D8F994F8EA000CF0D4F994F89B
:1008DC00EB000CF0D0F9073494F8E5000CF0CBF9F0
:1008EC00AC42E0D1D4E410200CF00AFA0024724B94
:1008FC00185D01340CF0BFF9102CF8D1C8E42B783A
:10090C009C42BFF4C5AC6D4B33F814000CF0FBF9F2
:10091C000134F4E76A4C40460CF0F2F920880CF0F4
:10092C00F2F960880CF0EFF9B4F904300A2093FB6B
:10093C00F0F029E000200DE34FF6FF7407200CF0D7
:10094C00DFF9604B1888FF28A8BFFF20C0B20CF05D
:10095C0092F95D4B1868A042A8BF204620EAE070CF
:10096C0080B20CF0D0F9594B18880CF0CCF94C4BE8
:10097C0093F81F22564B186842B10A235843A042E1
:10098C00A8BF204620EAE07080B2E3E200F30F003B
:10099C00FAE7434C02200CF0B3F994F88B020CF0FC
:1009AC006AF994F88A02F6E202200CF0A9F9494B94
:1009BC001888CFE2484C0B200CF0A2F9236825468E
:1009CC0018780CF058F923684FF0000858780CF0A0
:1009DC0052F92B68404C4344187908F101080CF08B
:1009EC004AF9B8F1030FF4D12368D8790CF043F924
:1009FC00236898780CF03FF92368D8780CF03BF911
:100A0C00236858890CF07FF92368187AC3E21E20FA
:100A1C000CF076F90024314D2B68234458780CF0F7
:100A2C002AF92B682344D87A0CF025F92B68234437
:100A3C00587D01340CF01FF90A2CECD128E414F881
:100A4C00010F00283FF424AC0CF015F9F7E7012056
:100A5C000CF056F9214B1B6818789CE294F855243D
:100A6C001F4B0C2101FB023393F838000CF003F9F7
:100A7C0094F856040CF0FFF894F857040CF0FBF8BB
:100A8C00043494F854040CF0F6F8AC42E6D1FFF7B9
:100A9C00FFBB00BF5E2B0020481C0020381C002030
:100AAC004C24002008000020580D0020981D002028
:100ABC00202B0020280900202C1E0020581C002070
:100ACC00901D0020B0120020700D0020F20D0020AF
:100ADC006C0D0020FC1C00200C0D0020001D0020C3
:100AEC009C7701085A200CF00BF9D44C04F15A05F0
:100AFC0094F8AA040CF0BFF894F8A5040CF0BBF819
:100B0C0094F8A6040CF0B7F894F8A7040CF0B3F81A
:100B1C0094F8A8040CF0AFF8063494F8A3040CF085
:100B2C00AAF8AC42E4D1FFF7B3BB00254FF0010AA1
:100B3C004FF0000BC24B1B789B4531DAC14B4FF089
:100B4C0000081BF803200C2303FB08F3BE4C04F134
:100B5C003001595C914209D12344586B15F05BF874
:100B6C000246BAF1000F07D1534607E008F101081D
:100B7C00B8F11F0FE7D110E005440EE093420CDAF8
:100B8C000C2101FB0841496B0392C85C01930CF0EA
:100B9C0072F8019B039A0133F0E70BF1010BC9E7E3
:100BAC00BAF1000F3FF474ABE8B20CF0A9F84FF0B7
:100BBC00000ABDE7A24D002428780CF0A1F82B7890
:100BCC009C42BFF465AB9F4B002114F803E00C2250
:100BDC0002FB01F39C4800F1300C13F80C20724519
:100BEC0005D1034493F838000CF045F802E00131CC
:100BFC001F29ECD10134E2E7904C16200CF080F860
:100C0C00B4F844020CF07FF8B4F8D0000CF07BF888
:100C1C00B4F8D2000CF077F8B4F8D4000CF073F8F8
:100C2C00B4F89C020CF06FF800200CF024F80020B3
:100C3C000CF021F800200CF01EF894F81F020CF0B8
:100C4C001AF894F840020CF016F800200CF013F887
:100C5C00B4F9EE310A2093FBF0F080B20CF053F8AB
:100C6C003CE0E0B201340CF006F8092CF9D1FFF7A6
:100C7C000FBB08200CF044F80024744B33F814001C
:100C8C0001340CF040F8042CF7D1FFF701BB0C2019
:100C9C000CF036F86E4B18680CF03EF86D4B18687B
:100CAC000CF03AF86C4B18683EE104200CF028F874
:100CBC00624B986838E1614C06200CF021F8B4F8CE
:100CCC00CC010CF020F8B4F8D0010CF01CF8B4F8FE
:100CDC00D4013FE104200CF013F8584C94F81202A4
:100CEC000BF0C9FF94F816020BF0C5FF94F815022F
:100CFC000BF0C1FF94F817024DE101200CF000F845
:100D0C004E4B587947E14D4C08200BF0F9FF94F805
:100D1C009A020BF0B0FF94F89B020BF0ACFFB4F806
:100D2C009C020BF0F0FF94F89E020BF0A4FFB4F8B9
:100D3C00A0020BF0E8FF94F8A2022CE1474C484DBE
:100D4C0020784FF0000800EB4000C0B20BF0D8FF49
:100D5C00237802359845BFF49BAA15F8020C0BF0CA
:100D6C008AFF15F8010C08F1010800EB800000EB7C
:100D7C00800000F2EE2080B20BF0C5FFE8E7012006
:100D8C000BF0BEFF2D4B93F8400204E108200BF052
:100D9C00B7FF0024294B234493F8340201340BF0A1
:100DAC006AFF082CF6D1FFF773BA244C10200BF015
:100DBC00A7FF60790BF05FFFA0680BF0ADFF94F814
:100DCC003C020BF058FFB4F8CC010BF09CFFB4F8CC
:100DDC00D0010BF098FFB4F8D4010BF094FFB4F8E9
:100DEC001A020BF090FFB4F81C02B3E01D4AD25C5F
:100DFC00904200F0D4800C33302BF7D10834AC4245
:100E0C003FF446AA94F8A6020023EFE740200BF02B
:100E1C0077FF0A4C04F14005B4F85C030BF073FF48
:100E2C0094F85E030BF027FF043494F85B030BF08B
:100E3C0022FFAC42F0D1FFF72BBA00BF4C240020AC
:100E4C00D01C0020D11C00209C77010880120020AF
:100E5C00E8F7FF1FECF7FF1FF0F7FF1FF829002042
:100E6C00A0260020082A0020E0200BF049FFDA4CD5
:100E7C0004F18005B4F8DE02043400F03F000BF0FE
:100E8C0042FFB4F8DA02C0F386100BF03CFF94F882
:100E9C00D80200090BF0EFFE94F8D80200F00F0016
:100EAC000BF0E9FE94F8D9020BF0E5FEAC42E1D16F
:100EBC00FFF7EEB90D200BF023FF05F049FCC74CF2
:100ECC0040F00200C0B20BF0D6FE20880BF024FFDD
:100EDC00E0680BF021FF09F08DFA25E0AC42BFF67B
:100EEC00D7A918F804000BF0C6FE0134F6E70B2066
:100EFC000BF006FF00200BF0BEFE00200BF0BBFE3B
:100F0C0000200BF0B8FE0BE001200BF0F9FE0020E6
:100F1C0041E0B34B185D01340BF0ADFE0B2CF8D156
:100F2C0000200BF0F9FE00200BF0F6FEFFF7B0B935
:100F3C00A94C08200BF0E4FEB4F8D8000BF0E3FE4B
:100F4C00B4F8DA000BF0DFFEB4F8DC000BF0DBFEDB
:100F5C00B4F8DE000BF0D7FEFFF79AB99E4C0320D5
:100F6C000BF0CEFE94F822020BF085FE94F82302CF
:100F7C000BF081FE94F824020DE0974C03200BF04B
:100F8C00BFFE94F8C8010BF076FE94F8C9010BF083
:100F9C0072FE94F8CA010BF06EFEFFF779B90BF0F4
:100FAC006AFEB4F8A8020BF0AEFE94F8AA020BF09D
:100FBC0062FE94F8AB020BF05EFE94F8AD020BF0FF
:100FCC005AFE94F8AC020BF056FE17E74E283CD1B3
:100FDC000BF032FE1128054602D90FF09FFF2FE0CF
:100FEC000BF02AFE7C4C05F5947504EB4503187147
:100FFC000BF02EFE40F2ED23984205DD40F6CA03BD
:10100C009842A8BF184601E040F2EE20A0F2EE2074
:10101C00192390FBF3F004EB4504607110E0C0F071
:10102C000183D02800F00C83D22840F0B7876D4B99
:10103C001B7803F0040303F0FF04002B00F00C8377
:10104C0000200BF05DFEFFF723B900F2E681352896
:10105C0023D10BF0F1FD0E280546BED80BF0ECFDAC
:10106C000328BAD85C4B062404FB053484F8AA0484
:10107C000BF0E2FD84F8A5040BF0DEFD84F8A60469
:10108C000BF0DAFD84F8A7040BF0D6FD84F8A80465
:10109C000BF0D2FD84F8A904D2E700F2E7802B28EC
:1010AC0004D10BF0C9FD4C4B5871C9E769D8252800
:1010BC0008D1494C0023A3600BF0D4FDA36818435E
:1010CC00A060BDE738D8232840F068870BF0B4FD4A
:1010DC001328044681D80BF0AFFD00220C23534398
:1010EC004149CD1895F83850854221D10B443A4DE1
:1010FC0093F8303004F58A7405EB840463710BF0BB
:10110C009BFDA0710BF098FDE0710BF095FD374B3A
:10111C0037491A6805F1D0030B60364B207200205A
:10112C001A600FF0D5FD344B80F00100187087E782
:10113C0001321F2AD2D150E727280DD10BF088FDA0
:10114C00254CC4F8CC010BF083FDC4F8D0010BF096
:10115C007FFDC4F8D40173E7292840F01F870BF0FA
:10116C0077FD1D4CA4F81A020BF072FDA4F81C02BA
:10117C000BF062FD84F81E020BF06AFDA4F820024D
:10118C005EE72F2800F07E8438D82D2840F00687A3
:10119C000BF052FD104C84F83C020BF059FDA4F8F6
:1011AC0048020BF055FDA4F844020BF051FDA4F8D5
:1011BC0046020BF041FD3B6884F83E025B79082B3C
:1011CC007FF63EAF0BF044FDA4F850020BF040FD4F
:1011DC00A4F8520234E700BF4C240020B0000020D9
:1011EC00DE960108622B00209C770108001D002070
:1011FC00100D0020140D00200200002031282CD1ED
:10120C000BF01AFD1F2804463FF6E7AE3B685B79EE
:10121C00082B7FF4E2AE0BF01BFDB94BB63403EB9D
:10122C00840400F03F00E0800BF012FDE3888001A5
:10123C0000F4FE501843E0800BF0FEFC000120711E
:10124C000BF0FAFC237900F00F00184320710BF01F
:10125C00F3FC607109F040F8F2E6332840F09E860A
:10126C000BF0EAFCA64B83F84002E9E641280AD1D0
:10127C0000240BF0E1FCA24B23440134082C83F82E
:10128C003402F6D1DCE672D8392811D10BF0D4FC3B
:10129C009B4C84F812020BF0CFFC84F816020BF076
:1012AC00CBFC84F815020BF0C7FC84F81702C7E6D8
:1012BC0032D8372840F072865B790724B3FBF4F2FE
:1012CC00C2EBC2029A1A12F0FF0F7FF486AEB3FB88
:1012DC00F4F4013CE4B2FF2C3FF4B2AE0BF0ACFCE6
:1012EC005FFA80F84FFA88F006F024FC05460028D7
:1012FC003FF473AE80F800800BF0AAFC68800BF012
:10130C009BFC28710BF098FC68710BF095FCE87154
:10131C000BF092FCA871DCE73C281BD1794C2568BA
:10132C0095F800800BF088FC18B10228A8BF0220A9
:10133C0000E0012028702368734A1B78022B14BF2D
:10134C0072497349984511603FF47AAE00200BF056
:10135C00ECFC75E63E2840F021860BF06DFC684CE9
:10136C0084F88B020BF068FC84F88A0268E6482843
:10137C0002D109F04DF963E62DD8432823D10BF0A7
:10138C005BFC5F4C0023A36060710BF06BFCA368EB
:10139C001843A0600BF050FC84F83C020BF058FC96
:1013AC00C4F8CC010BF054FCC4F8D0010BF050FC89
:1013BC00C4F8D4010BF04CFCA4F81A020BF048FC56
:1013CC00A4F81C023CE6442840F0E885514B01226D
:1013DC0083F8312034E64A2802D10BF039FCB6E709
:1013EC004C2840F0DB850BF027FC454C84F89A0226
:1013FC000BF022FC84F89B020BF02AFCA4F89C0254
:10140C000BF01AFC84F89E020BF022FCA4F8A0024C
:10141C000BF012FC84F8A20212E6D32804D10BF0D4
:10142C0017FC3D4B18800BE600F22081CD2809D12A
:10143C003A4B1B785C073FF503AE394B4FF4C8723F
:10144C001A80FDE500F2B580C82826D15C796408C5
:10145C00122C3FF6C2AD0025A54206D20BF0F8FBCC
:10146C001CAB23F815000135F6E722460023A342F6
:10147C0007DA1CA931F813002A4921F813000133AB
:10148C00F5E7122A05D0274B002123F81210013260
:10149C00F7E7254B01221A70D2E515D8512840F0F8
:1014AC007D85224B1B78012B3FF6CAAD0BF0C4FB9C
:1014BC00134C84F801050BF0BFFB84F8FF040BF010
:1014CC00BBFB84F80005BBE5CA2831D100240D4DC7
:1014DC00D5F800800BF0B0FBA04488F80100D5F8DB
:1014EC0000800BF0A9FBA04488F80B002D680BF0D2
:1014FC00A3FB254401340A2C6875E8D1A0E500BF94
:10150C004C240020001D002060010020C1E10008D7
:10151C00411A010808090020180D0020622B002038
:10152C00D00C0020381B0020C522002008140020FD
:10153C00CC2840F033855B79092B7FF64EADC84C37
:10154C0025680BF079FB287025680BF075FB68702B
:10155C000BF072FB23686428A8BF642018710BF091
:10156C006BFB23686428A8BF642058710BF064FBE4
:10157C002368FF28A8BFFF2098710BF05DFB25683E
:10158C00642828BF6420E8710BF056FBA87025680E
:10159C000BF052FBE87025680BF05AFB3B68688136
:1015AC005B790A2B7FF64CAD24680BF045FB20725F
:1015BC0046E5CF287FF433AD0BF04AFB6FF4AF6EEA
:1015CC0000EB0E039BB2A74CC62B98BFA4F84402A9
:1015DC000BF03EFBA4F8D0000BF03AFBA4F8D200C1
:1015EC000BF036FBA4F8D4000BF032FBA4F89C02F1
:1015FC000BF022FB0BF020FB0BF01EFB0BF01CFB8B
:10160C0084F81F020BF018FB84F840020BF014FB5B
:10161C000BF01EFB00EB80004000A4F8EE010BF079
:10162C000BFB36E6904B1B7858073FF509AD8F4AFC
:10163C00137843F0040301E08D4A01231370FFE497
:10164C00894B1B785D073FF5FBAC09F06FFE0CF086
:10165C00CBFC09F0CBFCF3E40BF0EEFA814B012848
:10166C0083F85404F3D983F85444F0E7DB283FF4AF
:10167C00E7AC63D8D62809D100240BF0E9FA7D4BEE
:10168C0023F814000134082CF7D1D9E431D8D4282C
:10169C0040F084845B790F2B7FF49FAC0BF0CCFA79
:1016AC00072805463FF699AC0BF0D2FA6D4B0E2489
:1016BC0004FB0534A4F856010BF0CAFAA4F858013F
:1016CC000BF0C6FAA4F85A010BF0B6FA84F85C01D8
:1016DC000BF0B2FA84F85D010BF0AEFA84F85E01FF
:1016EC000BF0AAFA84F85F010BF0BCFAC4F86001A5
:1016FC00A6E4D92811D10BF0ABFA5A4CA4F8D800B7
:10170C000BF0A6FAA4F8DA000BF0A2FAA4F8DC00AD
:10171C000BF09EFAA4F8DE0092E4DA2840F03E8446
:10172C000BF08AFA4F4C84F822020BF085FA84F8FD
:10173C0023020BF081FA84F8240281E4F22821D1EF
:10174C000BF07AFA0F2804463FF647AC0BF074FA0C
:10175C00494BC4EBC4041C44A0710BF06DFAE0714E
:10176C000BF06AFA20720BF067FA60720BF064FAF5
:10177C00A0720BF061FAE0720BF05EFA20730DF0C0
:10178C00F1F85DE41CD8DC280DD10BF055FA354C82
:10179C0084F8C8010BF050FA84F8C9010BF04CFA2C
:1017AC0084F8CA014CE4EF2840F0F8830BF050FAAF
:1017BC002C4CA4F8F2010BF04BFAA4F8F0013FE426
:1017CC00F52840F0568101200BF09AFA0024284BA2
:1017DC002A4D2B482146C0221C7085F8324014F04B
:1017EC00D7F98DF817409DF8172095F83610234B34
:1017FC0091426AD99DF8172003EBC20292F8392066
:10180C00D2075BD59DF8172003EBC20292F8381073
:10181C001C4A32F91120002A50DD9DF8172093F84C
:10182C0032A003EBC202D26BDFF854B050689DF8C3
:10183C0017204FEA0A1803EBC203DB6B0BEB080112
:10184C001A894BF80800CA80594692B20024012329
:10185C00A340134018D10134102CF8D115E000BF6F
:10186C000C0D00204C240020622B0020F40D0020D5
:10187C00CC0000206C2A00202C2500200809002018
:10188C00B81200202C1E0020234601EB08042281F4
:10189C000222E2724822A272A268A380E26008F1DE
:1018AC0008031022A273194404F00EFD5BF80830F3
:1018BC00E2880AF1010A1A6185F832A09DF8173006
:1018CC000133DBB28DF817308DE793F832000BF053
:1018DC00D2F90BF0E1F9D9F800000CF0ADFE3B6841
:1018EC00186806F01FF8B74B3968D9F80020196052
:1018FC00B54B1A6006F066FAB44C4FF0000884F849
:10190C00008084F8018005F0F1FF2F280394F3D1B7
:10191C00AF4CADF81C802268A188516105F0E6FF40
:10192C00019005F0E3FF8DF8250005F0DFFF8DF841
:10193C00260005F0DBFF824605F0D8FF0DF1700B99
:10194C000BF8080008F101085FFA88F18A45F3D119
:10195C0005F0BAFF8DF8190005F0B6FF2168A388D1
:10196C008DF818000B61039BBDF818101B88994269
:10197C0000F09C804FF0000A07AC4FF0010B4FF0C9
:10198C0003080DE09DF8703095F832209A4200F271
:10199C00FC804FF0000A07AC4FF0010B4FF0080829
:1019AC008C4B002018705870894B18689B884361C9
:1019BC00844B186800680CF00CFF2E2005F066FFB5
:1019CC00019805F063FF9DF8250005F05FFF9DF879
:1019DC00260005F05BFF584605F058FF0BF1FF3B66
:1019EC005FFA8BFB0BF1010BA34414F8010B05F010
:1019FC004DFF5C45F9D1744CDFF8D8B1404605F089
:101A0C0045FF20689BF801100CF022FE9BF800109B
:101A1C0020680CF01DFE6B4B1A6810680CF0D4FE9D
:101A2C0020680CF009FE6A4B1A689B881361BAF1A6
:101A3C00000F3FF461AF95F83240002C3FF4FCAD41
:101A4C00654B013CDFF8A081E4B283F832402401FD
:101A5C0008EB040A514618238AF80E3058F8040093
:101A6C000C3104F031FC58F80430BAF806205A61F5
:101A7C00E1E7FA2840F09282584B1B7859077FF522
:101A8C00E6AD8BE2564C04F140050BF0E1F8A4F8FE
:101A9C005C030BF0D1F884F85E030BF0CDF8043442
:101AAC0084F85B03AC42F0D1FFF7CABA019BCDF8C6
:101ABC0028B0303B00220F2B00F2488201A151F8D4
:101ACC0023F000BF111B00085B1B0008291F000836
:101ADC00631B0008691F000891190008591F0008B2
:101AEC00FD1B0008611D0008BD1D00080B1E000831
:101AFC007F1E0008591F00083D1E0008B71E000875
:101B0C007B1B0008DFF8E48098F80030BBB395F835
:101B1C009830002B00F02982022B02D9032B10D015
:101B2C0023E2FD238DF838300EA8002302218DF816
:101B3C00393005F0B6FD012005F0A2FDC1281ED0FC
:101B4C0013E207F0F9F9002800F00F8217E06A237E
:101B5C008DF81C3013E090238DF81C3004238DF885
:101B6C001D304FF0000A07AC4FF0020BDBE19DF883
:101B7C0070305A1E022A00F2C98185F898304FF055
:101B8C00000A07AC4FF0010BCDE1164ADFF85C8080
:101B9C001370114B93F89830013B012B0BD8002399
:101BAC008DF838308DF839300EA80123022188F8D1
:101BBC00003005F076FD002488F8004088F80140DC
:101BCC00DDE700BF88130020801300208C13002059
:101BDC00AC1C00208413002008090020622B00207C
:101BEC004C240020B6120020B812002079130020DB
:101BFC00DFF844839DF8703088F8002088F80120C5
:101C0C0095F83220C2469A427FF6C3AEC74A0324E7
:101C1C00137007F091F9F0B1C54801210FF082F96A
:101C2C00C8B1DFF814B3022158460FF07BF990B11C
:101C3C0049F20732BBF8003023F00801914200F062
:101C4C009A8149F20A32934200F0958149F20B4293
:101C5C00934200F09081B74A0DF1380E93781188B9
:101C6C008DF82230ADF82010131D1432F44618688C
:101C7C0059680833ACE803009342E646F6D118687D
:101C8C001B79CCF8000015210EA88CF8043005F057
:101C9C0008FD0BA8082105F09DFD00284CD0002361
:101CAC000BAA08A9985C595C884245D10133032BD7
:101CBC00F6D19DF82F308AF802309DF830308AF832
:101CCC0001309DF831308AF800309B4B1A884FF266
:101CDC00103322F02001994211D04FF210439A4256
:101CEC000DD04FF290339A4209D04FF650039A42DE
:101CFC0005D002F5BA530F339BB2012B01D8012347
:101D0C000EE049F2073122F008038B4207D049F26A
:101D1C000A339A4203D049F20B439A420CD1022364
:101D2C0085F8983095F898304FF0000A88F8033011
:101D3C00814C4FF0040BF6E0013C14F0FF047FF4EF
:101D4C0068AF88F8004088F80140A2464FF0040BB9
:101D5C00794C12E195F89830032B40F0F780774BD3
:101D6C0012241C7005F066FC002005F00DFC072009
:101D7C0005F00AFC0E2005F007FC204605F004FCDB
:101D8C00142005F001FC002005F0FEFBAC2005F052
:101D9C00FBFB882005F0F8FB132005F0F5FB762003
:101DAC0005F0F2FB05F02EFC654807F035F89CE0D9
:101DBC0095F89830012B40F0C9809DF8703009A837
:101DCC008DF81C305B008DF8253000238DF8263003
:101DDC0005F0D8FC28B94FF0000A07AC4FF0010B06
:101DEC00CBE0584B0EA81B880221ADF8383005F01B
:101DFC0058FC142005F044FC3028ECD1BFE69DF8CB
:101E0C0070308DF8243095F89830002B00F0B880A5
:101E1C00022B02D9032B04D0B2E00CBF0720032005
:101E2C0012E009A807F01CF90028D4D014221AE0FB
:101E3C009DF870308DF8243095F89830022B02D034
:101E4C00032B0AD09CE0042009A905F009FD002809
:101E5C0040F09E804FF00F0894E009A807F000F9BD
:101E6C000028B8D01622354B09A81A7007F0D2F802
:101E7C00EDE795F898308DF824A0002B3FF47FAE59
:101E8C00022B02D9032B09D079E609A805F07AFCBC
:101E9C000028A0D0012009A9142224E009A807F0E9
:101EAC00DFF8002897D013222AE095F898308DF8A7
:101EBC0024A0022B0DD0032B1BD0012B4FF0000ABA
:101ECC0007AC4FF0010B0CBF4FF002084FF00F089E
:101EDC0066E509A805F056FC00283FF47CAF40F2FB
:101EEC00DC52052009A905F011FC00283FF473AF62
:101EFC0045E609A807F0B4F800283FF46CAF1522AA
:101F0C000E4B09A81A7007F033F8EEE74FF0000AF1
:101F1C0007AC4FF0010B4FF0090841E50A4C4FF0AC
:101F2C00000A4FF0090BD0463AE500BFB61200206C
:101F3C007A1300204079010879130020382A0020F8
:101F4C00392A0020597901086C9601084FF0000AD3
:101F5C0007AC4FF0010B4FF0020821E54FF0010ADE
:101F6C0007ACD3464FF000081AE5002488F800406F
:101F7C0088F801402FE70323D2E64FF00F080FE556
:101F8C004FF002084FF0000A07AC4FF0010B07E5C9
:101F9C009DF824B04FF0000A1CACC4E70EF0BEFF55
:101FAC00FEF776B90C2803D13D480FF08FF949E0C4
:101FBC000A2801D00D2864D13A4D3B480FF086F920
:101FCC002846232113F019FE08B1401B206023681A
:101FDC007BB35A1EA95C202901D11346F8E7314A7C
:101FEC0000212360D154314B314ED3F80080D6F808
:101FFC0000902C4F484613F00EFE054649462A46E3
:10200C00384613F011FE2B4A20B97B5D43445B78B4
:10201C005B0703D008369642E9D306E0964204D219
:10202C00681C73683844984702E023480FF04EF957
:10203C0000231C4800213022236013F0A9FD029BD1
:10204C001B7853B306F0DAFEFEF76AB80C28ABD057
:10205C007F2804D1FEF764B82F2B3EF661A8A0F1BF
:10206C002002D2B25E2A3EF65BA813B920283EF4B9
:10207C0057A85A1C22600B4AD0540EF0B9FFFEF739
:10208C004FB87F28E8D1074A013B00210B48236059
:10209C00D1540FF01BF9FEF743B85DB0BDE8F08FDB
:1020AC007B960108C81400205CA50108AC03002035
:1020BC00589401085095010886960108A2960108CB
:1020CC002DE9F04F9A4C9FB023689A4E9D6A0CF004
:1020DC00F5FA6368C01A30800CF0F0FA964B606029
:1020EC001A780693012A01BF3288944B1A80944ABD
:1020FC0004BF12885A80934BDB684BB117A89847E2
:10210C009DF85C3023B1237A002B00F0C8840AE0E0
:10211C000CF0D4FA8C4A63681268EB1A18445032EB
:10212C009042E8D3EFE70CF09DFF08B90CF0B0FF3C
:10213C00864D95F84A321BB9854B1B88002B4ED027
:10214C00844A618912687A4BB1FBF2F1824A481CCD
:10215C00127880B2A0811AB3B3F90EA00023744E8A
:10216C007E4A06F1100832F813C038F913200FFA22
:10217C0080F90AFB02F292FBF9F206F1180E3EF816
:10218C0013702EF813C0C7EB0C07174428F8137004
:10219C000133042BE3D1704B00221A70F18102E061
:1021AC00DA89013ADA81B4F90E00614A00284FF05D
:1021BC00000313DDB2F90C606949A1F1080232F990
:1021CC00132031F81310424392FBF6F28A1A63493A
:1021DC0021F813200133042BEED100E0D381614BA5
:1021EC005A4E1B6813F0080F3AD05C495E4F888832
:1021FC0000F10E039BB21C2B5C4BB3F904302BD8B3
:10220C00534A1288520727D50A2293FBF2F23B88D5
:10221C00D21A92B293B21FB2B337BCBF02F5B473E9
:10222C009BB2534F1AB2B32A3F78C4BFA3F5B47311
:10223C009BB23F0796F8D82112D552B25242534363
:10224C004C4A1BB21268527A53436FF01D0293FB37
:10225C00F2F31844888003E00A2293FBF2F33B80EC
:10226C00454B1B78B3B1454BB3F90620B6F8463253
:10227C009A420FDC354B5B79012B01D0192B02D123
:10228C0096F8922232B90E2B04D0082B1EBF334B7A
:10229C0000229A8096F810727FB32D4B1B889907F9
:1022AC002BD0374B3749D3F82080404610F03EFAFC
:1022BC00F0B9404613F028FF216A10F08FF813F0A4
:1022CC00A9FEB0F5617FA8BF4FF4617010F032F831
:1022DC002D4910F037F90BF0A6FD8046384610F06A
:1022EC0029F8414610F07AF813F094FE80B200E021
:1022FC0000201A4AD3881844D080244B1878002820
:10230C0040F0CB83224B1A68984612F4002F00F051
:10231C00C483204F3B78033B052B4ED896F80135F0
:10232C00D3B3012B3CD108F063F9C0F17F0037E047
:10233C00A40900205E2B00207E12002080120020B9
:10234C00361C0020380D0020FC1C00204C240020E2
:10235C00C81C0020A81D00201C0D0020881D00207A
:10236C00BC090020381C0020180D0020901D0020F6
:10237C00F40D0020001D002002000020581C00203D
:10238C00A01F00208FC2753CEFB6B044612B00201B
:10239C00541C002008140020606A03689B6898474E
:1023AC00A36A94F82C201344B3F5807FA8BF4FF494
:1023BC0080738342D4BFA362A0623B78023B092B9B
:1023CC0000F26683DFE813F00A0012003F0064039A
:1023DC00640356006700CC02EE02F9020023A362EC
:1023EC002363A64B1B686363032350E3A34B1A6858
:1023FC00636B64339A4240F24B83402009F082F9BC
:10240C00002840F045834FF040089D4D236B9D4EB6
:10241C00E85C60B103F048F8B36AB8F1010803F165
:10242C00FF33B362336B03F101033363EDD1226BE2
:10243C00944BAA5C002A40F02B831A634FF0FF32B6
:10244C005A63042323E3282300938F4B492003F181
:10245C000C02019302925021A3F10A02023303F001
:10246C0041FB002840F014834FF0FF33636320637B
:10247C0007230CE3854A0523002100930191029167
:10248C00532002F1080303F02DFB002840F00083D9
:10249C0020630823FBE2402009F034F9002840F0C7
:1024AC00F782236B342B00F2EA87DFE813F0350058
:1024BC0039003D004300490058005C006000640096
:1024CC00680073007B007E0089009800A700B600AE
:1024DC00C500D400E300250138013C01450152013F
:1024EC005F016C01790186019301A001AD01B60178
:1024FC00C501CE01DD01E601EF01F8010102100278
:10250C0019021D02210225022F0239023D0241024D
:10251C00450249024D0251025D4809F069FA1BE27D
:10252C005C485D495D4A02E05D485E495E4A09F0DF
:10253C005FFA11E25D4896F8FF1496F80025F6E76D
:10254C0095F854245C235343EA1892F8D0230C21B9
:10255C0001FB02331D44564895F8D213FAE1554855
:10256C00B6F8D010F6E15448B6F8D210F2E1534B5D
:10257C0053481969EEE1534B53481988EAE1A36BB0
:10258C00DA0403D5514896F81212E3E13D4B0B22C5
:10259C001A63E1E14E4896F8161296F8172296F84F
:1025AC00153246E14B48A18FD4E1D8F800301B0519
:1025BC0040F1D2814848B6F81C12B6F91A22B6E797
:1025CC0095F854245C235343EA1892F8D0230C2139
:1025DC0001FB02331D44414895F8D313BAE195F839
:1025EC0054245C235343EA1892F8D0230C2101FBAA
:1025FC0002331D443A4895F8DA13ABE195F85424AC
:10260C005C235343EA1892F8D0230C2101FB0233CC
:10261C001D44344895F8D4139CE195F854245C235C
:10262C005343EA1892F8D0230C2101FB02331D44CA
:10263C002D4895F8D5138DE195F854245C2353431C
:10264C00EA1892F8D0230C2101FB02331D442748D1
:10265C0095F8D9137EE195F854245C235343EA187A
:10266C0092F8D0230C2101FB02331D442048B5F80D
:10267C00DC136FE11F4896F84D126BE1D823002054
:10268C005C790108A4090020C67901089C7B01082B
:10269C00069801082098010845980108F39601084E
:1026AC004B980108DE960108EA9601085F9801082C
:1026BC00709801087A98010889980108380D002053
:1026CC009898010808000020A8980108B298010801
:1026DC00BF980108D8980108E3980108F6980108FA
:1026EC00009901080D990108179901082299010810
:1026FC002F9901084199010895F854245C23534300
:10270C00EA1892F8D0230C2101FB02331D44B34884
:10271C0095F8D61395F8D72395F8D83389E0B04BB4
:10272C00B048196816E196F854345C2202FB036633
:10273C00AD4896F89C130DE195F854345C2202FBDD
:10274C000355AA4895F89D1395F8A72395F8B1332E
:10275C006FE095F854345C2202FB0355A44895F8BD
:10276C009E1395F8A82395F8B23362E095F854348B
:10277C005C2202FB03559F4895F89F1395F8A923FB
:10278C0095F8B33355E095F854345C2202FB0355AD
:10279C00994895F8A01395F8AA2395F8B43348E016
:1027AC0095F854345C2202FB0355944895F8A11318
:1027BC0095F8AB2395F8B5333BE095F854345C228F
:1027CC0002FB03558E4895F8A21395F8AC2395F8A7
:1027DC00B6332EE095F854345C2202FB035589483D
:1027EC0095F8A31395F8AD2395F8B73321E095F838
:1027FC0054345C2202FB0355834895F8A41395F8D6
:10280C00AE2395F8B83314E096F854345C2202FBEE
:10281C0003667E4896F8A5139CE095F854345C2228
:10282C0002FB03557A4895F8A61395F8B02395F852
:10283C00BA3309F0DDF88FE096F854345C2202FBD1
:10284C0003667448B6F8CA1384E095F854345C22D5
:10285C0002FB03557049D5F8C0030FF0BFFD0FF014
:10286C0083FF01466D4875E096F854345C2202FBF8
:10287C0003666B4896F8CC136CE096F854345C22E3
:10288C0002FB0366674896F8CD1363E096F8543460
:10289C005C2202FB03666448B6F8C4135AE096F84F
:1028AC0054345C2202FB03666048B6F8C81351E04E
:1028BC0095F854345C2202FB03555749D5F8BC03F8
:1028CC000FF08CFD0FF050FF0146594842E096F88E
:1028DC0054345C2202FB0366564896F8BB1339E06D
:1028EC00554896F8221235E0544896F8231231E0F8
:1028FC00534896F8DB112DE04749D6F8E0010FF06C
:10290C006DFD0FF031FF01464E4823E04249D6F8E9
:10291C00F4010FF063FD0FF027FF01464A4819E060
:10292C004A4896F8D91115E0494896F8EC1111E08F
:10293C00484896F8EB110DE0474896F8891209E0E3
:10294C00464896F8191205E0454896F84A1201E0F7
:10295C004448B16809F04CF8236B0133236397E0CA
:10296C00414B1B689E011AD5B4F840303F4DB3B9AA
:10297C003F4BD5F8448045201E6802F095FD0E2093
:10298C0002F092FD404608F0A5FF304608F0A2FF89
:10299C004FF48053EB870A233B7002F009FE03F0DF
:1029AC0083F875E094F84830002BF6D02E4B1B685A
:1029BC009D01F2D409233B70F1E72E4B1A68636B2F
:1029CC00C8339A4204D996F80155002D5ED153E0D4
:1029DC0008F0DEFE0028F6D15AE000BF5499010839
:1029EC00FC1C0020639901086F990108809901086B
:1029FC0091990108A3990108B3990108C399010899
:102A0C00D3990108E4990108F5990108079A01087E
:102A1C00F7990108119A01080000C842209A010890
:102A2C002E9A0108459A01085D9A0108789A0108C6
:102A3C008D9A01089D9A0108B29A0108AE9A010874
:102A4C00BE9A0108CA9A0108DD9A0108EB9A01089E
:102A5C00FB9A01080C9B01081C9B0108359B010883
:102A6C004E9B01085E9B0108CC1C0020A409002091
:102A7C004C2B0020D8230020606A04F05EFF94F8F1
:102A8C0049306562022B01D10EF03AF901233B70FB
:102A9C0008F068FE08B101233B70002323729A4BA7
:102AAC000FAD5B6828469847002800F01881069BFC
:102ABC0018780023954E032804BF56F82310944F22
:102ACC004FEA830208BF27F8131035F913100133AE
:102ADC00032BB150EED18D4894F84A20014604F0F6
:102AEC005BFBD4F84C80002140460FF00BFE70B11C
:102AFC00884B1B88002B00F0C880D4F8C030864F60
:102B0C001B7807F10C0505934FF000086DE0834B23
:102B1C0093F8505095B9824B1A68994672B17F4F11
:102B2C00404607F154012944D9F8002024350AF015
:102B3C00BAFE6C2DF3D1012387F8503094F8503045
:102B4C00002BD5D0002556F825000FF0F3FB754B64
:102B5C00242101FB05310AF073FE13F05BFA46F8F1
:102B6C0025000135032DEED1C2E7D5F800C009933D
:102B7C006146CDF81CC008900FF026FB099B8346DC
:102B8C0018460FF0D7FB014658460FF0DBFCDDF87A
:102B9C001CC0014660460FF019FB0346089A194603
:102BAC006860104607930FF00FFB014658460FF074
:102BBC0015FCA9680FF00AFB079BE8602B60A86066
:102BCC00DFF864B10023BAF1010F46F8093049F877
:102BDC000B30DFF840A12FD008F10108B8F1030F3A
:102BEC0007F1040705F1140564D04A4B56F8280088
:102BFC00B3F800A04A4B4FEA88091A684FF47A736D
:102C0C00B3FBF2F3C3EB431203EB8203DB009BB287
:102C1C009A4502BF00233B602B613B6803443B6039
:102C2C000FF088FB2B690133012B2B619DD1002305
:102C3C0068602860AB60C3E72869012807DD0138AC
:102C4C000FF078FB0146E8680FF07CFC00E00020F8
:102C5C0013F0ACFA0599324BC9B1079008460893AA
:102C6C000FF068FB079A014610460FF073FD089BA6
:102C7C0068B11A684FF47A73B3FBF2F3C3EB4312E7
:102C8C0003EB8203DB00AAF8003000231CE01A6877
:102C9C004FF47A73B3FBF2F3C3EB431203EB8203EF
:102CAC00DB003A689BB202EB530292FBF3F34BF856
:102CBC00093091E7BAF80000012801D10BF07EFC35
:102CCC00BAF80030013BDEE7174956F8232051F8DB
:102CDC002310521A46F823200133032BF4D194F815
:102CEC00183123B10D4A013B82F81831D2E30F4D54
:102CFC000021D5F8E0010FF005FDC8B995F8E831D1
:102D0C00013BDBB215E000BF380D0020981D002000
:102D1C00801200205C2B0020680A0020A4090020EF
:102D2C00FC1C0020F8090020B00A00204C240020D4
:102D3C00012384F81831984B9849B5F82622009352
:102D4C000D689749443B086896490968A847964B13
:102D5C00964ADB780893964B1E78032E17D9954B21
:102D6C00D3F81C315D88B5F5FA7F10D2924BB2F9CD
:102D7C000470B3F9040069420028B8BF40420B1A32
:102D8C009F4203DB2B18BB42A8BF3B4693808B4B67
:102D9C001B6893F807B0BBF1000F1CD08849096879
:102DAC00880715D587490978012911D9DB78864D13
:102DBC0059432D88CB1A9D4288B203DBA9420B469E
:102DCC00A8BF2B4601B209031BB291FBF3F301E040
:102DDC004FF4805304931388002705933D46D4F891
:102DEC001C313C460793069BB2F80280B2F9049062
:102DFC001B78DFF8F0A1B5424ED20FFA88F0099398
:102E0C000FF098FADAF808100FF0E8FA0690BDF90E
:102E1C0014000FF08FFADAF804100FF0DFFA069AAC
:102E2C00014610460FF0D2F9079B069093F900006B
:102E3C00404209FB00F00FF07DFADAF80C100FF0AD
:102E4C00CDFA069A014610460FF0C0F90FF08CFC33
:102E5C0011AA80B2099BBBF1000F03D0049900B2F8
:102E6C004843001322F8150011AA32F8152020B29D
:102E7C0011B2814204DC38B28142B8BF174600E07F
:102E8C001446052B04D1042D9CBF504921F8152064
:102E9C0001350AF1100AAEE7494BE71B1A689E464A
:102EAC0012F4805FBFB24348434A494B34D049497E
:102EBC00B2F806800978D0F8E421490758BFD0F859
:102ECC00E411158A58BF098A434A58BFA0F8E0118B
:102EDC0011680FFA88FCCA88364CC2EB0509CC4540
:102EEC0003DC1B680A881D8805E02A44944505DB31
:102EFC001B684D885A88A4F8E08112E0B4F9E021EF
:102F0C004A45D9BF0A881B681B684D88D9BF1D88E4
:102F1C0090465A88A84604E01B68B2F806801D88C3
:102F2C005A881FFA82FCA9B2C1EB0C053AB22DB239
:102F3C00AA422A4B24DD01241C702C0394FBF2F2D0
:102F4C004FF0000CC0F8E821B4450BD211AB33F9AB
:102F5C001C9002FB09F9C9F30F3923F81C900CF1F2
:102F6C00010CF1E7022395FBF3F3CD181C4BADB22A
:102F7C001B78062B38D1022E36D8144B5F8033E0E9
:102F8C0000241C70022492FBF4F28D18C2EB0C028C
:102F9C00ADB294B229E000BF802600206001002071
:102FAC00001D00200C0D0020841C0020EC1D0020B6
:102FBC00A71D0020A4090020881D002060120020FD
:102FCC00541C002064010020B0120020801200204C
:102FDC00181F0020622B0020141F0020AD1D0020A4
:102FEC007E120020C40A00202C46DEF80010B0F936
:102FFC00E03101F4805201F010010991AA490493C7
:10300C000978D0F8E43101F00401C9B20591A7495F
:10301C00A7480968D0F800B001F000610691A549F5
:10302C00A548B1F9061007680791DFF8CC9271003A
:10303C000A914FF0000A0A998A4551D011A93AF821
:10304C0001C00FFA88F00D920C93CDF82CC00FF044
:10305C0071F99A4951F83A100FF0C0F90FF084FB4E
:10306C0029B28842DDF82CC00C9B0D9A03DB21B2EF
:10307C008142A8BF01468C4408991FFA8CFC29F8A0
:10308C0002CF0FFA8CFC09B1B9880FE06AB1BBF81A
:10309C000600198A091A0498884203DC3988BBF89F
:1030AC00000004E0BBF8021000E0398878888C45F9
:1030BC0003DB84456146A8BF0146A9F800100999B5
:1030CC0059B1059949B142B9069931B9598A07984C
:1030DC008842BCBFB988A9F800100AF1020AAAE715
:1030EC00714B1A7802F0040202F0FF034AB17449E2
:1030FC00744F91F8EC31013BDBB2182B00F24E818E
:10310C0009E0B342F3D2704A32F813106F4A22F836
:10311C0013100133F5E701229A406D4B1340002B3D
:10312C0000F03C816B4B63481B8813F4807F08D004
:10313C00694B1A88ADF85C205A889B88ADF85E20E4
:10314C0015E0664B1A88ADF85C205A889B88ADF860
:10315C005E20634AADF860301268D20409D5D1F80C
:10316C00E421B0F90640128A944202DA5B42ADF8CF
:10317C0060305C4D4FF47A72B5F902304FF46164F3
:10318C0003F5E163534393FBF4F3A3F5FA73ADF842
:10319C007430B5F9003003F5E1635A4392FBF4F255
:1031AC004A4BA2F5FA721B88ADF87620A3F2DC53D9
:1031BC00ADF86230D1F8E43102881B8AD21AADF82E
:1031CC0064204288D21AADF866208288D21AADF8F3
:1031DC006820C288D21AADF86A200289D21AADF8DA
:1031EC006C204289D21AADF86E208289D21AADF8C1
:1031FC007020C289D31AADF872300023002227F850
:10320C0013200133082BF9D1284B37491B68374D54
:10321C000493374B1B680593364B1B78C3EBC303E6
:10322C0001EB030B594500F0A0800B783BB103F187
:10323C00150201239340049A134000F09280059BE1
:10324C0011F806CC4FF00E0E0EFB0C3EBEF9002012
:10325C00BEF9023064209B1A11F9022C9BB25A431E
:10326C0092FBF0F211F805AC4FEA530911F8034C3C
:10327C00C9EB02024FEA4A061EA892B211F8018C61
:10328C00064414B936F81C0C0CE0B5F9000036F9FC
:10329C001C6CB04232DA0444844203DBA642304652
:1032AC00A8BF2046288032E0622B0020CC1C0020D6
:1032BC00141F0020581C0020181F0020C40A0020D6
:1032CC00A4090020280900206C2A00202C1E0020B4
:1032DC0099209801C81C0020881D0020EC1D00209E
:1032EC00541C0020901D0020231F0020920B002056
:1032FC00041500201C1F00202A1E002007DD041BC3
:10330C00B44203DB8442A8BF044626462E80DEF876
:10331C000A40012000FA0AF02042B5F9006011F9C8
:10332C00040C12B200FB06F04FF0640690FBF6F0B2
:10333C0014BF4FF0FF34012490420ADB4FFA88F29D
:10334C005A4392FBF6F2C9EB020212B28242A8BFB8
:10335C000246524B33F81C9002FB049423F81C4099
:10336C0000E02B80023507315CE74D4B4D4ED3F816
:10337C00008000250E2303FB058393F9064036F9E4
:10338C00023FE8B26343642493FBF4F434800BF003
:10339C0011FB01352044082D3080EBD1424B404DC0
:1033AC001B6813F0200F33D000200BF003FB388088
:1033BC00064601200BF0FEFA3C4B384C1B6878801B
:1033CC001B0625D53A4B3B4AD3F810321B78012B00
:1033DC0021D12968B2F9003091F914E0B2F9022038
:1033EC0003FB0EFE91F906304FF0320C5B42534357
:1033FC009EFBFCFE6FF0310293FBF2F293FBFCF3AD
:10340C001FFA8EFE7244B1187344218018446080F8
:10341C002D68002319E0D5F800E0B2F902309EF9CE
:10342C0006105943322391FBF3F1314421809EF96C
:10343C001460B2F9001001FB06F292FBF3F2104497
:10344C00E5E70133082B3A5310D00E2101FB035151
:10345C0037F91300B1F900205C009042B1F9021069
:10346C00EFDB0AB28242A8BF0246EAE70BF0FAFD94
:10347C0008B10BF00DFE0E4B01221A720AE008F097
:10348C0087F900283FF404AB4FF48053E3870A23F9
:10349C00FFF7FDBA1FB0BDE8F08F00BF2809002070
:1034AC000415002026090020541C0020CC1C0020F0
:1034BC00A4090020901D00202DE9F04FA04FA14C35
:1034CC003A6889B002F59C43203323609E4B1E78EA
:1034DC00CEB19E4909688A4240F20781013E1E70B6
:1034EC0003E1DFF88882072DD8F800308CBF29461D
:1034FC00595D974B97481B689847032D09D904EBE6
:10350C004505A880013609F047FAF5B28542E8D3A3
:10351C0020E0D8F8002005F1100302EB8303998812
:10352C00DA880028EBD04FF47A73401A5843531AB8
:10353C0090FBF3F040F6C90300F57A70984205DC75
:10354C0040F2EE239842B8BF184601E040F6CA009C
:10355C0080B2D4E742F2010A7F4B804E1B68D6F84A
:10356C00008003EA0A0ABAFA8AFA4FEA5A1A7C4B22
:10357C00BAF1000F05D194F828201A70794A5178C5
:10358C0011701B782BB1774B93F8009089F00109DF
:10359C0000E099460F23DFF8ECB184F829300025C0
:1035AC0009F0FAF9854267DA6B00B9F1000F03D024
:1035BC006D4A32F8150000E048466C4ADFF8C8C185
:1035CC0011684FEA850E8A8B8242694A02D8C98BF0
:1035DC0081421CD25CF80E005A49804501D2D05A67
:1035EC0019E0E8B202928DE80A0009F0EDF9032D1A
:1035FC00019B029A0FDC00994FF0010E91F829C043
:10360C000EFA05FE2CEA0E0E81F829E003E008F50F
:10361C0096714CF80E10BAF1000F28D194F8BC102A
:10362C000322B1FBF2F202EB42028A1AD2B203EB92
:10363C00050E724404EB4202508594F8BD202AB961
:10364C00022913D93F4A012182F8BD10BBF8002092
:10365C003BF8020C1044BBF802201044454A80B2DF
:10366C00D05200B2032290FBF2F080B2404AD0520A
:10367C0001350BF1060B93E794F829203E4BA2F190
:10368C000F004242424184F8D6206AB13B4A12688C
:10369C00510109D43268D9689A60521AC82A1FD9C4
:1036AC00012283F821201BE02E4A01215170117058
:1036BC0032689968DA605B68521A9A4282BF2E4B64
:1036CC00002283F82120002509F066F9854207DAEB
:1036DC00E8B209F079F9264B23F815000135F3E728
:1036EC0094F8BC30013384F8BC301B4B1A689846F4
:1036FC0012F4805F05D0214B1B68DA0701D40BF064
:10370C007DFF1A4B3D681F68387B00283ED0184A55
:10371C00BB7B013832F810001BB1C0F53B600830A0
:10372C0080B200B2A0F57A70B0F57A7FA8BF4FF4E2
:10373C007A7020EAE0700EF0FDFD11495CE000BFEC
:10374C004C2B0020BC0B0020801C00207C1C00207B
:10375C000C010020F8290020541C0020D823002044
:10376C00AC14002000000020C00B0020501C0020D6
:10377C00581C00207A0C0020841C0020CC1C00203B
:10378C0000007A44E80B0020300C0020D8F8003000
:10379C001B043AD5D4F8D830AD4EEB1A002B34DBE1
:1037AC0005F59C432033C6F8D830AA4B5A79AA4B5E
:1037BC0033F812108AB2797B92FBF1F196F8DC2087
:1037CC00013202F00F0386F8DC30334483F8DD104D
:1037DC000346A24A825C0130134410289BB2F8D1F4
:1037EC001BB293FBF0F000B26428A8BF642020EA5F
:1037FC00E0700EF09FFD9A490EF0A4FE99490EF070
:10380C00EDFD0EF0D7FF984B1880D8F80030974E8E
:10381C0013F4807F00F0FD80954BDFF858929D42A9
:10382C0005D999F8022012B9012289F8022099F8D9
:10383C000220002A00F0ED808E4A8F4992F8215028
:10384C00086805F1FF3EDEF100053278C0F38063B5
:10385C0045EB0E05C2F3800B00938A462DB912F08E
:10386C00080F0CBF0027022700E0002799F8202042
:10387C00052A00F2CA80DFE802F0034C608594B19F
:10388C00BBF1000F38D0D4F8F000B4F8F41004F009
:10389C003FFA012809D17949794A09681268C9881F
:1038AC00642000FB0122C9F81020009B5BB1734A15
:1038BC00126812793AB10EF0BFFB032289F820206E
:1038CC004FF47A7236E0002D40F09F806C4AD9F8A4
:1038DC0010101068674A88420AD901920EF0ACFBAE
:1038EC00019A032182F8201040F6B831D161BDE76E
:1038FC00012182F82010B9E7009B4FF4806013B1CE
:10390C000AF012FB01E00AF0FFFA0022C9F81020BD
:10391C007BE0002D57D1594A1268127A012A02D045
:10392C000EF08AFBA2E70EF087FB032289F8202019
:10393C0040F6B832C9F81C2098E725B1052289F861
:10394C002020012000E02846BBF1000F0BD0D4F85A
:10395C00F0200327118A4B4A1180518091804749EE
:10396C0009684988D180464A1168D9F814209142D7
:10397C0002D8BBF1000F45D147F23052C9F81C20D8
:10398C00032221E0327842F0020232700BF036FE54
:10399C003B4AD9F81C1012680A44C9F818200422B2
:1039AC0012E0374A9DB11168D9F8182091422CD9F0
:1039BC00354A92781AB9DAF80020D00725D4327833
:1039CC0022F002023270052289F820204EE712689C
:1039DC00D9F81C100A44C9F8182016E02749284ABF
:1039EC0009681268C988642000FB01224FF48060CA
:1039FC00C9F81020002289F8202089F803200AF049
:103A0C0083FA33E700287FF431AF17B138460AF058
:103A1C00D5FD1E4FB7F8DE1007F50D7004F078F9E0
:103A2C0005461848B7F84432B0F9022003F10B01EF
:103A3C00914201902CDB0B3B934229DCB0F9002026
:103A4C00914225DB9342CCBF0023012321E000BF30
:103A5C00BC0B00206412002074120020990C002072
:103A6C000000C84200C07F44F20D0020622B0020F1
:103A7C00404B4C00841C0020CC1C0020102B002040
:103A8C00D8230020581C0020000000204C240020CB
:103A9C000023002D2ED18C4A1268110106D58B4AB9
:103AAC00D27882B9327852070DD526E0884B0022A5
:103ABC0088491A605A609A60874B01220D604D60EC
:103ACC008D601A700BE0824A0021824811605160AF
:103ADC009160814A0023036043608360137000236C
:103AEC00C4F8F830C4F8FC300023C4F80031C4F832
:103AFC00043104E0784A00231370784A1370337849
:103B0C00580732D5D8F80030D9062ED5744B1B780F
:103B1C00DA062AD4734B9B7883B197F88B329DB914
:103B2C006BB1714B1A68D4F808319B1A002B06DA6A
:103B3C000BF064FD6D4B83F80C5116E06DB9102041
:103B4C000AF03CFD01230EE03BB1674A4FF47A7159
:103B5C00126801FB0323C4F8083194F80C3123B12B
:103B6C0004F030F9002384F80C310022134697F846
:103B7C008A12B7F846E2B7F848C201989B0830F9A8
:103B8C00120001327045C4BF63F07F03DBB26045A5
:103B9C00B8BF43F04003042AEFD194F80D215348E9
:103BAC009A4205D190F80E21F92A04D8013200E08E
:103BBC00002280F80E2184F80D314A4B4B4A98783C
:103BCC000393DFF8049118BBD9F80030DB0708D554
:103BDC0082F80F01E5B93378DA0719D50BF04EFBF3
:103BEC0016E033785B0713D5414B1B7883B1374B09
:103BFC00DB786BB992F80F310133DBB2032B82F80F
:103C0C000F3105D911B10BF0F9FC01E0002DFAD000
:103C1C0094F80E31354D142B40F08080039B9B782B
:103C2C008BB195F80D315F2B0DD1337803F0040374
:103C3C0003F0FF0A13B10BF0E1FC04E00B200AF0D7
:103C4C00BDFC85F80EA1337803F0040303F0FF01EB
:103C5C00002B63D194F80D31244A572B0DD1254BF1
:103C6C001A684FF47A73B3FBF2F3C3EB431203EB12
:103C7C008203214ADB00138050E0D8F8000045078E
:103C8C0017D55A2B15D192F810312BB1012382F88C
:103C9C00101182F8113141E092F8123183F00103D6
:103CAC0082F812310BB10C2000E00D200AF086FCDA
:103CBC0034E05D2B00F018855B2B00F017855E2B34
:103CCC001CD1032000F013BDCC1C0020841C002050
:103CDC00F82A00207C1D0020F21D0020AC1D0020C5
:103CEC00F40D002000000020D8230020BC0B002085
:103CFC00AC140020FC1C00205C2B0020562B01D1A6
:103D0C000AF02AFA039B9B78002B00F0F68494F8B7
:103D1C000D316F2B40F0F1840BF0B0FAD8F8003075
:103D2C00580738D594F81231B54A9BB133785907F6
:103D3C0010D5019BB3F90610B7F84632994209DD4C
:103D4C00D9F8003013F0010302BF3221A2F816118A
:103D5C0082F81231D9F80030DA030DD594F8182115
:103D6C00A74B2AB993F8102112B93222A3F81621C5
:103D7C00012384F818310EE094F81031A04A53B1A5
:103D8C00337803F0040303F0FF0123B9012382F815
:103D9C00101182F811319B4D0023C9F8003005F148
:103DAC00500A2A786B7815F8010C9A420DD22946E4
:103DBC0003F076FF48B115F8022C012303FA02F246
:103DCC00D9F800301343C9F8003004355545E8D113
:103DDC008D4B1B7843B18D4DDFF848922B6813F057
:103DEC00020F40F0E881DFE1894D05F15A092A788C
:103DFC006B7815F8010C9A4225D2294603F050FF36
:103E0C0008B3AB78834A013B03EB430395F804E01A
:103E1C0013440C2202FB0E42D2F8201195F803A099
:103E2C00994277480FD0C2F820310023C2F82431D0
:103E3C0082F81CA1012390F84C2103FA0EF322EA1C
:103E4C00030380F84C3106354D45D0D1724BD4F874
:103E5C0050511B68DFF8D0B10293704B1B78049360
:103E6C0000230093DBF80010002900F0948191F8F6
:103E7C000090B9F1000F00F08E81DBF80430029A4B
:103E8C00D31A002B0CDB02F5FA73009ACBF8043032
:103E9C000123934094F84C2122EA030384F84C311B
:103EAC00049B002B00F077811BF8042C4B78043218
:103EBC00D2B2002B40F03881019B33F91220584BC1
:103ECC00B3F8443203F1C800824202DD91F802A03B
:103EDC0015E0C83B9A4203DA8978C1F1000A0EE07A
:103EEC00009A0123934094F84C2122EA030384F8AE
:103EFC004C31029B03F5FA73CBF804304BE1009B79
:103F0C0094F84C211A41D30700F14581BAF1000F06
:103F1C00CCBF0220012003F03BFF09F1FF31384AEE
:103F2C00132900F23081DFE811F01400250036006F
:103F3C004A00630081009F00BC00D900E500F3003B
:103F4C002E014A00590081009F00BC009200AF0076
:103F5C00CC0095F800902846D144B9F1FA0FA8BFCF
:103F6C004FF0FA0929EAE97985F8009003F07EFE12
:103F7C00012022E095F801902846D144B9F1640F54
:103F8C00A8BF4FF0640929EAE97985F8019003F09C
:103F9C006DFE022011E095F803902846D144B9F14A
:103FAC00640FA8BF4FF0640929EAE97985F80390FA
:103FBC00D2F8541103F000FE03204946A5E06979BC
:103FCC000D2051446429A8BF642121EAE171697173
:103FDC0003F0BEFEB9F10D0F00F0D58029790E204B
:103FEC0051446429A8BF642121EAE17129718CE054
:103FFC00A9790520514481F30801A97185E000BF1E
:10400C00BC0B0020A3280020612B0020CC1C00201E
:10401C00F2280020C47B0108D8230020AC14002017
:10402C004C240020381C0020DC0C0020D2F8582135
:10403C000F2091785144C829A8BFC82121EAE17109
:10404C00917003F085FEB9F10F0F00F09C80AC4A23
:10405C001220D2F8582151785144C829A8BFC82140
:10406C0021EAE171517050E0D2F858211020117BF7
:10407C005144C829A8BFC82121EAE171117303F08A
:10408C0067FEB9F1100F7ED09D4A1320D2F858214B
:10409C00D17A5144C829A8BFC82121EAE171D17253
:1040AC0033E0D2F858211120917D5144C829A8BF82
:1040BC00C82121EAE171917503F04AFEB9F1110FA3
:1040CC0061D08F4A1420D2F85821517D5144C8290F
:1040DC00A8BFC82121EAE171517516E0D2F8582128
:1040EC000920D1785144C829A8BFC82121EAE1711F
:1040FC00D1700AE0D2F858210A20517B5144C829CA
:10410C00A8BFC82121EAE171517303F021FE3AE006
:10411C00D2F858210B20D17D5144C829A8BFC82101
:10412C0021EAE171D175F0E7012B2CD1019B887844
:10413C0033F91230B3F5617F05DB40F6330293425D
:10414C00A8BF134601E04FF46173B9F10C0F1AD1FB
:10415C004FF4966292FBF0F0A3F5617393FBF0F3CE
:10416C00684ADBB212789A420DD01846059309F0D2
:10417C001DFF059B4846194603F0EAFD059B581C9C
:10418C00C0B203F005FE009A0123934094F84C2131
:10419C00134384F84C31009B0BF10C0B0133042BB3
:1041AC0000937FF45FAE16E6D8F80030D8050FD533
:1041BC00554BDB7863B1D9F80030990708D5534BD0
:1041CC001B8813F0010A08D1012009F0ADFE04E0B0
:1041DC00012009F099FE012300E000232A68520710
:1041EC000BD553B1012009F08FFE484B1B88980763
:1041FC0006D4022009F098FE02E0022009F084FEA9
:10420C00D9F8003013F00A0F2FD02B68D9060FD530
:10421C003E4B1B885A070ED4042009F085FE3C4BFC
:10422C000A22B3F9043093FBF2F3A4F85C3102E0F8
:10423C00042009F069FE2B689B0607D5334B1B88BD
:10424C00580606D4402009F06FFE02E0402009F029
:10425C005BFE2B68590641BF2D4B0A22B3F9043083
:10426C0093FBF2F348BFA4F85E312B684FF48070D7
:10427C001A0502D509F058FE01E009F045FE254B60
:10428C005A799946082A01D00E2A02D1402009F009
:10429C003BFED8F800305B0518D599F8C8321BB92D
:1042AC00337813F0040F02E02B6813F4002F09D0BD
:1042BC00194B00221A703C200CF0FEFD30B108F0B6
:1042CC009BFCF8E705F0C0FE0CF01AFD012384F806
:1042DC006031019BB3F90620D4F8503159898A42D8
:1042EC001CDBB2F5FA6FDE79BFBF531A7343A1F52D
:1042FC00FA6693FBF6F6ACBFC6F1640664360EE0C4
:10430C00BC0B00204A1C0020841C0020C81C002070
:10431C00901D00204C240020042A0020642697F9CC
:10432C00D831B7F844529BB297F822C297F823823F
:10433C000193002140F2E630B94B4FEA410933F9C1
:10434C00113000935B1B03F2F314844203D8002B4F
:10435C00B8BF5B4201E04FF4FA7302294FF06400DE
:10436C00B04C20D0BCF1000F04D06345CCBFCCEBDB
:10437C000303002393FBF0F7DFF8E8A26FF0630B65
:10438C003AF817E00BFB073301373AF917700FFABD
:10439C008EFBCBEB070B0BFB03FB9BFBF0F0704492
:1043AC0024F8090022E0B8F1000F04D04345CCBF3B
:1043BC00C8EB0303002393FBF0F09B4F6FF0630AF1
:1043CC000AFB003307EB400E07EB4000BEF962E13D
:1043DC00B0F96401CEEB0000434393FBFAFA019B66
:1043EC00CEEB0A0E0EFB03FEA4F804E08F4B8D48B7
:1043FC005E54009B0131AB42BEBF30F809305B42CA
:10440C0020F80930032995D1894B8A4E1F6817F47F
:10441C0080570DD0B2F57A7F05DBB2F5FA6FA8BFE5
:10442C004FF4FA6201E04FF47A72A2F57A7212E05C
:10443C00B6F846128A4205DBB2F5FA6FA8BF4FF404
:10444C00FA6200E00A46521A4FF47A735A43C1F5E5
:10445C00FA61B2FBF1F24FF0640C92FBFCFE764B6E
:10446C006FF0630833F81E1008FB0E220EF1010EDC
:10447C0033F91EE00BB2C3EB0E0E0EFB02F292FBF5
:10448C00FCF30B449BB2C380B7B16C4A1268970023
:10449C0012D56B4AD2787AB9A3F57A731BB21A0388
:1044AC004FF47A7392FBF3F3C5F5FA6109B24B43FF
:1044BC0005EB23355B4BDD80624B5B4D1B8803F0BA
:1044CC0040039FB2002F43D05F4B0A20B3F9043056
:1044DC0093FBF0F0B5F85E31C01A00B20DF02AFF74
:1044EC005A490DF07BFF5A4980460DF06FFE09F0DA
:1044FC009AFC8146404609F096FC8046B4F90200CD
:10450C000DF018FF8246B4F900000DF013FF494678
:10451C0083460DF063FF4146009050460DF05EFF60
:10452C00009B014618460DF04FFE0EF01DF9494652
:10453C00208050460DF052FF4146814658460DF002
:10454C004DFF014648460DF041FE0EF00DF960801E
:10455C0096F84B0200285AD0002F58D195F870319C
:10456C00314E834213D086F870010DF0E3FE3749CB
:10457C000DF034FF364907460DF028FE09F053FCC8
:10458C00344B5860384609F04EFCC6F87401B4F947
:10459C0000000DF0CFFE039B8046B4F90400D3F865
:1045AC0004900DF0C7FE4946824640460DF016FFBA
:1045BC00D5F874710646394650460DF00FFF01468A
:1045CC0030460DF001FE0EF0CFF8234EB0F5FA7F19
:1045DC00A8BF4FF4FA70B042B8BF304649462080AD
:1045EC0050460DF0FBFE3946814640460DF0F6FE76
:1045FC00014648460DF0EAFD0EF0B6F8B0F5FA7F2C
:10460C00A8BF4FF4FA70B042B8BF3046A080134B2D
:10461C001A78560728D5124B1A689B8853615AE0B2
:10462C00581C0020881D0020BC0B0020A41D00205D
:10463C00541C00204C240020E2130020CC1C002031
:10464C00841C0020C81C0020901D002035FA8E3CD4
:10465C00DB0FC93F000000200CFEFFFF622B002087
:10466C00AC1C0020FA13002046490968CC0702D57F
:10467C0095F8781111B142F001021A70424AB5F85E
:10468C001411127810075EBF1A7822F001021A700A
:10469C003E4A19B13E490968890706D43D49098843
:1046AC0019B93D480088642806D9022111701A787E
:1046BC0022F001021A7005E01B78DB0756BF0223BB
:1046CC001170137009F0FAFF344B1B68C01A0028E4
:1046DC0001DB08F0CFF9D5F88431002B4ED03048EF
:1046EC0009B0BDE8F04F1847012000E00220013866
:1046FC00C0B209F01FFDFFF711BB94F80D31972BD9
:10470C0006D1284B4FF4C872A3F81421FFF706BB4F
:10471C00A72B06D11C4A137843F004031370FFF740
:10472C00FDBA0022BB2B079201D1022303E0B72B69
:10473C0004D14FF6FE73ADF81E300AE0BE2B01D14A
:10474C00022304E0BD2B7FF4E9AA4FF6FE73ADF80B
:10475C001C30BDF81C20B7F8F0311344A7F8F03129
:10476C00BDF81E20B7F8F2311344A7F8F23109F066
:10477C00F3FC002384F80E31FFF7D0BA09B0BDE882
:10478C00F08F00BFCC1C0020F40D0020A81C0020D2
:10479C00381C00205C2B0020361C0020C41C002080
:1047AC00640D0020BC0B00202DE9F04F85B005F006
:1047BC004BFC6B4B1F78002F40F0AE85694D2B687E
:1047CC00590540F1A985684B684CB3F8DE80237815
:1047DC00674E002B00F08F8132686368D31A7C2BF4
:1047EC0040F28981237A62600133237207F124003D
:1047FC00DFF87891C0B205F017FC09F10C0353F8FF
:10480C0027000DF097FD5B4B824618880DF092FD4A
:10481C00014650460DF096FE57490DF0DFFD0DF0A8
:10482C00A3FF013700B205F0EDFB032FDED13020E2
:10483C0005F0FAFB002005F0E5FB05F0EDFB99F81F
:10484C00087017F0030724D141F28833D9F80420FB
:10485C009A420BD9102005F0E7FB384605F0D2FB45
:10486C00212005F0E1FB384605F0CCFB142005F0C7
:10487C00DBFB424BB3F904000A2390FBF3F005F089
:10488C00C1FB1C2005F0D0FB002005F0BBFB05F0A4
:10489C00C3FB237A5A0740F00A81022005F0C4FBBF
:1048AC00324B4FF00509B3F918000A2390FBF3F0D3
:1048BC0005F0A8FB324B0320B3F9067005F0B4FBEE
:1048CC0097FBF9F72F4BBFB21B785B070BD52E4824
:1048DC00414603F01DFA20B92B6813F0100F18BFD6
:1048EC00002738B205E0294B1B68D889B0FBF9F0DA
:1048FC0000B205F087FB2B689F0740F1A680DFF81C
:10490C009090DFF8908099F80010B8F8002064239C
:10491C0003FB02124B00B2FBF3F3678B06203F0143
:10492C00BFB247EA0327BFB2C3F303231F4305F00B
:10493C007BFB38B205F066FB638B99F800200133E2
:10494C009BB293FBF2F102FB1133E16963838B7B26
:10495C00012B21D1392005F067FBB8F900003DE0AF
:10496C00612B0020541C00204C2400204C0D0020F6
:10497C00D82300200800002000007A44901D00205D
:10498C00881D0020622B0020802600206012002051
:10499C0064010020B0120020B8F800706E237B4335
:1049AC00152793FBF7F7CB7BBFB20BB197FBF2F755
:1049BC003A204FF0640905F037FBB7FBF9F809FB17
:1049CC0018770FFA88F005F01DFB3B2005F02CFB47
:1049DC00B8B2471D0A2097FBF0F000B205F012FBAD
:1049EC00282005F021FB236A0A2093FBF0F000B28B
:1049FC0005F008FB042005F017FBBD4BDFF8FC822B
:104A0C001B68D8F82400DF894FF6FF739842A8BFC3
:104A1C001846AFB10028ACBF381A38460DF08AFCE6
:104A2C00B4490DF0DBFC804638460DF083FC0146A2
:104A3C0040460DF087FD0DF097FE6428A8BF64205A
:104A4C0020EAE07000B205F0DDFA03A9AA4805F0EF
:104A5C00AFFA132005F0E8FABDF90C0005F0D2FA14
:104A6C001B2005F0E1FABDF90E0005F0CBFA23206E
:104A7C0005F0DAFA4E2005F0C5FA03A99E4805F0B8
:104A8C0097FA122005F0D0FABDF90C0005F0BAFA2D
:104A9C001A2005F0C9FABDF90E0005F0B3FA222070
:104AAC0005F0C2FA452005F0ADFA05F0B5FA237A07
:104ABC00282B20D1914B002230681A724FF47A7354
:104ACC00B0FBF3F84FF03C09172005F0ADFAB8FB3A
:104ADC00F9F7B7FBF9F009FB1070000200B205F012
:104AEC0091FA182005F0A0FA09FB178000B205F026
:104AFC0089FA05F091FA94F82830804F002B00F0D9
:104B0C00B48009F0DBFDFB6A7D4AC31A93428046F0
:104B1C003BD9002387F8323087F83430794B1B8827
:104B2C00DAB21B0A87F84E2087F84F3087F84420FA
:104B3C0087F84530FA6D33689A1A3B6E197C4FF43E
:104B4C007A734B439A420DD36F4B1B68FB656F4BCB
:104B5C001B78013B012B9FBF102387F832300223B7
:104B6C0087F83430226A636A0A2192FBF1F293FBD4
:104B7C00F1F384F84C2084F8503012121B1284F894
:104B8C004D2084F85130C4F82C8094F864A05B4F0D
:104B9C00BAF1000F0ED1F86E09F029FE012809D9DF
:104BAC000228DFF86C9100F08B8305F0F3F90123F8
:104BBC0089F80230276F514B002F56D093F86420A0
:104BCC003AB140F6B7319A6FC2EB08028A4214D858
:104BDC004BE0012283F86420DA6FD86E1278022A37
:104BEC0004D80430022105F0BFF902E0022109F0DB
:104BFC00F5FD002384F8803035E093F8742092B9E9
:104C0C001A6783F86420DA6FD86E1278022A04D8F7
:104C1C000430012105F0A8F902E0012109F0DEFDC4
:104C2C0005F0B8F91FE0013AD2B283F8742093F87A
:104C3C00801093F881003AB901304A1C83F8810046
:104C4C0083F88020D86E0CE03A4612F801EB013064
:104C5C000EEB0107714683F88100D86E83F88070E3
:104C6C001A6709F0C7FDC4F8788094F88220376879
:104C7C00224B002A00F05781D3F88420002A00F040
:104C8C00528193F88830013B012B00F24C81D4F80F
:104C9C008400DFF8688009F0AAFDE0B1D8F8840040
:104CAC0009F0A2FD98F8893081467E2BD6F800A039
:104CBC000ED102231B2888F8883009D1D8F884003B
:104CCC0009F095FD20B90123C8F88CA088F8903024
:104CDC0084F88990DBE7D8F88C2033689B1A41F66E
:104CEC005832934231D9032388F888301BE100BF36
:104CFC00601200200000C842809698004C0D0020E5
:104D0C003F0D0300B0120020D8230020341C0020DB
:104D1C0008000020AC4A32F8130010B903464FF4D7
:104D2C0003600133B0F5826FDBB200F0D2806CD837
:104D3C00B0F5007F00F0928018D9B0F5047F1ED139
:104D4C0084F891302B6898077AD494F8901094F8E2
:104D5C009130002900F0E5803268D21B012AD9D9A4
:104D6C0084F89130002384F89030DCE0B0F5807F3B
:104D7C0000F09280B0F5887F00F08E80E9E7B0F506
:104D8C00806FE6D184F8913094F898308F4A0133D3
:104D9C00DBB2032B88BF012382F8983042F21073E8
:104DAC0094F8981059438A4B1B78D80748BF0131A7
:104DBC009A0748BF02315807864B48BF04311B88FD
:104DCC00DA0748BF0A31980748BF14311A0648BFA2
:104DDC002831D80548BF28315A0748BF6431180715
:104DEC0048BFC8319A0548BF01F5C871980648BF3D
:104DFC0001F57A71DA0648BF01F5FA61580648BF29
:104E0C0001F57A614FF4806084E0B0F5E26F59D01F
:104E1C0009D8B0F5C06F2FD0B0F5E06F99D184F8F8
:104E2C009130E16851E0B0F5046F3ED0B0F5116FF0
:104E3C0062D0B0F5E46F8CD184F89130616944E0B4
:104E4C00624BD3F89430DA7B634B1B881AB1634AFC
:104E5C00117893FBF1F34FF404702BE084F891304C
:104E6C002B68DFF8688119057FF56FAFD8F8203013
:104E7C000A2193FBF1F109E084F891302B68DFF8FB
:104E8C004C811A057FF561AFD8F8241000F014FF9F
:104E9C00002388F8903058E784F89130504B1B6809
:104EAC005B077FF552AF002134E084F891304D4B15
:104EBC00B3F904300A21594300F0FEFE002384F8B4
:104ECC00903042E7216984F891302C2391FBF3F167
:104EDC00F2E784F89130424B1B6813F020087FF402
:104EEC0034AF2B681A067FF530AF414600F0E4FE74
:104EFC00364B83F8908028E784F891302B689B0719
:104F0C007FF523AF344B354A19880A234B4311786C
:104F1C0093FBF1F100F0D0FE2C4B002283F8902093
:104F2C0013E784F8913094F89930284D002B00F059
:104F3C00AF80D5F89C30002B00F0AA803668D5F8ED
:104F4C00A030F31A632B40F2A380DFF89880412045
:104F5C0000F099FEB8F902000A2790FBF7F080B236
:104F6C0000F088FEB8F9000090FBF7F080B200F07A
:104F7C0081FEB8F9040090FBF7F080B200F07AFEE5
:104F8C0000F05EFE95F8A45015F001055BD1114BB5
:104F9C001B88D90529D4DA060DD49F060DD45806E2
:104FAC000DD419070DD4DA071ED413F0020F14BF59
:104FBC000325012519E00D2517E0092515E0042529
:104FCC0013E0082511E000BF2E9C01084C0D0020B9
:104FDC00622B0020C81C0020B012002064010020AD
:104FEC00381C0020901D00200225CD4B1F78CD4B86
:104FFC00C7F38007DB7813B147F00207FFB25320E9
:10500C0000F041FEC84B188800EB800000EB8000DC
:10501C00800080B200F02EFE002000F02BFEB4F8D1
:10502C00A600FE23584340F2FF3390FBF3F0C0B2CE
:10503C0000F010FE002000F00DFE47EA850000F0A5
:10504C0009FE00F0FDFD94F8A430A3B94F2000F048
:10505C001AFE0BF021FE0BF01FFE0BF01DFE0120C3
:10506C0000F0F8FDB14B93F8A80000F0010000F03F
:10507C00F1FD00F0E5FD94F8A4300A210133DBB218
:10508C00B3FBF1F201FB1233C4F8A06084F8A43036
:10509C00A74D95F80080A946B8F1020F40F0F880B2
:1050AC0009F00CFBA34B1F6840F6B833C71B9F429B
:1050BC0007D900232B70B4F8AA300133A4F8AA3016
:1050CC002AE19D4D2B793A2B40F0F6802846A978A1
:1050DC0002F06EF9002840F0EF80934B974E1B883E
:1050EC00D4F8ACA0F361236AF063F362636AF766E9
:1050FC00F364B4F8AA305046F36505F0CAFBDFF848
:10510C002CB20746002840F0C3805046414609F0B7
:10511C0065FB042386F874309BF8B03095F803A037
:10512C00642BDFF82C824BD19BF8B130072B08BFD6
:10513C008BF8B17094F8B15006EB0513596803F174
:10514C00040B0846019110F066FDDBF80430C7B281
:10515C001846009310F05FFD5FFA80FB07EB0B0223
:10516C00083288F8072025F00F0288F80A2005F08D
:10517C000F0288F80D200BEBC70288F80E2001995E
:10518C003A466F4810F0DEFC009B07F109006D4FAA
:10519C0019465A46384410F0D5FC98F807B05846D2
:1051AC0010F0A4FC7A1C02F80B00504610F07EFCA8
:1051BC00002384F8B0306B1C84F8B13000234FE02E
:1051CC00614A96F8755017462B0704BF0135EDB2AE
:1051DC00072D4FF0000328BF012588F80A3028015D
:1051EC0031180B7C02F1010E40EA030C82F800C06E
:1051FC00DFF860C1C9681CF80320012A0EF1010315
:10520C0006D9013A03F8011C9E46090AD2B2F4E70A
:10521C003044407C013521F06001EDB20143082D92
:10522C001A468EF8001009D04448D91B00EB051023
:10523C00007C1CF8000001441329D0DDDF1B06376D
:10524C00FFB247F0400388F80730384610F04EFCA8
:10525C003E4B86F87550D855504610F027FCADE7FC
:10526C0098F802205D1CDBB29A4207D9384AD4F870
:10527C00AC00D15C09F0BEFA2B46F1E794F8B030E3
:10528C000322013386F8742084F8B03089F80020AA
:10529C002A4D95F87430032B3ED1D4F8AC0009F0AC
:1052AC00A0FA002838D0214B0121D3F8AC0009F02A
:1052BC0095FA022385F87430002389F800302BE02E
:1052CC0099F8023023B1C7F8688089F802A071E41C
:1052DC00BB6EC3EB0803B3F57A6FFFF46BAC012321
:1052EC00F86E89F8023009F07FFA8146F86E09F001
:1052FC007BFA19F07F0F7FF45DAC8E287FF45AACEB
:10530C0097F86430002B7FF455AC07F130033B6702
:10531C002D2387F874304DE405B0BDE8F08F00BF45
:10532C00622B0020841C0020B01200204C0D0020A9
:10533C009B110020D4110020C8110020080000206F
:10534C0030240020272400202E2400202824002094
:10535C00212400209F9C0108324B334A1B681268A1
:10536C0010B51A60314A1168596051689268996099
:10537C00DA602F4A116819615168926859619A6113
:10538C002C4A1168D9615168926819625A622A4A8A
:10539C0011881985518859859188D2889985DA8523
:1053AC00264A116819865168598692689A86244A49
:1053BC001168D9865168926819875A87214A1188D1
:1053CC0099875188D9879188D288A3F840101946BB
:1053DC0021F8422F1C4A10780022824206DA1B4C1C
:1053EC0034F81240013221F8024FF6E7184A1288BD
:1053FC00A3F86C20174A1288A3F86E20164A11687D
:10540C00A3F8701051689268A3F87210A3F8742076
:10541C00124A1288A3F87620114A5289A3F8662002
:10542C0010BD00BF3C2100204C2B0020F41D00209F
:10543C00001E00200C1E0020881D0020981D00203E
:10544C00580D002080120020A71D00202C1E0020CB
:10545C007C120020D8220020202B0020F20D0020EE
:10546C00280900202DE9F84305460E460D4B002473
:10547C0093E88003B44213DA7B1933F9140008EB78
:10548C00050333F9142009EB050333F91430013407
:10549C001344022293FBF2F3C01A06F02BFAE9E74D
:1054AC00BDE8F8833C21002010B5104B014693F861
:1054BC000135012B12D10E4A0E4C1078431CDBB275
:1054CC0013701B0644BF00231370215405F090F891
:1054DC003F2809D9BDE8104005F068B8064BBDE877
:1054EC001040186809F086B910BD00BF4C2400208C
:1054FC00E0190020E2190020C80900207FB5254CD6
:10550C00254E264D2649274A274B20B1274800888F
:10551C00B0F5805F2FD2306891F82010127801908E
:10552C0028781C4D1B788DF808008DF809108DF823
:10553C000A2001A8294608228DF80B3010F0F2FA47
:10554C0028B301AB03CB286069605320FFF7ACFF95
:10555C00206806F0BFF9207906F0BCF9637901A840
:10556C000193A3790293E379039306F023F90F4B8C
:10557C0000221A800BE0306891F82010206012781D
:10558C0028781B7820716171A271E371DDE704B09A
:10559C0070BD00BFFE0D0020CC1C0020F40D0020BF
:1055AC00841C0020AC140020920C0020E209002086
:1055BC002DE9F04FC34C8BB02088DFF83C830028DA
:1055CC0040F0A98098F8FF34012B05D198F800051C
:1055DC00A0F1200460426041BB4D00F00100FFF7D8
:1055EC008DFFFFF7B9FE2C6849202646FFF75CFFBC
:1055FC00B64B04F11C09186806F06CF956F8040B4C
:10560C0006F068F930460BF056FB04F110000BF075
:10561C0052FB1027AE4E01233268BB40134203D01D
:10562C00D9F8000006F066F90137132F09F10409C7
:10563C00F0D1032104F1280006F060F9B8F8D0305D
:10564C00B4F92E00C01A06F045F93368D90408D510
:10565C00A04BB4F86C001B88181AC0F30D0006F0B0
:10566C0039F933689A0403D5B4F86E0006F032F9B0
:10567C0033685B0504D504F17000032106F03EF994
:10568C0033681F0403D5B4F8760006F023F92746D7
:10569C0004F13000032106F031F904F13600032146
:1056AC0006F02CF904F13C00042106F027F937F937
:1056BC00440FB8F8D0304FF00109C01A06F00AF9BF
:1056CC00854B1B78994509DA37F9020FB4F9443048
:1056DC0009F10109C01A06F00DF9F1E733689E05CE
:1056EC0005D5B4F96600A0F2DC5006F003F92A687F
:1056FC007A486A60AA60121AD110794A4A43531C3C
:10570C00032293FBF2F202EB42029A1A782303FB78
:10571C0002032B60B4E1734B1D68734B1A689542FE
:10572C000ED01D60714B1B78093B012B08D845200E
:10573C00FFF7BAFE0020FFF7B7FE284606F0CAF8BE
:10574C006B4B1D686B4B1E68B54211D01D60674BCF
:10575C001B78093B012B0BD84520FFF7A5FE1E201B
:10576C00FFF7A2FE284606F0B5F8304606F0B2F870
:10577C0098F8FF14238898F800050B44013BB3FB01
:10578C00F0F200FB12338B4280F07D814E4F0120F2
:10579C00FFF7B4FEFFF7E0FD50203E687D68FFF791
:1057AC0083FEBA683B6810681B687A68034410680B
:1057BC0006F11C0BA3EB400006F09CF86A687368BA
:1057CC0002A89B1A0293AA68B36805F11C099B1ADC
:1057DC000393EA68F36810249B1A04930BF06BFA9A
:1057EC002A69336902A89B1A02936A6973699B1A26
:1057FC000393AA69B3699B1A049305F0DBFF344940
:10580C0001220B68A2401A42019106D0DBF800007D
:10581C00D9F80030C01A06F06DF80134132C0BF1D6
:10582C00040B09F10409EAD106F1260005F1260161
:10583C00002331F9024F30F9022F121B02AC44F84D
:10584C0023200133042BF4D103214FF0000A4FEA3B
:10585C008A035FFA83FA02AB53F821206AB102F192
:10586C0008000F2802D84AF0010A06E08032FF2A0D
:10587C0094BF4AF0020A4AF0030A11F1FF31E6D252
:10588C0050460024FFF710FEA1460DF1080B0AF05C
:10589C000302022A32D0032A39D0012A54D1B9F199
:1058AC00000F05D1DBF8004091462401E4B24BE037
:1058BC00DBF800004FF0000900F00F002043FFF769
:1058CC00F3FD41E0E40900203C210020E809002020
:1058DC00DC090020E0090020A71D00204821002041
:1058EC00EFEEEEEEE8220020B42200200814002097
:1058FC00CC1C0020B82200204C240020B9F1000F51
:10590C000CD0DBF80000C0F30310204316E0B9F113
:10591C00000F08D19BF80100FFF7C6FD9BF80000B3
:10592C00FFF7C2FD10E0DBF80000C0F303302043AA
:10593C00FFF7BAFDDBF80000C0F30710FFF7B4FD6A
:10594C00DBF800402401E4B20BF1040B06AB9B45E1
:10595C004FEA9A0A9BD1B9F1010F02D12046FFF709
:10596C00A3FD019B1B6813F480541FBFB6F86C2079
:10597C00B5F86C100124521A18BF029298040AD57B
:10598C000AAA02EB8401B5F86E00B6F86E20013459
:10599C00121A41F8202C590513D502AA02EB840CDB
:1059AC0006F16E0E05F16E0000223EF9021F30F971
:1059BC00029FC9EB01014CF822100132032AF4D1E9
:1059CC0003341A040BD50AAB03EB8402B5F876103A
:1059DC00B6F8763001345B1A42F8203C00E0FCB19A
:1059EC00012C03D1029805F085FF19E0631E0020FD
:1059FC0002AA52F823204000C0B20AB140F00100C4
:105A0C00013BF5D5FFF750FD4FF0000902AB53F801
:105A1C00290008B105F06EFF09F10109A145F5DB7C
:105A2C0030200321FFF71EFD36200321FFF71AFD5E
:105A3C003C200421FFF716FD174B44201978FFF783
:105A4C0011FD019B1B689B0506D5B6F96600B5F9DF
:105A5C006630C01A05F04EFF3A6810487B687A60D1
:105A6C00121AD1100E4ABB604A43531C032293FBFB
:105A7C00F2F202EB42029A1A782303FB02033B6018
:105A8C00084B01221A7098F80135012B01D104F052
:105A9C008DFD0BB0BDE8F08FA71D00204821002024
:105AAC00EFEEEEEEB80B00200A4A13880133138098
:105ABC00094A136801331360084A138801339BB2F7
:105ACC00202B01BF00231380054A138808BF013324
