:020000040800F2
:1000000000500020C94C0108694D01083DFC000862
:10001000694D0108694D0108694D010800000000A3
:10002000000000000000000000000000694D010811
:10003000694D010800000000694D01082701010811
:10004000694D0108694D0108694D0108694D0108B4
:10005000694D0108694D0108D16A0008CF6A00089E
:10006000694D0108694D0108694D0108694D010894
:10007000B5000108A5000108C5F50008694D010893
:10008000950001082DAF0008694D0108694D010870
:10009000694D0108694D0108694D0108CD6A0008E4
:1000A000694D010891F30008694D0108A1F30008AA
:1000B00085F3000875F3000865F30008B95A0008D5
:1000C000BD5A0008B15A0008B55A0008694D010828
:1000D000694D0108B9F50008ADF50008A1F5000863
:1000E00035010108694D0108694D01080000000053
:1000F0000000000000000000000000000000000000
:0C01000000000000000000005FF808F1A3
:100110002DE9F04F9B4BDDB01E780293002E00F0CE
:10012000DC80994B1868002801F0C7870AF0C6FEEA
:10013000964C206810F08DF8002801F0BE872068EA
:1001400010F084F80928924C01D03F2849D14FF093
:100150000008464627688F4D2FB18F4829683A46D8
:1001600016F054FF10B9A84606B92E468B4B103531
:100170009D42F1D3C6B1D6F800E0D8F800C023689C
:100180001EF803501CF80300A8420DD15A1C8249E6
:1001900038B92D2B05D87E4D2A602025CD548854A2
:1001A00002E0CD542260EAE723680BB146450FD048
:1001B0007B4812F0B5FB464507D856F8100B12F0F5
:1001C000AFFB092012F03EFAF5E709F0B5F9002778
:1001D00023689F42ACD2704BD85D12F033FA0137DE
:1001E000F6E72368002B41F0ED86042841F03E87B6
:1001F000694809F085FB01F060BF2068DFF8C08125
:1002000010F027F8002851D0D8F8000010F01EF8A0
:10021000DAF80030834693F84820002A77D1242862
:1002200040F0D680012283F84820DAF8003093F8B5
:100230004880B8F1060FE0D193F849004D2800F04E
:10024000918500F2C181322800F0AD8500F25D8118
:10025000242800F03E8500F21181032800F062821C
:1002600040F2EB80052840F0FD801A200DF088FA5E
:1002700000244C4B185D01340DF03DFA0B2CF8D1E5
:100280000024494B185D01340DF035FA082CF8D1E3
:100290000024464B185D01340DF02DFA072CF8D1DF
:1002A0000DF03AFA3B68002283F84820D9F80000A4
:1002B0000AF004FE3E4B93F8303053B13D4B985951
:1002C0000AF0DAFB10F040F80EF0BEFC3A4A3B4B65
:1002D000DA604C36982E01F0F086364A354BB2582B
:1002E000F318002AF5D0364C364F2260364D159261
:1002F000DFF8D89000223B608DF8592014AB14220F
:1003000014958DF85820C9F80030BA4675E7012ACF
:1003100004D14D2814BF0022022284E7022A04D10E
:100320003C2814BF002203227DE7032A0AD140287B
:100330004FF000029FBF1A71DA715871987198BF1F
:10034000042270E7042A08D19A7983F8490080EAE8
:10035000020B83F806B0052265E7052A7FF465AF36
:1003600059791A799142997906D941409971511C6C
:1003700019711344187258E781420CBF06220022FB
:1003800051E700BFBE310020E02A0020FC2A0020F7
:10039000F415002020B50108C415002010B701088D
:1003A0008AB80108F2B80108FEB8010807B90108C7
:1003B00028090020F03000200400FA0500ED00E0DC
:1003C00058200020502000205F0201085420002007
:1003D000DA4A137803F0040303F0FF00002B7FF4E4
:1003E00024AFBBF1230FD8F8001019D10192029A63
:1003F00001231370D24B1960D24B19609960102100
:100400001973D14958735D60D04804330B6012F002
:1004100087FA09F091F8019A137843F002031370F8
:10042000CB4B1B681B785B4501BFCA4ACA4B1A609D
:10043000CA4A04BFCA4BDA60F7E6012800F06681B9
:10044000022840F0D78504200DF09AF942200DF0E3
:1004500052F954200DF04FF946200DF04CF94C2084
:1004600000F0ADBDC0F08E81222840F0C385BD4CA8
:1004700050200DF085F904F1500501E32A2800F021
:10048000508419D8262800F02A84282840F0B28504
:10049000B44C07200DF074F9B4F81A020DF073F99A
:1004A000B4F81C020DF06FF994F81E020DF023F958
:1004B000B4F8200200F062BD2E2800F0BB84302882
:1004C00000F0E6842C2840F09585A64C0C200DF019
:1004D00057F994F83C020DF00EF9B4F848020DF00B
:1004E00052F9B4F844020DF04EF9B4F846020DF09A
:1004F0004AF994F83E020DF0FEF8B4F850020DF0FF
:1005000042F9B4F8520200F039BD402800F052849C
:1005100023D8382800F0F28311D8342800F0F6826E
:10052000362840F06785904B8E4C187804F12805EA
:10053000C0EBC000C0B20DF023F900F077BC3B283F
:1005400000F097823D2800F036823A2840F052852C
:1005500004200DF015F9854BB9E3462800F0BE8460
:100560000BD8422800F03584452840F043851320FD
:100570000DF006F9002400F0E0BC492800F02682C6
:100580004B2800F0D483472840F034850DF0AAF8BA
:10059000054684200DF0F4F828460DF0FDF8744B64
:1005A0000DF17008DC6805F18003A3428CBF641B69
:1005B00080240EF061FE28462246414606F0C8FD22
:1005C0000024054600F09EBC702800F0328259D805
:1005D000672800F03B8134D8522800F0A98418D84D
:1005E0004F2800F09884502840F004855D4C04208A
:1005F0000DF0C6F801200DF07EF894F809050DF015
:100600007AF894F807050DF076F894F8080500F0EC
:10061000D6BC652800F0C88000F2EF80642840F066
:10062000E98407200DF0ACF8E7200DF064F84D4B9D
:1006300058790DF060F800200DF05DF8042000F00E
:1006400087BC6C2800F07A810ED8682800F05F81A2
:10065000692840F0CF84474D00242878400000F0FE
:10066000FE000DF08DF85EE16E2800F0778100F25B
:10067000B38106200DF084F83F4B18680DF08CF81C
:100680003E4BA7E17C2800F067841CD8742800F05A
:1006900060820AD8722800F0C382732840F0AA84CE
:1006A00008200DF06DF80124EFE2772800F0968223
:1006B000782800F0D780752840F09C842F200DF01A
:1006C0005FF82F4CCDE1A02800F0F58209D87E28F4
:1006D00000F06784C0F05684962840F08B840C208C
:1006E00063E0F12800F0ED80FE2800F0D682F028CB
:1006F00040F080841B4C04200DF042F8B4F8F20165
:100700000DF041F8B4F8F00100F038BC03200DF012
:1007100037F800200CF0EFFF01200CF0ECFF102068
:1007200000F04DBC0DF02CF802200CF0E4FF404628
:100730000CF0E1FF022000F042BC00BFBF310020FE
:10074000FC2A002028090020E02A0020BAB801086D
:100750005C150020EFBEADDEF04F00200400FA056E
:1007600000ED00E0D82B0020D61600206C2A0020D7
:10077000840000208C310020942A0020B80D002035
:100780005B96010806200CF0FBFF41200CF0B3FF44
:1007900046200CF0B0FF4E200CF0ADFF41200CF0D5
:1007A000AAFFC54B1878E9E30B200CF0E9FFC34B17
:1007B00018880CF0E8FFC24B188880B20CF0E3FFF9
:1007C000C04B1B68C3F3C000C3F38002800040EA43
:1007D0004200C3F340021043C3F3401240EAC20098
:1007E00003F0100318430CF0CEFF0CF0ABFE0CF03E
:1007F000D3FFB54B93F85C04E1E312200CF0C0FF8B
:10080000B24B00241B88B3F5806F8CBF08250125EF
:10081000AF4B53F82400013490FBF5F080B20CF09C
:10082000B2FF032CF4D1AB4C20880CF0ACFFA088B5
:100830000CF0A9FF2089A84C0CF0A5FF20880CF033
:10084000A2FFA0880CF09FFF208997E310200CF0F6
:1008500097FF0024A14B185D01340CF04CFF102CC5
:10086000F8D11DE5984C70200CF08AFFA0460025B9
:10087000B4F856010CF087FFB4F858010CF083FF70
:10088000B4F85A010CF07FFF94F85C010CF033FFD0
:1008900094F85D010CF02FFF94F85E010CF02BFF33
:1008A00094F85F010CF027FF0E2303FB058301354D
:1008B000D3F860010CF070FF082D04F10E04D7D1BD
:1008C000EEE470200CF05CFF7F4C04F1700594F8AE
:1008D000E6000CF010FF94F8E7000CF00CFF94F821
:1008E000E8000CF008FF94F8E9000CF004FF94F81D
:1008F000EA000CF000FF94F8EB000CF0FCFE07346B
:1009000094F8E5000CF0F7FEAC42E0D1C8E410200A
:100910000CF036FF0024724B185D01340CF0EBFE36
:10092000102CF8D1BCE42B789C42BFF4B9AC6D4BD1
:1009300033F814000CF027FF0134F4E76A4C40460A
:100940000CF01EFF20880CF01EFF60880CF01BFFCF
:10095000B4F904300A2093FBF0F027E04FF6FF745F
:1009600007200CF00DFF614B1888FF28A8BFFF205F
:10097000C0B20CF0C0FE5E4B1868A042A8BF204673
:1009800020EAE07080B20CF0FEFE5A4B18880CF0A2
:10099000FAFE4D4B93F81F22574B186842B10A23B9
:1009A0005843A042A8BF204620EAE07080B2E5E2AA
:1009B00000F30F00FAE7444C02200CF0E1FE94F83B
:1009C0008B020CF098FE94F88A02F8E202200CF0F8
:1009D000D7FE4A4B1888D1E2494C0B200CF0D0FED0
:1009E0002368254618780CF086FE23684FF000082F
:1009F00058780CF080FE2B68414C4344187908F17C
:100A000001080CF078FEB8F1030FF4D12368D8790F
:100A10000CF071FE236898780CF06DFE2368D8788E
:100A20000CF069FE236858890CF0ADFE2368187A33
:100A3000C5E21E200CF0A4FE0024324D2B68234496
:100A400058780CF058FE2B682344D87A0CF053FEEB
:100A50002B682344587D01340CF04DFE0A2CECD158
:100A60001EE414F8010F00283FF41AAC0CF043FE0A
:100A7000F7E701200CF084FE224B1B6818789EE2F9
:100A800094F85D24204B0C2101FB023393F83800CD
:100A90000CF031FE94F85E040CF02DFE94F85F0427
:100AA0000CF029FE043494F85C040CF024FEAC42F3
:100AB000E6D1FFF7F5BB00BFBC310020B631002006
:100AC000CC1F002040150020D82B0020080000205B
:100AD000AC0D002044260020C02A00204809002038
:100AE000C82600208C2B00203C260020E42100207A
:100AF000942100204E0E0020CC0D0020481500202F
:100B0000400D00205C2000205C9601085A200CF06B
:100B100037FED44C04F15A0594F8B2040CF0EBFD06
:100B200094F8AD040CF0E7FD94F8AE040CF0E3FD8E
:100B300094F8AF040CF0DFFD94F8B0040CF0DBFD8A
:100B4000063494F8AB040CF0D6FDAC42E4D1FFF7C8
:100B5000A7BB00254FF0010A4FF0000BC24B1B78DA
:100B60009B4531DAC14B4FF000081BF803200C23E2
:100B700003FB08F3BE4C04F13001595C914209D1EA
:100B80002344586B16F039FA0246BAF1000F07D128
:100B9000534607E008F10108B8F11F0FE7D110E054
:100BA00005440EE093420CDA0C2101FB0841496B2D
:100BB0000392C85C01930CF09EFD019B039A0133E4
:100BC000F0E70BF1010BC9E7BAF1000F3FF468AB96
:100BD000E8B20CF0D5FD4FF0000ABDE7A24D0024AD
:100BE00028780CF0CDFD2B789C42BFF459AB9F4B7D
:100BF000002114F803E00C2202FB01F39C4800F1F1
:100C0000300C13F80C20724505D1034493F83800DA
:100C10000CF071FD02E001311F29ECD10134E2E753
:100C2000904C16200CF0ACFDB4F844020CF0ABFD77
:100C3000B4F8D0000CF0A7FDB4F8D2000CF0A3FD7E
:100C4000B4F8D4000CF09FFDB4F89C020CF09BFDAE
:100C500000200CF050FD00200CF04DFD00200CF0A9
:100C60004AFD94F81F020CF046FD94F840020CF087
:100C700042FD00200CF03FFDB4F9EE310A2093FB59
:100C8000F0F080B20CF07FFD3CE0E0B201340CF0FB
:100C900032FD092CF9D1FFF703BB08200CF070FDE1
:100CA0000024744B33F8140001340CF06CFD042C58
:100CB000F7D1FFF7F5BA0C200CF062FD6E4B186807
:100CC0000CF06AFD6D4B18680CF066FD6C4B1868F3
:100CD0003EE104200CF054FD624B986838E1614C11
:100CE00006200CF04DFDB4F8CC010CF04CFDB4F82E
:100CF000D0010CF048FDB4F8D4013FE104200CF021
:100D00003FFD584C94F812020CF0F5FC94F81602D2
:100D10000CF0F1FC94F815020CF0EDFC94F81702BD
:100D20004DE101200CF02CFD4E4B587947E14D4C24
:100D300008200CF025FD94F89A020CF0DCFC94F8E5
:100D40009B020CF0D8FCB4F89C020CF01CFD94F84B
:100D50009E020CF0D0FCB4F8A0020CF014FD94F844
:100D6000A2022CE1474C484D20784FF0000800EBE0
:100D70004000C0B20CF004FD237802359845BFF462
:100D80008FAA15F8020C0CF0B6FC15F8010C08F14E
:100D9000010800EB800000EB800000F2EE2080B242
:100DA0000CF0F1FCE8E701200CF0EAFC2D4B93F885
:100DB000400204E108200CF0E3FC0024294B23440A
:100DC00093F8340201340CF096FC082CF6D1FFF7AE
:100DD00067BA244C10200CF0D3FC60790CF08BFC2B
:100DE000A0680CF0D9FC94F83C020CF084FCB4F838
:100DF000CC010CF0C8FCB4F8D0010CF0C4FCB4F881
:100E0000D4010CF0C0FCB4F81A020CF0BCFCB4F82D
:100E10001C02B3E01D4AD25C904200F0D4800C3337
:100E20003C2BF7D10834AC423FF43AAA94F8A6021E
:100E30000023EFE740200CF0A3FC0A4C04F140052E
:100E4000B4F864030CF09FFC94F866030CF053FCB8
:100E5000043494F863030CF04EFCAC42F0D1FFF77D
:100E60001FBA00BFD82B00203020002031200020E6
:100E70005C960108B4210020E8F7FF1FECF7FF1F84
:100E8000F0F7FF1F8C3100202C2E0020641500206D
:100E9000E0200CF075FCD94C04F18005B4F8E602B2
:100EA000043400F03F000CF06EFCB4F8E202C0F332
:100EB00086100CF068FC94F8E00200090CF01BFCB2
:100EC00094F8E00200F00F000CF015FC94F8E10239
:100ED0000CF011FCAC42E1D1FFF7E2B90D200CF0AF
:100EE0004FFC10F025FEC64C40F00200C0B20CF0E2
:100EF00002FC20880CF050FCE0680CF04DFC0EF079
:100F000001F925E0AC42BFF6CBA918F804000CF0BB
:100F1000F2FB0134F6E70B200CF032FC00200CF061
:100F2000EAFB00200CF0E7FB00200CF0E4FB0BE0F8
:100F300001200CF025FC002041E0B24B185D01348B
:100F40000CF0D9FB0B2CF8D100200CF025FC002074
:100F50000CF022FCFFF7A4B9A84C08200CF010FC00
:100F6000B4F8D8000CF00FFCB4F8DA000CF00BFC6D
:100F7000B4F8DC000CF007FCB4F8DE000CF003FC65
:100F8000FFF78EB99D4C03200CF0FAFB94F8220277
:100F90000CF0B1FB94F823020CF0ADFB94F82402A2
:100FA0000DE0964C03200CF0EBFB94F8C7010CF01D
:100FB000A2FB94F8C8010CF09EFB94F8C9010CF058
:100FC0009AFBFFF76DB90CF096FBB4F8A8020CF091
:100FD000DAFB94F8AA020CF08EFB94F8AB020CF04A
:100FE0008AFB94F8AD020CF086FB94F8AC020CF08E
:100FF00082FB17E74E283CD10CF05EFB112805461A
:1010000002D907F059FD2FE00CF056FB7B4C05F59B
:10101000947504EB450318710CF05AFB40F2ED2374
:10102000984205DD40F6CA039842A8BF184601E081
:1010300040F2EE20A0F2EE20192390FBF3F004EB37
:101040004504607110E0C0F0FD82D02800F00883F4
:10105000D22840F0B3876C4B1B7803F0040303F0F5
:10106000FF04002B00F0088300200CF089FBFFF741
:1010700017B900F2E381352823D10CF01DFB0E28AF
:101080000546BED80CF018FB0328BAD85B4B0624E3
:1010900004FB053484F8B2040CF00EFB84F8AD04B4
:1010A0000CF00AFB84F8AE040CF006FB84F8AF04E5
:1010B0000CF002FB84F8B0040CF0FEFA84F8B104E2
:1010C000D2E700F2E5802B2804D10CF0F5FA4B4B67
:1010D0005871C9E768D8252807D1484B00229A6083
:1010E0000CF000FB0DF0A8FDBEE738D8232840F037
:1010F00065870CF0E1FA1328044682D80CF0DCFA7C
:1011000000220C2353434149CD1895F838508542AD
:1011100021D10B44394D93F8303004F58B7405EB35
:10112000840463710CF0C8FAA0710CF0C5FAE07188
:101130000CF0C2FA364B37491A6805F1D0030B6040
:10114000354B207200201A6012F032FA334B80F0D7
:101150000100187088E701321F2AD2D151E72728F1
:101160000DD10CF0B5FA254CC4F8CC010CF0B0FA56
:10117000C4F8D0010CF0ACFAC4F8D40174E7292803
:1011800040F01C870CF0A4FA1C4CA4F81A020CF0D6
:101190009FFAA4F81C020CF08FFA84F81E020CF0DF
:1011A00097FAA4F820025FE72F2800F07B8437D855
:1011B0002D2840F003870CF07FFA104C84F83C0295
:1011C0000CF086FAA4F848020CF082FAA4F8440263
:1011D0000CF07EFAA4F846020CF06EFA3B6884F834
:1011E0003E025B79082B7FF63FAF0CF071FAA4F852
:1011F00050020CF06DFAA4F8520235E7D82B00200B
:1012000084000020F2B80108BF3100205C9601087C
:101210005C200020440D0020480D0020020000202A
:1012200031282CD10CF048FA1F2804463FF6E9AECD
:101230003B685B79082B7FF4E4AE0CF049FAB84BBD
:10124000B83403EB840400F03F00E0800CF040FA77
:10125000E388800100F4FE501843E0800CF02CFA83
:10126000000120710CF028FA237900F00F001843D8
:1012700020710CF021FA60710DF0B6FEF4E633280F
:1012800040F09C860CF018FAA54B83F84002EBE680
:1012900041280AD100240CF00FFAA14B2344013459
:1012A000082C83F83402F6D1DEE672D8392811D141
:1012B0000CF002FA9A4C84F812020CF0FDF984F852
:1012C00016020CF0F9F984F815020CF0F5F984F81F
:1012D0001702C9E632D8372840F070865B790724B8
:1012E000B3FBF4F2C2EBC2029A1A12F0FF0F7FF4C2
:1012F00088AEB3FBF4F4013CE4B2FF2C3FF4B4AE8F
:101300000CF0DAF95FFA80F84FFA88F009F03EFC49
:10131000054600283FF475AE80F800800CF0D8F93F
:1013200068800CF0C9F928710CF0C6F968710CF0EE
:10133000C3F9E8710CF0C0F9A871DCE73C281BD1B7
:10134000784C256895F800800CF0B6F918B10228A1
:10135000A8BF022000E0012028702368724A1B7891
:10136000022B14BF71497249984511603FF47CAE5D
:1013700000200CF01AFA77E63E2840F01F860CF0A9
:101380009BF9674C84F88B020CF096F984F88A027A
:101390006AE6482802D10DF0BDFF65E62CD8432847
:1013A00022D10CF089F95E4C0023A36060710CF02F
:1013B00099F90DF041FC0CF07FF984F83C020CF037
:1013C00087F9C4F8CC010CF083F9C4F8D0010CF013
:1013D0007FF9C4F8D4010CF07BF9A4F81A020CF0E0
:1013E00077F9A4F81C023FE6442840F0E785514B0A
:1013F000012283F8302037E64A2802D10CF068F940
:10140000B7E74C2840F0DA850CF056F9444C84F8E4
:101410009A020CF051F984F89B020CF059F9A4F8E7
:101420009C020CF049F984F89E020CF051F9A4F8E2
:10143000A0020CF041F984F8A20215E6D32804D1E9
:101440000CF046F93C4B18800EE600F21F81CD28C7
:1014500009D13A4B1B785C073FF506AE384B4FF489
:10146000C8721A8000E600F2B480C82826D15C79E0
:101470006408122C3FF6C5AD0025A54206D20CF03B
:1014800027F91CAB23F815000135F6E722460023A7
:10149000A34207DA1CA931F813002A4921F81300E6
:1014A0000133F5E7122A05D0264B002123F812104C
:1014B0000132F7E7244B01221A70D5E515D85128DF
:1014C00040F07C85214B1B78012B3FF6CDAD0CF015
:1014D000F3F8134C84F809050CF0EEF884F80705CE
:1014E0000CF0EAF884F80805BEE5CA2830D10024DB
:1014F0000C4DD5F800800CF0DFF8A04488F801000E
:10150000D5F800800CF0D8F8A04488F80B002D68BE
:101510000CF0D2F8254401340A2C6875E8D1A3E513
:10152000D82B00205C200020BC0000208DFC00088F
:10153000712D0108280900204C0D0020BF3100202A
:10154000F80C0020B81E002065280020FE160020A0
:10155000CC2840F033855B79092B7FF652ADC84C1F
:1015600025680CF0A9F8287025680CF0A5F86870BB
:101570000CF0A2F823686428A8BF642018710CF04E
:101580009BF823686428A8BF642058710CF094F875
:101590002368FF28A8BFFF2098710CF08DF82568FC
:1015A000642828BF6420E8710CF086F8A8702568CC
:1015B0000CF082F8E87025680CF08AF83B686881C6
:1015C0005B790A2B7FF650AD24680CF075F8207219
:1015D0004AE5CF287FF437AD0CF07AF86FF4AF6EA0
:1015E00000EB0E039BB2A74CC62B98BFA4F8440295
:1015F0000CF06EF8A4F8D0000CF06AF8A4F8D20051
:101600000CF066F8A4F8D4000CF062F8A4F89C0280
:101610000CF052F80CF050F80CF04EF80CF04CF8BE
:1016200084F81F020CF048F884F840020CF044F8EB
:101630000CF04EF800EB80004000A4F8EE010CF036
:101640003BF838E6904B1B7858073FF50DAD8F4AB5
:10165000137843F0040301E08D4A0123137003E57E
:10166000894B1B785D073FF5FFAC09F075FE0DF067
:1016700033FB09F0ADFCF7E40CF01EF8814B0128B8
:1016800083F85C04F3D983F85C44F0E7DB283FF48B
:10169000EBAC63D8D62809D100240CF019F87D4BA7
:1016A00023F814000134082CF7D1DDE431D8D42814
:1016B00040F084845B790F2B7FF4A3AC0BF0FCFF2C
:1016C000072805463FF69DAC0CF002F86D4B0E2442
:1016D00004FB0534A4F856010BF0FAFFA4F85801F6
:1016E0000BF0F6FFA4F85A010BF0E6FF84F85C015A
:1016F0000BF0E2FF84F85D010BF0DEFF84F85E0181
:101700000BF0DAFF84F85F010BF0ECFFC4F8600126
:10171000AAE4D92811D10BF0DBFF5A4CA4F8D80069
:101720000BF0D6FFA4F8DA000BF0D2FFA4F8DC002F
:101730000BF0CEFFA4F8DE0096E4DA2840F03E84F9
:101740000BF0BAFF4F4C84F822020BF0B5FF84F87F
:1017500023020BF0B1FF84F8240285E4F22821D1A2
:101760000BF0AAFF0F2804463FF64BAC0BF0A4FF8A
:10177000494BC4EBC4041C44A0710BF09DFFE07105
:101780000BF09AFF20720BF097FF60720BF094FF42
:10179000A0720BF091FFE0720BF08EFF20730EF041
:1017A00013FE61E41CD8DC280DD10BF085FF354C0D
:1017B00084F8C7010BF080FF84F8C8010BF07CFFB0
:1017C00084F8C90150E4EF2840F0F8830BF080FF63
:1017D0002C4CA4F8F2010BF07BFFA4F8F00143E4D9
:1017E000F52840F0568101200BF0CAFF0024284B59
:1017F0002A4D2B482146C0221C7085F8314015F037
:10180000B9FB8DF817409DF8172095F83610234B3B
:1018100091426AD99DF8172003EBC20292F8392051
:10182000D2075BD59DF8172003EBC20292F838105F
:101830001C4A32F91120002A50DD9DF8172093F838
:1018400031A003EBC202D26BDFF854B050689DF8B0
:1018500017204FEA0A1803EBC203DB6B0BEB0801FE
:101860001A894BF80800CA80594692B20024012315
:10187000A340134018D10134102CF8D115E000BF5B
:10188000400D0020D82B0020BF310020500E00203A
:10189000A0000020E42A0020B82C00202809002005
:1018A00008160020C8260020234601EB08042281E8
:1018B0000222E2724822A272A268A380E26008F1CA
:1018C00008031022A273194405F0F7F95BF80830F9
:1018D000E2880AF1010A1A6185F831A09DF81730F3
:1018E0000133DBB28DF817308DE793F831000BF040
:1018F00002FF0BF011FFD9F8000009F0DFFA3B6896
:10190000186809F0B9F8B74B3968D9F800201960A0
:10191000B54B1A6009F068FAB44C4FF0000884F82F
:10192000008084F8018009F08BF82F280394F3D10C
:10193000AF4CADF81C802268A188516109F080F895
:10194000019009F07DF88DF8250009F079F88DF8FF
:10195000260009F075F8824609F072F80DF1700B57
:101960000BF8080008F101085FFA88F18A45F3D105
:1019700009F054F88DF8190009F050F82168A3888F
:101980008DF818000B61039BBDF818101B88994255
:1019900000F09C804FF0000A07AC4FF0010B4FF0B5
:1019A00003080DE09DF8703095F831209A4200F25E
:1019B000FC804FF0000A07AC4FF0010B4FF0080815
:1019C0008C4B002018705870894B98689B89436134
:1019D000844B186800680EF02EFC2E2009F088FA5F
:1019E000019809F085FA9DF8250009F081FA9DF823
:1019F000260009F07DFA584609F07AFA0BF1FF3B10
:101A00005FFA8BFB0BF1010BA34414F8010B09F0F7
:101A10006FFA5C45F9D1744CDFF8D8B1404609F053
:101A200067FA20689BF8011009F054FA9BF800103F
:101A3000206809F04FFA6B4B1A6810680EF0F6FB3D
:101A4000206809F03BFA6A4B9A689B891361BAF1E6
:101A5000000F3FF461AF95F83140002C3FF4FCAD2E
:101A6000654B013CDFF8A081E4B283F831402401EA
:101A700008EB040A514618238AF80E3058F804007F
:101A80000C3105F01AF958F80430BAF806205A61FA
:101A9000E1E7FA2840F09282584B1B7859077FF50E
:101AA000E6AD8BE2564C04F140050BF011FEA4F8B4
:101AB00064030BF001FE84F866030BF0FDFD0434B3
:101AC00084F86303AC42F0D1FFF7CEBA019BCDF8A6
:101AD00028B0303B00220F2B00F2488201A151F8C0
:101AE00023F000BF251B00086F1B00083D1F0008E6
:101AF000771B00087D1F0008A51900086D1F00084E
:101B0000111C0008751D0008D11D00081F1E0008CB
:101B1000931E00086D1F0008511E0008CB1E000810
:101B20008F1B0008DFF8E48098F80030BBB395F80D
:101B30009830002B00F02982022B02D9032B10D001
:101B400023E2FD238DF838300EA8002302218DF802
:101B5000393008F06EFE012008F05AFEC1281ED070
:101B600013E207F087FD002800F00F8217E06A23D8
:101B70008DF81C3013E090238DF81C3004238DF871
:101B80001D304FF0000A07AC4FF0020BDBE19DF86F
:101B900070305A1E022A00F2C98185F898304FF041
:101BA000000A07AC4FF0010BCDE1164ADFF85C806C
:101BB0001370114B93F89830013B012B0BD8002385
:101BC0008DF838308DF839300EA80123022188F8BD
:101BD000003008F02EFE002488F8004088F801400C
:101BE000DDE700BFD01600200C170020D41600201F
:101BF0000C2000201017002028090020BF310020F1
:101C0000D82B00200616002008160020C916002038
:101C1000DFF844839DF8703088F8002088F80120B0
:101C200095F83120C2469A427FF6C3AEC74A0324D4
:101C3000137007F01FFDF0B1C548012106F040FF09
:101C4000C8B1DFF814B30221584606F039FF90B14D
:101C500049F20732BBF8003023F00801914200F04E
:101C60009A8149F20A32934200F0958149F20B427F
:101C7000934200F09081B74A0DF1380E93781188A5
:101C80008DF82230ADF82010131D1432F446186878
:101C900059680833ACE803009342E646F6D1186869
:101CA0001B79CCF8000015210EA88CF8043008F040
:101CB000C0FD0BA8082108F055FE00284CD00023D9
:101CC0000BAA08A9985C595C884245D10133032BC3
:101CD000F6D19DF82F308AF802309DF830308AF81E
:101CE00001309DF831308AF800309B4B1A884FF252
:101CF000103322F02001994211D04FF210439A4242
:101D00000DD04FF290339A4209D04FF650039A42C9
:101D100005D002F5BA530F339BB2012B01D8012332
:101D20000EE049F2073122F008038B4207D049F256
:101D30000A339A4203D049F20B439A420CD1022350
:101D400085F8983095F898304FF0000A88F80330FD
:101D5000814C4FF0040BF6E0013C14F0FF047FF4DB
:101D600068AF88F8004088F80140A2464FF0040BA5
:101D7000794C12E195F89830032B40F0F780774BBF
:101D800012241C7008F01EFD002008F0C5FC07207E
:101D900008F0C2FC0E2008F0BFFC204608F0BCFC96
:101DA000142008F0B9FC002008F0B6FCAC2008F0C4
:101DB000B3FC882008F0B0FC132008F0ADFC7620BE
:101DC00008F0AAFC08F0E6FC654807F0C3FB9CE0BD
:101DD00095F89830012B40F0C9809DF8703009A823
:101DE0008DF81C305B008DF8253000238DF82630EF
:101DF00008F090FD28B94FF0000A07AC4FF0010B36
:101E0000CBE0584B0EA81B880221ADF8383008F003
:101E100010FD142008F0FCFC3028ECD1BFE69DF842
:101E200070308DF8243095F89830002B00F0B88091
:101E3000022B02D9032B04D0B2E00CBF07200320F1
:101E400012E009A807F0AAFC0028D4D014221AE056
:101E50009DF870308DF8243095F89830022B02D020
:101E6000032B0AD09CE0042009A908F0C1FD00283A
:101E700040F09E804FF00F0894E009A807F08EFC18
:101E80000028B8D01622354B09A81A7007F060FC5C
:101E9000EDE795F898308DF824A0002B3FF47FAE45
:101EA000022B02D9032B09D079E609A808F032FDEC
:101EB0000028A0D0012009A9142224E009A807F0D5
:101EC0006DFC002897D013222AE095F898308DF801
:101ED00024A0022B0DD0032B1BD0012B4FF0000AA6
:101EE00007AC4FF0010B0CBF4FF002084FF00F088A
:101EF00066E509A808F00EFD00283FF47CAF40F22B
:101F0000DC52052009A908F0C9FC00283FF473AF92
:101F100045E609A807F042FC00283FF46CAF152203
:101F20000E4B09A81A7007F0C1FBEEE74FF0000A4C
:101F300007AC4FF0010B4FF0090841E50A4C4FF098
:101F4000000A4FF0090BD0463AE500BF0616002004
:101F5000CA16002000980108C9160020A01500200C
:101F6000A11500201998010880B801084FF0000A57
:101F700007AC4FF0010B4FF0020821E54FF0010ACA
:101F800007ACD3464FF000081AE5002488F800405B
:101F900088F801402FE70323D2E64FF00F080FE542
:101FA0004FF002084FF0000A07AC4FF0010B07E5B5
:101FB0009DF824B04FF0000A1CACC4E706F07CFD8D
:101FC000FEF76EB90C2803D13D4810F0A9FC49E09A
:101FD0000A2801D00D2864D13A4D3B4810F0A0FCEE
:101FE0002846232114F0FBFF08B1401B2060236822
:101FF0007BB35A1EA95C202901D11346F8E7314A68
:1020000000212360D154314B314ED3F80080D6F8F3
:1020100000902C4F484614F0F0FF054649462A46EA
:10202000384614F0F3FF2B4A20B97B5D43445B78BC
:102030005B0703D010369642E9D306E0964204D2FD
:10204000681CF3683844984702E0234810F068FCA5
:1020500000231C4800213022236014F08BFF029BD8
:102060001B7853B307F068FAFEF762B80C28ABD0C0
:102070007F2804D1FEF75CB82F2B3EF659A8A0F1BB
:102080002002D2B25E2A3EF653A813B920283EF4AD
:102090004FA85A1C22600B4AD05410F0D3FAFEF716
:1020A00047B87F28E8D1074A013B00210B4823604D
:1020B000D15410F035FCFEF73BB85DB0BDE8F08FB1
:1020C0008FB80108C415002059C80108D8030020A2
:1020D00020B5010810B701089AB80108B6B8010880
:1020E0002DE9F04F9D4B9FB01B689D4C9D6A0DF0F4
:1020F000E9FF23689B4EC01A30800DF0E3FF9A4B36
:1021000020601A780693012A01BF3288974B1A8003
:10211000974A04BF12885A80964BDB684BB117A8C8
:1021200098479DF85C3023B12379002B00F04E8551
:102130000AE00DF0C7FF904A23681268EB1A1844B2
:1021400050329042E8D3EFE70DF05AFA08B90DF09B
:102150006DFA8A4D95F84A321BB9894B1B88002BC2
:102160004ED0884AE18812687D4BB1FBF2F1864A75
:10217000481C127880B220811AB3B3F90AA0002358
:10218000774E824A06F10C0832F813C038F9132052
:102190000FFA80F90AFB02F292FBF9F206F1140E33
:1021A0003EF813702EF813C0C7EB0C07174428F83D
:1021B00013700133042BE3D1734B00221A70718129
:1021C00002E05A89013A5A81B4F90A00644A0028A7
:1021D0004FF0000313DDB2F908606D49A1F1080268
:1021E00032F9132031F81310424392FBF6F28A1AA7
:1021F000664921F813200133042BEED100E053810E
:10220000644B01221A70644B5C4E186810F0080F82
:1022100042D05E49DFF8ACE18F8807F10E039BB234
:102220001C2B5E4BB3F9043031D8554A1288520743
:102230002DD50A2293FBF2F2BEF80030D21A92B2E8
:1022400093B20FFA83FE1EF1B30FBCBF02F5B47355
:102250009BB2DFF850E11AB2B32A9EF800E0C4BF87
:10226000A3F5B4739BB21EF0080F96F8D82113D0D3
:1022700052B2524253434A4A1BB21268527A5343F3
:102280006FF01D0293FBF2F31F448F8004E00A22DB
:1022900093FBF2F3AEF8003010F0140F00F0AE80B4
:1022A000374B1B8803F40273002B00F0A7803D4BD3
:1022B00036481B7803F0100303F0FF0E43B13A4B8E
:1022C00096F998121A68438801FB0233438095E01F
:1022D000E369234ADF783549DFF8ECC09B7837B3F0
:1022E000BCF90070B1F906C0C7EB0C010029B8BFFA
:1022F000494299420EDD2E49BC45C1F800E04FF03D
:10230000010182F82010C8BF5B42C2889BB213440F
:10231000C38073E092F820302BB1264B82F820E086
:102320001968254B1960204B1B683B445CE0BCF9E5
:1023300000E0B1F90610CEEB010181EAE17CACEBE3
:10234000E17C9C4542DD022391FBF3F11B4B1960BC
:102350001B4901230B7082F8203042E0502A0020F4
:10236000C4090020B6310020B2210020B421002091
:10237000CA1F00208C14002048150020D82B0020F4
:102380002820002054260020500D00203426002054
:10239000D8090020510D0020401500203C260020C7
:1023A0005C200020500E0020AC2A00208C2B002046
:1023B000A82A0020942A0020A02A0020A43100206E
:1023C000B02A00204C0D0020520D002092F8203041
:1023D0003BB17E4B82F8207019687D4B19607D4BB4
:1023E0001F707D4B1B687344616A0A884988934259
:1023F00003DB8B42A8BF0B461A46C280774B1B7883
:10240000B3B1774BB3F90620B6F846329A420FDCE7
:10241000744B5B79012B01D0192B02D196F89222D3
:1024200032B90E2B04D0082B1EBF6F4B00229A80AE
:1024300096F810727FB36D4B1B8898072BD06C4BAE
:102440006C49D3F82080404611F05CFCF0B940465E
:1024500015F04CF8A16A11F0ADFA14F0CDFFB0F50B
:10246000617FA8BF4FF4617011F050FA624911F01A
:1024700055FB0CF048FB8046384611F047FA4146C0
:1024800011F098FA14F0B8FF80B200E00020564A2C
:10249000D3881844D080594B1878002840F0948392
:1024A000574B1A68984612F4002F00F08D83554F51
:1024B0003B78033B052B1AD896F8093533B1012B2D
:1024C00008D10CF017FFC0F17F0003E0E06A036859
:1024D0009B689847236B94F834201344B3F5807FAE
:1024E000A8BF4FF480738342D4BF236320633B783B
:1024F000023B092B00F26383DFE813F00A001200AD
:102500003F00610361035600900018033B0346033C
:1025100000232363A3633C4B1B68E36303234DE366
:10252000394B1A68E36B64339A4240F24883402087
:1025300009F056F9002840F042834FF04008334D2F
:10254000A36B334EE85C60B104F0D8FE336BB8F196
:10255000010803F1FF333363B36B03F10103B3638A
:10256000EDD1A26B2A4BAA5C002A40F028839A6323
:102570004FF0FF32DA63042320E32A230093254B34
:10258000492003F10C02019302925021A3F10A02A7
:10259000023305F0F1F9002840F011834FF0FF33CA
:1025A000E363A063072309E31B4A0523002100938B
:1025B00001910291532002F1080305F0DDF9002892
:1025C00040F0FD82A0630823F8E200BF942A0020B7
:1025D000A02A0020B02A0020AC2A002002000020FF
:1025E0008C2B0020D82B002034260020282000200F
:1025F0003C2800208FC2753CEFB6B044BE310020AD
:10260000D81F0020FE160020C41F00201C980108BF
:10261000C409002086980108749A0108402009F036
:10262000DFF8002840F0CB82A36B342B00F2D48774
:10263000DFE813F0350039003D0043004900580041
:102640005C0060006400680073007B007F008A000B
:102650009900A800B700C600D500E400E800FB0020
:10266000FF000801150122012F013C01490156011B
:1026700063017001790188019101A001A901B201F2
:10268000BB01240233023C024002440248025202CF
:102690005C026002640268026C0270027402C74845
:1026A00009F012FA3EE2C648C649C74A02E0C748E6
:1026B000C749C84A09F008FA34E2C74896F807152E
:1026C00096F80825F6E795F85C245C235343EA184E
:1026D00092F8D8230C2101FB02331D44BF4895F822
:1026E000DA131DE2BE48B6F8D01019E2BD48B6F8BC
:1026F000D21015E2BC4BBD48196911E2BC4BBD4874
:1027000019880DE2236CD90403D5BB4896F8121240
:1027100006E2BA4B0B229A6304E2B94896F8161205
:1027200096F8172296F8153209E1B648B4F8441025
:10273000F6E1D8F800301A0540F1F481B248B6F855
:102740001C12B6F91A22B5E795F85C245C235343B2
:10275000EA1892F8D8230C2101FB02331D44AB4840
:1027600095F8DB13DCE195F85C245C235343EA180D
:1027700092F8D8230C2101FB02331D44A44895F89C
:10278000E213CDE195F85C245C235343EA1892F8F8
:10279000D8230C2101FB02331D449E4895F8DC131D
:1027A000BEE195F85C245C235343EA1892F8D823E1
:1027B0000C2101FB02331D44974895F8DD13AFE16E
:1027C00095F85C245C235343EA1892F8D8230C2133
:1027D00001FB02331D44914895F8E113A0E195F8FF
:1027E0005C245C235343EA1892F8D8230C2101FBA4
:1027F00002331D448A48B5F8E41391E1894896F8FC
:102800004D128DE195F85C245C235343EA1892F84D
:10281000D8230C2101FB02331D44834895F8DE13B5
:1028200095F8DF2395F8E03389E0804B80481968FC
:1028300076E196F85C345C2202FB03667D4896F8EC
:10284000A4136DE195F85C345C2202FB03557A48D1
:1028500095F8A51395F8AF2395F8B9336FE095F87F
:102860005C345C2202FB0355744895F8A61395F876
:10287000B02395F8BA3362E095F85C345C2202FB31
:1028800003556F4895F8A71395F8B12395F8BB3316
:1028900055E095F85C345C2202FB0355694895F8D5
:1028A000A81395F8B22395F8BC3348E095F85C344A
:1028B0005C2202FB0355644895F8A91395F8B323ED
:1028C00095F8BD333BE095F85C345C2202FB035580
:1028D0005E4895F8AA1395F8B42395F8BE332EE018
:1028E00095F85C345C2202FB0355594895F8AB130C
:1028F00095F8B52395F8BF3321E095F85C345C2258
:1029000002FB0355534895F8AC1395F8B62395F898
:10291000C03314E096F85C345C2202FB03664E4838
:1029200096F8AD13FCE095F85C345C2202FB03558D
:102930004A4895F8AE1395F8B82395F8C23309F0D4
:10294000C3F8EFE096F85C345C2202FB036644486F
:10295000B6F8D213E4E095F85C345C2202FB035530
:102960004049D5F8C80311F025F811F0E9F90146FE
:102970003D48D5E096F85C345C2202FB03663B4898
:1029800096F8D413CCE096F85C345C2202FB036624
:10299000374896F8D513C3E096F85C345C2202FB06
:1029A00003663448B6F8CC13BAE096F85C345C227F
:1029B00002FB03663048B6F8D013B1E01ABA01083A
:1029C00034BA010859BA010807B901085FBA010809
:1029D000F2B80108FEB8010873BA010884BA010808
:1029E0008EBA01089DBA01088C140020ACBA010807
:1029F00008000020BCBA0108C6BA0108C4090020BA
:102A0000D3BA0108ECBA0108F7BA01080ABB0108F9
:102A100014BB010821BB01082BBB010836BB010810
:102A200043BB010855BB010868BB010848150020DD
:102A300077BB010883BB010894BB0108A5BB010853
:102A4000B7BB0108C7BB0108D7BB0108E7BB01083A
:102A5000F8BB010809BC01081BBC01080BBC01083C
:102A600025BC01080000C84234BC010842BC010872
:102A700059BC010871BC01088CBC010895F85C3494
:102A80005C2202FB03558449D5F8C40310F092FF81
:102A900011F056F90146814842E096F85C345C2218
:102AA00002FB03667E4896F8C31339E07D4896F82A
:102AB000221235E07C4896F8231231E07B4896F8E4
:102AC000DB112DE07449D6F8E00110F073FF11F02E
:102AD00037F90146764823E06F49D6F8F40110F043
:102AE00069FF11F02DF90146724819E0724896F815
:102AF000D91115E0714896F8EC1111E0704896F87C
:102B0000EB110DE06F4896F8891209E06E4896F8CF
:102B1000191205E06D4896F84A1201E06C48B16858
:102B200008F0D2FFA36B0133A36348E0694B1B6835
:102B30009B011BD5B4F84830674DBBB9674BD5F83E
:102B40004C8045201E6804F0D9FB0E2004F0D6FB13
:102B5000404608F02DFF304608F02AFF4FF480531E
:102B6000A5F846300A233B7004F04CFC04F0E6FE66
:102B700025E094F85030002BF6D0564B1B689E0190
:102B8000F2D409233B70F1E7554B1A68E36BC83365
:102B90009A4203D996F809557DB904E008F066FE1B
:102BA0000028F7D10BE0E06A07F08CFF94F8513071
:102BB000E562022B01D110F013FD01233B7008F0F8
:102BC0003FFE08B101233B7000232371454B0FAD3D
:102BD0005B6828469847002800F04E81069B1878CD
:102BE0000023414E032804BF56F823103F4F4FEAFD
:102BF000830208BF27F8131035F913100133032B94
:102C0000B150EED138483A4B01461A780BF020FA11
:102C1000D4F854800021404611F060F870B1354B73
:102C20001B88002B00F0FE80D4F8C830324F1B7890
:102C300007F10C0505934FF00008A3E0264B93F82D
:102C4000585095B92D4B1A68994672B1224F40469B
:102C500007F15C012944D9F8002024350BF07DFCF4
:102C60006C2DF3D1012387F8583094F85830002B9D
:102C7000D5D0002556F8250010F048FE204B242121
:102C800001FB05310BF036FC14F0B6FB46F82500CD
:102C90000135032DEED1C2E70000C842A1BC0108F6
:102CA000B1BC0108C6BC0108C2BC0108D2BC010805
:102CB000DEBC0108F1BC0108FFBC01080FBD010822
:102CC00020BD010830BD010849BD010862BD0108F1
:102CD00072BD01082C200020C40900209C31002076
:102CE000C41F00208C14002044260020B4210020A2
:102CF000B5140020B4310020900A002048150020AF
:102D0000200A0020D5F800C009936146CDF81CC008
:102D1000089010F045FD099B8346184610F0F6FD1B
:102D20000146584610F0FAFEDDF81CC00146604628
:102D300010F038FD0346089A19466860104607935C
:102D400010F02EFD0146584610F034FEA96810F030
:102D500029FD079BE8602B60A860DFF8B4B2002370
:102D6000BAF1010F46F8093049F80B30DFF898A2A4
:102D70002FD008F10108B8F1030F07F1040705F19E
:102D8000140564D0A04B56F82800B3F800A09F4B60
:102D90004FEA88091A684FF47A73B3FBF2F3C3EB76
:102DA000431203EB8203DB009BB29A4502BF002370
:102DB0003B602B613B6803443B6010F0A7FD2B692F
:102DC0000133012B2B619DD1002368602860AB602B
:102DD000C3E72869012807DD013810F097FD014697
:102DE000E86810F09BFE00E0002014F05BFD059900
:102DF000864BC9B107900846089310F087FD079AE3
:102E00000146104610F092FF089B68B11A684FF413
:102E10007A73B3FBF2F3C3EB431203EB8203DB00E1
:102E2000AAF8003000231CE01A684FF47A73B3FB51
:102E3000F2F3C3EB431203EB8203DB003A689BB26D
:102E400002EB530292FBF3F34BF8093091E7BAF827
:102E50000000012801D107F0DFFFBAF80030013B84
:102E6000DEE76B4956F8232051F82310521A46F832
:102E700023200133032BF4D194F8203123B1654A88
:102E8000013B82F82031B3E3634D0021D5F8E00126
:102E900010F024FF20B995F8E831013BDBB200E0E7
:102EA000012384F820315D4B5D49B5F8262200935B
:102EB0000D685C49443B08685B490968A8475B4B5F
:102EC0005B4ADB7808935B4B1E78032E17D9514B76
:102ED000D3F824315D88B5F5FA7F10D2564BB2F99C
:102EE0000470B3F9040069420028B8BF40420B1ACD
:102EF0009F4203DB2B18BB42A8BF3B4693804F4B3E
:102F00001B6893F807B0BBF1000F1CD04C4909684F
:102F10008D0715D54B490978012911D9DB784A4D20
:102F200059432D88CB1A9D4288B203DBA9420B4638
:102F3000A8BF2B4601B209031BB291FBF3F301E0DA
:102F40004FF4805304931388002705933D46D4F82B
:102F500024313C460793069BB2F80280B2F90490F4
:102F60001B78DFF8ECA0B54274D20FFA88F0099311
:102F700010F0CCFCDAF8081010F01CFD0690BDF93A
:102F8000140010F0C3FCDAF8041010F013FD069AD8
:102F90000146104610F006FC079B069093F90000CE
:102FA000404209FB00F010F0B1FCDAF80C1010F010
:102FB00001FD069A0146104610F0F4FB10F0C0FE29
:102FC00011AA80B2099BBBF1000F03D0049900B293
:102FD0004843001322F8150011AA32F8152020B238
:102FE00011B2814204DC38B28142B8BF174600E01A
:102FF0001446052B04D1042D9CBF144921F815203B
:1030000001350AF1100AAEE7B4310020481500205E
:10301000D80A0020C4090020D82B00200C2E002044
:10302000BC0000205C200020400D0020E41F002098
:1030300098260020532600203426002090210020CE
:10304000D81F0020C4000020E4210020B42100206B
:10305000EC0A0020954AE71B1368BFB213F4805FA7
:103060009348944B9646944934D0944AB3F80680DA
:103070001278D0F8EC31540758BFD0F8EC211D8AF3
:103080008F4B58BF128A1B6858BFA0F8E821DA8816
:103090000FFA88FCC2EB0509CC45854C03DC1A8885
:1030A0000B681D8805E02A44944505DB0A685D88A5
:1030B0005288A4F8E88112E0B4F9E8214A45D5BF66
:1030C0001A880A680B685D88D9BF1D8890465288A7
:1030D000A84604E0B3F806800B681D885A881FFADA
:1030E00082FCA9B2C1EB0C053AB22DB2AA42754BD3
:1030F00024DD01241C702C0394FBF2F24FF0000C31
:10310000C0F8F021B4450BD211AB33F91C9002FB8F
:1031100009F9C9F30F3923F81C900CF1010CF1E700
:10312000022395FBF3F3CD18674BADB21B78062B4A
:103130000FD1022E0DD8654B5F800AE000241C7071
:10314000022492FBF4F28D18C2EB0C02ADB294B2E1
:1031500000E02C46DEF80010B0F9E83101F48052AE
:1031600001F010010991554904930978D0F8EC3128
:1031700001F00401C9B20591554951480968D0F8D8
:1031800000B001F00061069152494B48B1F90610B8
:1031900007680791DFF8589171000A914FF0000A13
:1031A0000A998A4551D011A93AF801C00FFA88F05E
:1031B0000D920C93CDF82CC010F0A8FB464951F8A5
:1031C0003A1010F0F7FB10F0BBFD29B28842DDF891
:1031D0002CC00C9B0D9A03DB21B28142A8BF014693
:1031E0008C4408991FFA8CFC29F802CF0FFA8CFC4A
:1031F00009B1B9880FE06AB1BBF80600198A091A4B
:103200000498884203DC3988BBF8000004E0BBF86E
:10321000021000E0398878888C4503DB84456146DC
:10322000A8BF0146A9F80010099959B1059949B1FB
:1032300042B9069931B9598A07988842BCBFB98802
:10324000A9F800100AF1020AAAE71C4B1A7802F04A
:10325000040202F0FF034AB11549204F91F8F431FE
:10326000013BDBB2182B00F2468109E0B342F3D2F6
:103270001B4A32F813101B4A22F813100133F5E7EA
:1032800001229A40184B1340002B00F03481174B59
:1032900010481B8813F4807F2CD0064B1A88ADF899
:1032A0005C205A889B88ADF85E2039E0D81F00204A
:1032B000C409002034260020B4270020BF3100209C
:1032C000B027002059260020B2210020B421002080
:1032D0002C2000208C2B0020EC0A00204809002024
:1032E000E42A0020C82600209920980128200020E8
:1032F000C6260020C04B1A88ADF85C205A889B88EF
:10330000ADF85E20BD4AADF860301268D20409D530
:10331000D1F8EC21B0F90640128A944202DA5B42FD
:10332000ADF86030B64D4FF47A72B5F902304FF413
:10333000616403F5E163534393FBF4F3A3F5FA737C
:10334000ADF87430B5F9003003F5E1635A4392FBF0
:10335000F4F2AC4BA2F5FA721B88ADF87620A3F21A
:10336000DC53ADF86230D1F8EC3102881B8AD21AF6
:10337000ADF864204288D21AADF866208288D21A4D
:10338000ADF86820C288D21AADF86A200289D21A34
:10339000ADF86C204289D21AADF86E208289D21A1B
:1033A000ADF87020C289D31AADF872300023002224
:1033B00027F813200133082BF9D1934B93491B684D
:1033C000934D0493934B1B680593934B1B78C3EB6E
:1033D000C30301EB030B594574D00B7833B103F1F0
:1033E000150201239340049A134067D0059B11F8FE
:1033F00006CC4FF00E0E0EFB0C3EBEF90020BEF9BF
:10340000023064209B1A11F9022C9BB25A4392FBA2
:10341000F0F211F805AC4FEA530911F8034CC9EB6F
:1034200002024FEA4A061EA892B211F8018C064425
:1034300014B936F81C0C0CE0B5F9000036F91C6C18
:10344000B04208DA0444844203DBA6423046A8BFF7
:103450002046288008E007DD041BB44203DB8442D9
:10346000A8BF044626462E80DEF80A40012000FA56
:103470000AF02042B5F9006011F9040C12B200FB09
:1034800006F04FF0640690FBF6F014BF4FF0FF34E7
:10349000012490420ADB4FFA88F25A4392FBF6F27B
:1034A000C9EB020212B28242A8BF02465B4B33F85C
:1034B0001C9002FB049423F81C4000E02B80023592
:1034C000073188E7534B564ED3F8008000250E2372
:1034D00003FB058393F9064036F9023FE8B26343E4
:1034E000642493FBF4F434800CF096FF01352044FF
:1034F000082D3080EBD1414B464D1B6813F0200F57
:1035000033D000200CF088FF3880064601200CF0F4
:1035100083FF3D4B414C1B6878801B0625D5414BF2
:10352000374AD3F818321B78012B21D12968B2F918
:10353000003091F914E0B2F9022003FB0EFE91F97C
:1035400006304FF0320C5B4253439EFBFCFE6FF0A3
:10355000310293FBF2F293FBFCF31FFA8EFE7244EE
:10356000B11873442180184460802D68002319E04D
:10357000D5F800E0B2F902309EF906105943322323
:1035800091FBF3F1314421809EF91460B2F90010EF
:1035900001FB06F292FBF3F21044E5E70133082B3E
:1035A0003A5310D00E2101FB035137F91300B1F942
:1035B00000205C009042B1F90210EFDB0AB28242B7
:1035C000A8BF0246EAE70CF01BF808B10CF02EF891
:1035D000144B01221A710BE008F048F900283FF45F
:1035E000EEAA4FF48053A4F846300A23FFF7E6BA58
:1035F0001FB0BDE8F08F00BF98260020D81F002024
:103600003C260020C82600202C200020BF270020B8
:10361000BA0B002000160020B8270020480900201F
:1036200046090020C40900202DE9F04FA04FA14C0D
:103630003A6889B002F59C43203323609E4B1E7884
:10364000CEB19E4909688A4240F20781013E1E7050
:1036500003E1DFF88882072DD8F800308CBF2946B7
:10366000595D974B97481B689847032D09D904EB80
:103670004505A880013609F0D1FEF5B28542E8D3B0
:1036800020E0D8F8002005F1100302EB83039988AD
:10369000DA880028EBD04FF47A73401A5843531A53
:1036A00090FBF3F040F6C90300F57A70984205DC10
:1036B00040F2EE239842B8BF184601E040F6CA0037
:1036C00080B2D4E742F2010A7F4B804E1B68D6F8E5
:1036D000008003EA0A0ABAFA8AFA4FEA5A1A7C4BBD
:1036E000BAF1000F05D194F828201A70794A517860
:1036F00011701B782BB1774B93F8009089F001097A
:1037000000E099460F23DFF8ECB184F8293000255A
:1037100009F084FE854267DA6B00B9F1000F03D02F
:103720006D4A32F8150000E048466C4ADFF8C8C11F
:1037300011684FEA850E8A8B8242694A02D8C98B8A
:1037400081421CD25CF80E005A49804501D2D05A01
:1037500019E0E8B202928DE80A0009F077FE032D25
:10376000019B029A0FDC00994FF0010E91F829C0DD
:103770000EFA05FE2CEA0E0E81F829E003E008F5AA
:1037800096714CF80E10BAF1000F28D194F8BC10C5
:103790000322B1FBF2F202EB42028A1AD2B203EB2D
:1037A000050E724404EB4202508594F8BD202AB9FC
:1037B000022913D93F4A012182F8BD10BBF800202D
:1037C0003BF8020C1044BBF802201044454A80B27A
:1037D000D05200B2032290FBF2F080B2404AD052A5
:1037E00001350BF1060B93E794F829203E4BA2F12B
:1037F0000F004242424184F8D6206AB13B4A126827
:10380000510109D43268D9689A60521AC82A1FD95E
:10381000012283F821201BE02E4A012151701170F2
:1038200032689968DA605B68521A9A4282BF2E4BFE
:10383000002283F82120002509F0F0FD854207DAF7
:10384000E8B209F003FE264B23F815000135F3E733
:1038500094F8BC30013384F8BC301B4B1A6899468D
:1038600012F4805F05D0214B1B68DA0701D40CF0FD
:103870009FF91A4B3D681F68387B00283ED0184AD4
:10388000BB7B013832F810001BB1C0F53B6008303B
:1038900080B200B2A0F57A70B0F57A7FA8BF4FF47D
:1038A0007A7020EAE07010F031F811495CE000BF56
:1038B0009C310020E40B0020E01F0020DC1F0020D2
:1038C000B80000208C310020D81F0020C41F002029
:1038D0007414002000000020E80B0020D41F0020FA
:1038E0008C2B0020A20C0020E41F00202C200020A4
:1038F00000007A44100C0020580C0020D9F8003049
:103900001B043AD5D4F8D830AD4EEB1A002B34DB7B
:1039100005F59C432033C6F8D830AA4B5A79AA4BF8
:1039200033F812108AB2797B92FBF1F196F8DC2021
:10393000013202F00F0386F8DC30334483F8DD10E7
:103940000346A24A825C0130134410289BB2F8D18E
:103950001BB293FBF0F000B26428A8BF642020EAF9
:10396000E0700FF0D3FF9A4910F0D8F8994910F0A1
:1039700021F810F00BFA984B1880D9F80030974FC7
:1039800013F4807F00F0FD80954BDFF858829D4254
:1039900005D998F8022012B9012288F8022098F877
:1039A0000220002A00F0ED808E4A8F4992F82150C3
:1039B000086805F1FF3EDEF100053A78C0F3806348
:1039C00045EB0E05C2F3800B00938A462DB912F029
:1039D000080F0CBF0026022600E0002698F82020E1
:1039E000052A00F2CA80DFE802F0034C608594B13A
:1039F000BBF1000F38D0D4F8F000B4F8F41007F0A1
:103A0000B3F9012809D17949794A09681268C98846
:103A1000642000FB0122C8F81020009B5BB1734AB0
:103A2000126812793AB10FF0A5FC032288F8202021
:103A30004FF47A7236E0002D40F09F806C4AD8F83F
:103A400010101068674A88420AD901920FF092FC60
:103A5000019A032182F8201040F6B831D161BDE708
:103A6000012182F82010B9E7009B4FF4806013B168
:103A70000BF0CAF801E00BF0B7F80022C8F81020EC
:103A80007BE0002D57D1594A1268127A012A02D0E0
:103A90000FF070FCA2E70FF06DFC032288F82020E5
:103AA00040F6B832C8F81C2098E725B1052288F8FE
:103AB0002020012000E02846BBF1000F0BD0D4F8F5
:103AC000F0200326118A4B4A11805180918047498A
:103AD00009684988D180464A1168D8F81420914273
:103AE00002D8BBF1000F45D147F23052C8F81C2074
:103AF000032221E03A7842F002023A700CF058F8C2
:103B00003B4AD8F81C1012680A44C8F8182004224E
:103B100012E0374A9DB11168D8F8182091422CD98B
:103B2000354A92781AB9DAF80020D00725D43A78C5
:103B300022F002023A70052288F820204EE712682F
:103B4000D8F81C100A44C8F8182016E02749284A5B
:103B500009681268C988642000FB01224FF4806064
:103B6000C8F81020002288F8202088F803200BF0E5
:103B70003BF833E700287FF431AF16B1304607F049
:103B80004BF91E4DB5F8DE1005F50D7007F0ECF899
:103B900006461848B5F84432B0F9022003F10B018B
:103BA000914280462CDB0B3B934229DCB0F900208C
:103BB000914225DB9342CCBF0023012321E000BFCB
:103BC000E40B002098210020A8210020C10C002037
:103BD0000000C84200C07F444E0E0020BF310020CC
:103BE000404B4C00E41F00202C200020882B00209C
:103BF000C41F00208C2B002000000020D82B0020A8
:103C00000023002E2ED18F4A1268110106D58E4A4C
:103C1000D27882B93A7852070DD526E08B4B002234
:103C20008B491A605A609A608A4B01220E604E607E
:103C30008E601A700BE0854A002185481160516042
:103C40009160844A00230360436083601370002303
:103C5000C4F8F830C4F8FC300023C4F80031C4F8CC
:103C6000043104E07B4A002313707B4A13703B78D5
:103C7000580732D5D9F80030D9062ED5774B1B78A6
:103C8000DA062AD4764B9B7883B195F88B329EB9AD
:103C90006BB1744B1A68D4F808319B1A002B06DA02
:103CA0000BF086FF704B83F80C6116E06EB91020A4
:103CB00007F0B2F801230EE03BB16A4A4FF47A7183
:103CC000126801FB0323C4F8083194F80C3123B1C6
:103CD00007F08AF8002384F80C310022134695F887
:103CE0008A12B5F846E2B5F848C238F912009B08C6
:103CF0007045C4BF63F07F03DBB201326045B8BFDB
:103D000043F04003042AF0D194F80D2156489A421A
:103D100005D190F80E21F92A04D8013200E00022E2
:103D200080F80E2184F80D314D4B4F4A987803935B
:103D3000DFF810A118BBDAF80030DB0708D582F8ED
:103D40000F01E6B93B78DE0719D50BF065FD16E0EB
:103D50003B78580713D5454B1B7883B13A4BDB783A
:103D60006BB992F80F310133DBB2032B82F80F31BC
:103D700005D911B10BF01CFF01E0002EFAD094F828
:103D80000E31394E142B40F08B80039B9B788BB106
:103D900096F80D315F2B0DD13B7803F0040303F04F
:103DA000FF0B13B10BF004FF04E00B2007F034F815
:103DB00086F80EB13B7803F0040303F0FF01002BFB
:103DC0006ED194F80D31284A572B14D1284B1A681C
:103DD0004FF47A73B3FBF2F3C3EB431203EB8203AA
:103DE000244ADB001380244B1B685B0758D5234B08
:103DF0000A221A8054E0D9F80000460717D55A2B3A
:103E000015D192F810312BB1012382F8101182F8EC
:103E1000113145E092F8123183F0010382F812313A
:103E20000BB10C2000E00D2006F0F6FF38E05D2B12
:103E300000F072855B2B00F071855E2B20D1032092
:103E400000F06DBD2C200020E41F0020702B00200E
:103E5000282600209E26002058260020500E0020F4
:103E600000000020C41F0020E40B00207414002078
:103E700048150020B431002040150020B831002042
:103E8000562B01D10AF0E0FF039B9B78002B00F03A
:103E90004C8594F80D316F2B40F047850BF0BCFC3E
:103EA000D9F80030580737D594F81231B54A93B194
:103EB0003B7859070FD5B8F90610B5F84632994244
:103EC00009DDDAF8003013F0010302BF3221A2F855
:103ED000241182F81231DAF80030DA030DD594F8A3
:103EE0002621A84B2AB993F8102112B93222A3F83F
:103EF0002421012384F826310EE094F81031A14AE0
:103F000053B13B7803F0040303F0FF0123B901230D
:103F100082F8101182F811319B4E0023CAF800304C
:103F200006F1500B3278737816F8010C9A420DD2D4
:103F3000314606F0E1FE48B116F8022C012303FADF
:103F400002F2DAF800301343CAF8003004365E4556
:103F5000E8D18E4B1B7853B18D4EDFF850B23368E9
:103F6000DFF84CA213F0020F40F0EA81E1E1894E44
:103F700006F15A0A3278737816F8010C9A4225D263
:103F8000314606F0B9FE08B3B378834A013B03EB30
:103F9000430396F804E013440C2202FB0E42D2F8CD
:103FA0002C1196F803B0994276480FD0C2F82C3104
:103FB0000023C2F8303182F828B1012390F858214B
:103FC00003FA0EF322EA030380F858310636564509
:103FD000D0D1724BD4F85C611B680293704B1B7894
:103FE0000493704B019300230093019B19680029EF
:103FF00000F0948191F800A0BAF1000F00F08E81DA
:104000005B68029AD31A002B0CDB02F5FA73019A53
:104010005360009A0123934094F8582122EA030345
:1040200084F85831049B002B00F07881019B13F831
:10403000042C4B780432D2B2002B40F039815A4B19
:1040400038F91220B3F8443203F1C800824202DD8D
:1040500091F802B015E0C83B9A4203DA8978C1F1C1
:10406000000B0EE0009A0123934094F8582122EAB5
:10407000030384F85831029B019A03F5FA735360E5
:104080004CE1009B94F858211A41D30700F1468176
:10409000BBF1000FCCBF0220012006F0F7FE0AF1B1
:1040A000FF31384A132900F23181DFE811F01400A2
:1040B000250036004A0063008300A100BE00DB003B
:1040C000E700F5002F014A0059008300A100BE005F
:1040D0009400B100CE0096F800A03046DA44BAF160
:1040E000FA0FA8BF4FF0FA0A2AEAEA7A86F800A087
:1040F00006F0E8FD012022E096F801A03046DA44FF
:10410000BAF1640FA8BF4FF0640A2AEAEA7A86F887
:1041100001A006F0D7FD022011E096F803A030467A
:10412000DA44BAF1640FA8BF4FF0640A2AEAEA7AC7
:1041300086F803A0D2F8601106F06AFD032051460C
:10414000A7E071790D2059446429A8BF642121EAB0
:10415000E171717106F028FEBAF10D0F00F0D68002
:1041600031790E2059446429A8BF642121EAE17104
:1041700031718EE0B1790520594481F30801B171A4
:1041800087E000BFE40B002037300020BE31002064
:104190002C200020863000209C9A0108C41F00209B
:1041A00074140020100D0020D82B00204015002092
:1041B00028200020D2F864210F2091785944C82982
:1041C000A8BFC82121EAE171917006F0EDFDBAF1B6
:1041D0000F0F00F09B80AE4A1220D2F86421517874
:1041E0005944C829A8BFC82121EAE171517050E0A3
:1041F000D2F864211020117B5944C829A8BFC821D6
:1042000021EAE171117306F0CFFDBAF1100F7DD0F4
:104210009F4A1320D2F86421D17A5944C829A8BFF3
:10422000C82121EAE171D17233E0D2F86421112072
:10423000917D5944C829A8BFC82121EAE17191752F
:1042400006F0B2FDBAF1110F60D0914A1420D2F8F5
:104250006421517D5944C829A8BFC82121EAE171D0
:10426000517516E0D2F864210920D1785944C82943
:10427000A8BFC82121EAE171D1700AE0D2F8642117
:104280000A20517B5944C829A8BFC82121EAE171FD
:10429000517306F089FD39E0D2F864210B20D17DFD
:1042A0005944C829A8BFC82121EAE171D175F0E7B6
:1042B000012B2BD138F912308878B3F5617F05DBFB
:1042C00040F633029342A8BF134601E04FF46173F6
:1042D000BAF10C0F1AD14FF4966292FBF0F0A3F5ED
:1042E000617393FBF0F36B4ADBB212789A420DD004
:1042F000184605930AF0D2FC059B5046194606F075
:1043000053FD059B581CC0B206F0C0FD009A012366
:10431000934094F85821134384F85831009B01339B
:104320000093019B0C330193009B042B7FF45DAE43
:1043300012E6D9F80030D80511D5574BDB7873B1A8
:10434000DBF8003099070AD5BAF8003013F0010302
:104350000AD1012000930AF057FC009B05E00120E0
:104360000AF042FC012300E00023326852070BD51B
:1043700053B101200AF038FCBAF800309B0706D48C
:1043800002200AF041FC02E002200AF02DFC434B1F
:10439000BAF8002099689B8912F0030F14BF4B6193
:1043A0000B61DBF8003013F00A0F2DD03368D8060C
:1043B0000DD551070ED404200AF026FC384B0A22F2
:1043C000B3F9043093FBF2F3A4F8683102E004205F
:1043D0000AF00AFC33689A0607D5BAF800305B0683
:1043E00006D440200AF010FC02E040200AF0FCFB5A
:1043F0003368580641BF2A4B0A22B3F9043093FBB5
:10440000F2F348BFA4F86A3133684FF4807019059D
:1044100002D50AF0F9FB01E00AF0E6FB214B5A79DC
:10442000082A01D00E2A04D1402000930AF0DCFBB8
:10443000009BD9F80020520518D593F8D0321BB94B
:104440003B7813F0040F02E0336813F4002F09D017
:10445000154B00221A703C2004F0FCFA30B109F030
:104460000BF9F8E708F06EF80FF0BAF8012384F8BA
:104470006C3194F86D317BB3DBF8003058072BD5E5
:104480003368190712D408200AF0AEFB24E000BFFD
:10449000E40B0020CE1F0020E41F00200C20002091
:1044A0003C260020D82B002060150020BAF80070B0
:1044B00007F00807BFB27FB908200AF0A5FB6E4BD2
:1044C0001A686E4B1A606E4BB8F80620A3F86E217E
:1044D0006C4B1F606C4B1F6094F86D3113B3DBF8AD
:1044E0000030DA061ED533689B0204D44FF4007006
:1044F0000AF07AFB16E0BAF8006006F40076B6B26D
:1045000086B94FF400700AF07FFB5B4B1A685B4B77
:104510001A605B4BB8F80620A3F86E21594B1E6059
:10452000594B1E60D4F85C31B8F9062059898A428B
:104530000EDBB2F5FA6FDF79BFBF531A7B43A1F5EB
:10454000FA6793FBF7F7ACBFC7F16407643700E085
:10455000642795F9D831B5F844629BB295F822C228
:1045600095F823820193002140F2E630474B4FEA51
:10457000410933F9113000939B1B03F2F314844279
:1045800003D8002BB8BF5B4201E04FF4FA73022955
:104590004FF064003E4C20D0BCF1000F04D06345C6
:1045A000CCBFCCEB0303002393FBF0F5DFF8F0A0C6
:1045B0006FF0630B3AF815E00BFB053301353AF960
:1045C00015500FFA8EFBCBEB050B0BFB03FB9BFB94
:1045D000F0F0704424F8090022E0B8F1000F04D094
:1045E0004345CCBFC8EB0303002393FBF0F0244DFD
:1045F0006FF0630A0AFB003305EB400E05EB400049
:10460000BEF970E1B0F97201CEEB0000434393FBB9
:10461000FAFA019BCEEB0A0E0EFB03FEA4F804E0AF
:104620001C4B1B485F54009B0131B342BEBF30F8A6
:1046300009305B4220F80930032995D1164B174DFC
:104640001F6817F480570DD0B2F57A7F05DBB2F5FD
:10465000FA6FA8BF4FF4FA6201E04FF47A72A2F544
:104660007A7228E0B5F846128A421BDBB2F5FA6F7F
:10467000A8BF4FF4FA6216E0942A0020A02A002076
:10468000E40B0020A82A0020AC2A00208C2B00205C
:104690003426002050260020D81F0020D82B0020D0
:1046A000F01600200A46521A4FF47A735A43C1F5A5
:1046B000FA61B2FBF1F24FF0640C92FBFCFEAD4BE1
:1046C0006FF0630833F81E1008FB0E220EF1010E86
:1046D00033F91EE00BB2C3EB0E0E0EFB02F292FB9F
:1046E000FCF30B449BB2C380B7B1A34A1268970096
:1046F00012D5A24AD2787AB9A3F57A731BB21A03FB
:104700004FF47A7392FBF3F3C6F5FA6109B24B43A7
:1047100006EB23369A4BDE809A4B1B8803F040034E
:104720009EB2002E43D0984B0A20B3F9043093FB7D
:10473000F0F0964BB3F86A31C01A00B20FF0E6F809
:1047400093490FF037F9934907460FF02BF80AF019
:10475000DAF9804638460AF0D6F90746B4F902007D
:104760000FF0D4F88146B4F900000FF0CFF84146BD
:1047700082460FF01FF93946834648460FF01AF972
:10478000014658460FF00CF80FF0DAFA4146208047
:1047900048460FF00FF93946804650460FF00AF9A7
:1047A000014640460EF0FEFF0FF0CAFA608095F811
:1047B0004B0200285AD0002E58D1744D95F87E3106
:1047C000834213D085F87E010FF0A0F870490FF0F6
:1047D000F1F8704906460EF0E5FF0AF094F96E4BC9
:1047E000586030460AF08FF9C5F88001B4F900002E
:1047F0000FF08CF8039B0746B4F90400D3F804804B
:104800000FF084F84146814638460FF0D3F8D5F8CA
:1048100080610546314648460FF0CCF801462846EF
:104820000EF0BEFF0FF08CFA5C4DB0F5FA7FA8BF1A
:104830004FF4FA70A842B8BF284641462080484647
:104840000FF0B8F83146804638460FF0B3F801460D
:1048500040460EF0A7FF0FF073FAB0F5FA7FA8BF3D
:104860004FF4FA70A842B8BF2846A0804C4B1A7883
:10487000540704D54B4B1A689B88536142E03E496C
:104880000968C80703D5414991F8841111B142F074
:1048900001021A70444A1278110758BF1A78434926
:1048A0005CBF22F001021A70414A126812F0040F34
:1048B00002D04048008878B93448B0F8140108B1F3
:1048C000920709D43C4A1288003218BF01221AB953
:1048D0003A480088642806D902220A701A7822F021
:1048E00001021A7005E01B78DB0756BF02230A702D
:1048F0000B700BF0E7FB324B1B68C01A002801DB82
:1049000008F0F8FD2F4B9B68002B00F08C802E48A0
:1049100009B0BDE8F04F1847012000E0022001383F
:10492000C0B20AF07FFAFFF7BBBA94F80D31174A0C
:10493000972B05D14FF4C873A2F81431FFF7B0BA22
:10494000A72B06D1184A137843F004031370FFF71E
:10495000A7BA0021BB2B079101D1022303E0B72B9B
:1049600004D14FF6FE73ADF81E3035E0BE2B2DD1CD
:1049700002232FE0D81600202C200020E41F002066
:1049800034260020282000203C260020E40B0020B4
:1049900035FA8E3CDB0FC93F000000200CFEFFFF04
:1049A000BF3100200C200020500E002008200020E5
:1049B00040150020B8310020B4310020CA1F00206B
:1049C000242000208C1400206A0D0020BD2B18D15B
:1049D0004FF6FE73ADF81C30BDF81C20B5F8F03171
:1049E0001344A5F8F031BDF81E20B5F8F231134498
:1049F000A5F8F2310AF028FA002384F80E31FFF707
:104A00004FBA792B04D192F81B3123F0010306E051
:104A10007A2B7FF445AA92F81B3143F0010382F808
:104A20001B31FFF73DBA09B0BDE8F08F9148F0B5F2
:104A30000368914A9C8AA4B2E1B211F0010F2ED012
:104A4000198821F400610904090C1980198889B2B8
:104A500041F48061198000211170517899B19178E9
:104A600011B9D178FF290ED1012191701179022954
:104A700001BF198889B241F400611980517941F070
:104A800001011982E1E0517901F0FE011982D37828
:104A9000FF2B00F0DA80784BFF211970D5E08E07EC
:104AA0003AD5BFF35F8F1479E4B2012C13D151785A
:104AB00089B1917879B1198821F480610904090CD0
:104AC0001980BFF35F8F198B1988947189B241F4F3
:104AD000007119801BE0198BBFF35F8F1479664951
:104AE000022C0AD14C7844B1897831B1198821F46B
:104AF00080610904090C1980A1E014795E49032C36
:104B000005D14C781CB18978002940F098809988AB
:104B100089B241F4806197E04D0756D5012191712A
:104B20005178002937D09178002934D011791C8828
:104B3000022911781DD924F480642404240C1C80DB
:104B40001E8A9568CCB2F6B249B26E54198889B201
:104B500041F4007119800168A31C13700B8A0134A1
:104B6000DBB264B22B558B889BB243F480638B809D
:104B700026E0A4B244F400741C801D8A9668CCB26E
:104B8000EDB249B275541B8A611C49B2DBB20334E1
:104B90007354147014E09178374C09B9217B41B1FA
:104BA000198889B241F400711980137801331370A8
:104BB00006E0198889B241F4807119800123A3703D
:104BC00001680B88DB05FCD43FE001F0400101F0F7
:104BD000FF05E1B114781F8A9668E5B2691C64B2DA
:104BE000FFB23755C9B21679117049B2CC1CA64232
:104BF00001BF9C8824F480642404240C08BF9C809A
:104C000013798B4221D11C4B02351D701DE0270604
:104C10001BD511784CB2661C0AD0156901312C5D88
:104C2000C9B21C821479117049B28C420DD106E0D0
:104C3000D17815701982517809B9117929B99988F3
:104C400021F480610904090C9980137992F90040DC
:104C500001339C4208490CD100238B708B7933B10E
:104C600001688B8823F440731B041B0C8B8000238A
:104C70001375F0BD5C2900206C0D00206B4B6C4A55
:104C80002DE9F04F5E8994694FEA062AB4EB0A0ACF
:104C90009C884FF000054FEA04481C894FF0000B38
:104CA000A4FB0A6765EB0B0B04FB0B77F40944EAE2
:104CB000476418EB04065C884FF000094FEAE715DB
:104CC0004FEAC438DC8849EB050787B0CDE90467B3
:104CD000A4FB0A6704FB0B77340A44EA076418EB69
:104CE00004064FEA27259C894FF0000949EB050788
:104CF000CDE90067AAFB046704FB0B77F40D44EAD7
:104D0000472414F5FA664FEAE75545F10007B6F572
:104D1000FA6F77F10003CDE90267964666DADDE9BE
:104D20000489A4FB046704FB05F34FF0050C07EBB3
:104D30004307A6FB0C230CFB07335F104FEA320638
:104D4000B8EB06084FEA920646EA837669EB070954
:104D50009F10DDE90023921B63EB0703CDE90023DD
:104D6000DDE90267334A4FF0FF33964277EB0303E6
:104D7000CDE9048927DA40F6AC520023A4185D413E
:104D800004FB05F3A4FB04456FF0060205EB4305A5
:104D9000664202FB0566A4FB0223334418EB0206BD
:104DA00049EB0307CDE904670B26A4FB062306FBAA
:104DB0000533DDE900455B104FEA3202A41A65EBCA
:104DC0000305CDE90045DDE902450AFB0BF3AAFB2B
:104DD0000AAB0BEB430B4FEADA7242EA4B02A41A1E
:104DE0004FEAEB7365EB0305CDE90245DEF81C40A5
:104DF000009B019DA4FB032304FB05334FEA52589B
:104E000048EAC3284FEA6359DDE90423B8EB0202FC
:104E100069EB03039946D30B43EA494300B10360AE
:104E200009B1029B0B6007B0BDE8F08FB8140020F9
:104E30006C0D002024FAFFFF2DE9F04F6D4B6E4CF6
:104E40001E6A228887B0C2EB26135B435200C2EB76
:104E5000E602B4F902601B135643B4F90420029130
:104E600053439B1303EBE62606EB860380331B12AA
:104E70000493624BB6F5FA384FEAE6771B6847F1C0
:104E8000FF39A8FB08AB039308FB09F3B4F908202A
:104E90000BEB430BE38905460593D31708FB03F19E
:104EA00002FB0911A8FB0223B4F90A000B44C11745
:104EB0001F030AFB01F300FB0B33AAFB000147EAC7
:104EC00012571944A6611603020A42EA01629219B6
:104ED0004FEA2123E6887B410032A2FB060143F51D
:104EE000004306FB03114B100093CB170193DDE940
:104EF00000231343B4F810E0B4F80CC06DD00FFADF
:104F00008EF0C1170AFB01F1AAFB002300FB0B1175
:104F1000BDF914600B44F71708FB07F106FB0911F4
:104F2000A8FB06670F4479047004801841EAD63163
:104F30005941039B0FFA8CF8C3F5801E7246D317B4
:104F4000002212184FEACE764FEAC3774FEAC80321
:104F50004B4147EA5E07B61A67EB030740F6354355
:104F6000A6FB030103FB0711DDE900230EF02EFF72
:104F7000B4F916204E1302FB06FE470B47EAC14761
:104F8000D31707FB03EEA2FB07235643734407FB2B
:104F90000366A2FB07233344560E46EAC316821962
:104FA000B4F914604FEA636741EB07037143F717E5
:104FB00000FB0717A6FB00013944C60C46EA413640
:104FC00092194FEAE1474FEA1221B4F912207B41CE
:104FD00041EA036113010B4400E000230DB11B0AF9
:104FE0002B60029B13B11A46049B136007B0BDE807
:104FF000F08F00BF6C0D002024150020943100209C
:10500000704770472DE9F041324C334D6289AB8CCB
:10501000B4F904809A1A2389B4F902E05A43B4F926
:105020001230D613B4F91420DB02324493FBF2F2AF
:1050300032440A26E2615643A2F57A6202FB02F389
:10504000B4F90EC002FB0EFE02FB08F2B4F90C80AC
:105050001B130CFB03FC03FB08F31B1403EB623272
:105060000232E388921002F5004253434CF2503270
:10507000B4F920704FEAEE2EB4F900400EEBEC2CA0
:105080000CEB8404BC40AD6A0234A5EBA4043A41A5
:1050900062434FEAD3384EBFB2FBF8F35400B4FB7F
:1050A000F8F340F6DE3448BF5B001A125243624305
:1050B0000A4C08365C43241404EB224202F6CF6209
:1050C000361103EB221300B1036001B10E60BDE89D
:1050D000F08100BFCC1400206C0D002043E3FFFFE3
:1050E00013B50C4B04465B681B20022101AA9847AC
:1050F00070B19DF804209DF8053043EA022303F5C2
:105100004E5310334FF48C7293FBF2F3233323800E
:1051100002B010BDA4140020064B93F82C2002F01E
:10512000FF012AB101220270002283F82C2070476F
:10513000017070476C0D002037B5104B04465D6858
:10514000187806216A46A847A8B19DF800209DF866
:105150000130012043EA022323809DF802209DF8BC
:10516000033043EA022363809DF804209DF8053054
:1051700043EA0223A38003B030BD00BFA414002083
:1051800013B5104B04465B683B2006216A469847DE
:10519000A8B19DF800209DF80130012043EA0223C8
:1051A00023809DF802209DF8033043EA02236380A8
:1051B0009DF804209DF8053043EA0223A38002B045
:1051C00010BD00BFA414002010B5224C2368998A9A
:1051D00089B211F4706F1EBF1F4A012082F82D00A2
:1051E00011F4E06F2BD01A8B9A88890522F4806223
:1051F0004FEA02424FEA12429A8020D41A8892055E
:105200001DD41A88D0050FD51A88D105FCD41A8868
:1052100092B242F400721A801A889205FCD40F4BA5
:1052200018780CF062FD0AE01A8892B242F400721B
:105230001A809A8822F440721204120C9A80226812
:10524000938A23F470631B041B0C9382024B00228D
:105250001A7510BD5C2900206C0D0020602900200B
:10526000054A08B5138801339BB21380034B1878A5
:105270000CF03BFD002008BDCC1F00206029002061
:1052800008B54FF4804008F00BFE012801BF044B25
:105290004FF480425A61034B08BF83F82E0008BDCB
:1052A000000401406C0D002010B5074C23681869FC
:1052B00008F0F6FD38B123681A69044B5A61044BB3
:1052C000012283F82C2010BDB014002000040140FE
:1052D0006C0D0020F8B50E461746084C4FF480556B
:1052E000656140F080000EF0AFF83846002132468C
:1052F0000EF07CF825610120F8BD00BF000C0140D4
:1053000070B50E46054C4FF4805565610EF09CF863
:1053100030460EF099F82561012070BD000C014067
:1053200070B5104C054619200AF0F3FEA36815204D
:105330000021984710B902200AF012FFA36845F037
:10534000180116209847A368002117209847A368E2
:1053500001213D209847A3683E200121BDE870400F
:10536000184700BFA4140020F0B5284D85B095F86B
:105370002F30002B47D1264C2368002B43D01A68CE
:10538000244E12B1B1690A43B2619A889868ADF8A7
:10539000002002228DF80320694604228DF80220A5
:1053A00001F08BFCB369002743F00103B36123686C
:1053B0000126187B197D01F06BFC2368164993F9CF
:1053C00015000AF01BFF2368144A1B6953610293FE
:1053D00008230DEB03008DF80D308DF80C708DF85F
:1053E0000E6008F02EFD236801A85B7D8DF8067025
:1053F0008DF8043003238DF805308DF807600DF02B
:10540000D7FF85F82F6005B0F0BD00BF6C0D002000
:10541000B014002000100240A9520008000401400E
:1054200037B50546FFF7A0FF2C4B1A682C4B9A4264
:105430000ED14FF40053ADF8043002238DF807303D
:10544000042328480DEB03018DF8063001F035FCEC
:10545000254CFFF789FFA36880216B2098476420C3
:105460000AF057FEA36807216820984764200AF0D5
:1054700050FEA36800216B20984764200AF049FE83
:10548000A36801216B2098470F200AF042FEA36811
:1054900018211B2098470F200AF03BFEA368182113
:1054A0001C2098470F200AF034FEA36829461A20D2
:1054B00098470F200AF02DFE0C4AA3681178192096
:1054C000984764200AF025FEA368102137209847EA
:1054D000A36801213820984703B030BD9800002010
:1054E000001BB70000100140A41400204415002048
:1054F00008B5FFF739FF024B4FF400621A8008BD70
:105500000800002070B50546154CFFF72DFFA36875
:1055100080216B20984764200AF0FBFDA3680321DB
:105520006B2098470F4AA3681178192098470F20DD
:105530000AF0EFFDA36829461A209847A3681821AE
:105540001B209847A36818211C209847A3680221B4
:1055500037209847A36838200121BDE870401847DC
:10556000A41400204415002008B5FFF7FDFE074BEA
:105570005B7813B1012B03D008BD4FF4806201E0CA
:105580004FF40062024B1A8008BD00BFA014002037
:105590000800002010B51E4C4000C0B2A36023617B
:1055A0001C4B6071E1700120002121736070227139
:1055B0002075186884F82D1040B383889B0515D496
:1055C0000388D9050DD44FF480530288920502D583
:1055D000013BFAD112E08BB103889BB243F4807394
:1055E000038083889BB243F4407383804FF48053DD
:1055F000227D12B1013BFBD100E013B9BDE81040A0
:105600002EE6034B93F82D0080F0010010BD00BF83
:105610006C0D00205C29002007B5002101AB03229E
:105620007720FFF7B7FF9DF805309DF804001B02B7
:1056300043EA00439DF80600184303B05DF804FBFD
:1056400008B5FFF7E9FF014BD86108BD6C0D0020DC
:1056500008B5FFF7E1FF014B986108BD6C0D002014
:1056600007B5F7216B4606227620FFF793FF9DF8DA
:1056700000309DF801201B0343EA02139DF802202D
:1056800043EA1213084A13609DF803309DF8042082
:105690001B0343EA02139DF8052043EA1213034A51
:1056A000136203B05DF804FB943100206C0D002000
:1056B000104B13B51B78104C13B194F82E30B3B1C6
:1056C000032201AB7720F621FFF764FF9DF8053038
:1056D0009DF804201B0243EA02439DF80620134371
:1056E000064AB2F92020C2F10802D340A36202B0F8
:1056F00010BD00BF810000206C0D0020CC140020E4
:105700000B4B13B51B780B4C13B194F82E3063B1CF
:10571000022201AB7720F621FFF73CFF9DF8042021
:105720009DF8053043EA0223A38402B010BD00BFF8
:10573000810000206C0D002030B505460C46134654
:1057400029462246BDE83040682023E713B50622EB
:10575000044601211C206B46FFF71CFF08B39DF88F
:1057600001309DF80020042143EA022242F38D0219
:1057700092FBF1F29DF8023022809DF8032042EA6C
:10578000032242F38D0292FBF1F29DF80430628015
:105790009DF8052042EA032343F38D0393FBF1F3C5
:1057A000A38002B010BD13B50622044602211820C2
:1057B0006B46FFF7EFFEB8B19DF800309DF8012071
:1057C0009B0803EB022323809DF802309DF8032001
:1057D0009B0803EB022363809DF804309DF80520AD
:1057E0009B0803EB0223A38002B010BD314B2DE9CF
:1057F000F3411B780546002B3CD000242646274663
:10580000A04601345320322108226B46E4B2FFF750
:10581000C1FE08B900204AE09DF801209DF8003043
:10582000202C03EB02231BB29DF8032098449DF823
:10583000023003EB02231BB21F449DF805209DF8A4
:10584000043003EB02231BB21E449DF8073003F023
:105850007F0301D0002BD4D198FBF4F897FBF4F729
:1058600096FBF4F6144BA5F800806F80AE8083F8A9
:1058700030401CE05320322106226B46FFF78AFE9F
:105880000028C7D09DF801209DF8003003EB0223CB
:105890002B809DF803209DF8023003EB02236B80E0
:1058A0009DF805209DF8043003EB0223AB8002B085
:1058B000BDE8F081B61400206C0D002013B5204B1C
:1058C000400002ACC0B2587104F8012DD970012219
:1058D00000211A7359701A711A751A4A1C611068DE
:1058E0009C6083F82D1040B38288920515D40288FD
:1058F000D4050DD44FF480520188890502D5013AB0
:10590000FAD112E08AB1028892B242F48072028027
:10591000828892B242F4407282804FF48052197DA4
:1059200011B1013AFBD100E012B9FFF799FC04E094
:10593000034B93F82D0080F0010002B010BD00BFB2
:105940006C0D00205C290020772048210122B5E75A
:10595000772058210122B1E77620F4213122ADE7EA
:10596000064B002193F82020054B9201343283F836
:105970002E107720F42102F0FC029FE7CC140020C7
:105980006C0D0020034B002283F82E207720F42199
:105990002E2293E76C0D002003460A466820194624
:1059A0008CE713B500222A211C20FFF787FF0E2168
:1059B00002221C20FFF782FF0F2103221C20FFF789
:1059C0007DFF2B2112221C20FFF778FF164A0224AC
:1059D0009369164843F0040393612023ADF8043023
:1059E00004230DEB03018DF806308DF8074001F01C
:1059F00064F922462C211C20FFF760FF2D21012293
:105A00001C20FFF75BFF2E2100221C20FFF756FF12
:105A10002A2105221C20FFF751FF054B4FF480720D
:105A20001A8002B010BD00BF001002400008014003
:105A30000800002008B50F2108221820FFF73EFFBC
:105A40000E2218201021FFF739FF024B4FF480522D
:105A50001A8008BD0800002008B5134B53201B789E
:105A60002D2108227BB1FFF729FF31210A22532083
:105A7000FFF724FF2C210C225320FFF71FFF532098
:105A80003821902209E0FFF719FF31210A22532023
:105A9000FFF714FF53202C210A22FFF70FFF40F2DB
:105AA0000912024B1A8008BDB6140020080000201D
:105AB000FEF7BCBFFFF788BBFEF7B8BFFFF784BB9C
:105AC0002DE9F04F85B006F03DFD8F4B1F78002F7C
:105AD00040F0B8858D4D2B685A0540F1B3858C4B4D
